{
	"Donation.sol": {
		"Donation": {
			"abi": [
				{
					"inputs": [],
					"name": "_beneficiary",
					"outputs": [
						{
							"components": [
								{
									"internalType": "uint256",
									"name": "applyDate",
									"type": "uint256"
								},
								{
									"internalType": "uint256",
									"name": "amount",
									"type": "uint256"
								},
								{
									"internalType": "string",
									"name": "donationType",
									"type": "string"
								},
								{
									"internalType": "bool",
									"name": "isApply",
									"type": "bool"
								}
							],
							"internalType": "struct Donation.Beneficiary",
							"name": "",
							"type": "tuple"
						}
					],
					"stateMutability": "view",
					"type": "function"
				},
				{
					"inputs": [
						{
							"internalType": "uint256",
							"name": "_value",
							"type": "uint256"
						},
						{
							"internalType": "address",
							"name": "_beneficiary",
							"type": "address"
						}
					],
					"name": "donate",
					"outputs": [],
					"stateMutability": "payable",
					"type": "function"
				},
				{
					"inputs": [
						{
							"internalType": "address",
							"name": "",
							"type": "address"
						}
					],
					"name": "donation",
					"outputs": [
						{
							"internalType": "address",
							"name": "",
							"type": "address"
						}
					],
					"stateMutability": "view",
					"type": "function"
				},
				{
					"inputs": [
						{
							"internalType": "address",
							"name": "",
							"type": "address"
						}
					],
					"name": "donator",
					"outputs": [
						{
							"internalType": "uint256",
							"name": "donateDate",
							"type": "uint256"
						},
						{
							"internalType": "uint256",
							"name": "totalDonationAmount",
							"type": "uint256"
						}
					],
					"stateMutability": "view",
					"type": "function"
				},
				{
					"inputs": [
						{
							"internalType": "string",
							"name": "_type",
							"type": "string"
						}
					],
					"name": "setBeneficiary",
					"outputs": [],
					"stateMutability": "nonpayable",
					"type": "function"
				},
				{
					"inputs": [],
					"name": "test",
					"outputs": [
						{
							"internalType": "string",
							"name": "",
							"type": "string"
						}
					],
					"stateMutability": "pure",
					"type": "function"
				}
			],
			"devdoc": {
				"kind": "dev",
				"methods": {},
				"version": 1
			},
			"evm": {
				"assembly": "    /* \"Donation.sol\":67:1571  contract Donation{... */\n  mstore(0x40, 0x80)\n  callvalue\n  dup1\n  iszero\n  tag_1\n  jumpi\n  0x00\n  dup1\n  revert\ntag_1:\n  pop\n  dataSize(sub_0)\n  dup1\n  dataOffset(sub_0)\n  0x00\n  codecopy\n  0x00\n  return\nstop\n\nsub_0: assembly {\n        /* \"Donation.sol\":67:1571  contract Donation{... */\n      mstore(0x40, 0x80)\n      jumpi(tag_1, lt(calldatasize, 0x04))\n      shr(0xe0, calldataload(0x00))\n      dup1\n      0x49ef1467\n      eq\n      tag_2\n      jumpi\n      dup1\n      0x8004f9fa\n      eq\n      tag_3\n      jumpi\n      dup1\n      0x828cedb7\n      eq\n      tag_4\n      jumpi\n      dup1\n      0xcc51d892\n      eq\n      tag_5\n      jumpi\n      dup1\n      0xf457ee5a\n      eq\n      tag_6\n      jumpi\n      dup1\n      0xf8a8fd6d\n      eq\n      tag_7\n      jumpi\n    tag_1:\n      0x00\n      dup1\n      revert\n        /* \"Donation.sol\":611:854  function setBeneficiary(string memory _type) public {... */\n    tag_2:\n      callvalue\n      dup1\n      iszero\n      tag_8\n      jumpi\n      0x00\n      dup1\n      revert\n    tag_8:\n      pop\n      tag_9\n      0x04\n      dup1\n      calldatasize\n      sub\n      dup2\n      add\n      swap1\n      tag_10\n      swap2\n      swap1\n      tag_11\n      jump\t// in\n    tag_10:\n      tag_12\n      jump\t// in\n    tag_9:\n      stop\n        /* \"Donation.sol\":901:1296  function donate(uint _value, address _beneficiary) public payable {... */\n    tag_3:\n      tag_13\n      0x04\n      dup1\n      calldatasize\n      sub\n      dup2\n      add\n      swap1\n      tag_14\n      swap2\n      swap1\n      tag_15\n      jump\t// in\n    tag_14:\n      tag_16\n      jump\t// in\n    tag_13:\n      stop\n        /* \"Donation.sol\":1350:1462  function _beneficiary() public view returns(Beneficiary memory){... */\n    tag_4:\n      callvalue\n      dup1\n      iszero\n      tag_17\n      jumpi\n      0x00\n      dup1\n      revert\n    tag_17:\n      pop\n      tag_18\n      tag_19\n      jump\t// in\n    tag_18:\n      mload(0x40)\n      tag_20\n      swap2\n      swap1\n      tag_21\n      jump\t// in\n    tag_20:\n      mload(0x40)\n      dup1\n      swap2\n      sub\n      swap1\n      return\n        /* \"Donation.sol\":510:550  mapping(address=>Donator) public donator */\n    tag_5:\n      callvalue\n      dup1\n      iszero\n      tag_22\n      jumpi\n      0x00\n      dup1\n      revert\n    tag_22:\n      pop\n      tag_23\n      0x04\n      dup1\n      calldatasize\n      sub\n      dup2\n      add\n      swap1\n      tag_24\n      swap2\n      swap1\n      tag_25\n      jump\t// in\n    tag_24:\n      tag_26\n      jump\t// in\n    tag_23:\n      mload(0x40)\n      tag_27\n      swap3\n      swap2\n      swap1\n      tag_28\n      jump\t// in\n    tag_27:\n      mload(0x40)\n      dup1\n      swap2\n      sub\n      swap1\n      return\n        /* \"Donation.sol\":460:501  mapping(address=>address) public donation */\n    tag_6:\n      callvalue\n      dup1\n      iszero\n      tag_29\n      jumpi\n      0x00\n      dup1\n      revert\n    tag_29:\n      pop\n      tag_30\n      0x04\n      dup1\n      calldatasize\n      sub\n      dup2\n      add\n      swap1\n      tag_31\n      swap2\n      swap1\n      tag_25\n      jump\t// in\n    tag_31:\n      tag_32\n      jump\t// in\n    tag_30:\n      mload(0x40)\n      tag_33\n      swap2\n      swap1\n      tag_34\n      jump\t// in\n    tag_33:\n      mload(0x40)\n      dup1\n      swap2\n      sub\n      swap1\n      return\n        /* \"Donation.sol\":1470:1552  function test() public pure returns(string memory){... */\n    tag_7:\n      callvalue\n      dup1\n      iszero\n      tag_35\n      jumpi\n      0x00\n      dup1\n      revert\n    tag_35:\n      pop\n      tag_36\n      tag_37\n      jump\t// in\n    tag_36:\n      mload(0x40)\n      tag_38\n      swap2\n      swap1\n      tag_39\n      jump\t// in\n    tag_38:\n      mload(0x40)\n      dup1\n      swap2\n      sub\n      swap1\n      return\n        /* \"Donation.sol\":611:854  function setBeneficiary(string memory _type) public {... */\n    tag_12:\n        /* \"Donation.sol\":716:720  true */\n      0x01\n        /* \"Donation.sol\":682:720  beneficiary[msg.sender].isApply !=true */\n      iszero\n      iszero\n        /* \"Donation.sol\":682:693  beneficiary */\n      0x00\n        /* \"Donation.sol\":682:705  beneficiary[msg.sender] */\n      dup1\n        /* \"Donation.sol\":694:704  msg.sender */\n      caller\n        /* \"Donation.sol\":682:705  beneficiary[msg.sender] */\n      0xffffffffffffffffffffffffffffffffffffffff\n      and\n      0xffffffffffffffffffffffffffffffffffffffff\n      and\n      dup2\n      mstore\n      0x20\n      add\n      swap1\n      dup2\n      mstore\n      0x20\n      add\n      0x00\n      keccak256\n        /* \"Donation.sol\":682:713  beneficiary[msg.sender].isApply */\n      0x03\n      add\n      0x00\n      swap1\n      sload\n      swap1\n      0x0100\n      exp\n      swap1\n      div\n      0xff\n      and\n        /* \"Donation.sol\":682:720  beneficiary[msg.sender].isApply !=true */\n      iszero\n      iszero\n      sub\n        /* \"Donation.sol\":674:768  require(beneficiary[msg.sender].isApply !=true, \"You have aleardy registered the beneficiary\") */\n      tag_41\n      jumpi\n      mload(0x40)\n      0x08c379a000000000000000000000000000000000000000000000000000000000\n      dup2\n      mstore\n      0x04\n      add\n      tag_42\n      swap1\n      tag_43\n      jump\t// in\n    tag_42:\n      mload(0x40)\n      dup1\n      swap2\n      sub\n      swap1\n      revert\n    tag_41:\n        /* \"Donation.sol\":805:846  Beneficiary(block.timestamp,0,_type,true) */\n      mload(0x40)\n      dup1\n      0x80\n      add\n      0x40\n      mstore\n      dup1\n        /* \"Donation.sol\":817:832  block.timestamp */\n      timestamp\n        /* \"Donation.sol\":805:846  Beneficiary(block.timestamp,0,_type,true) */\n      dup2\n      mstore\n      0x20\n      add\n        /* \"Donation.sol\":833:834  0 */\n      0x00\n        /* \"Donation.sol\":805:846  Beneficiary(block.timestamp,0,_type,true) */\n      dup2\n      mstore\n      0x20\n      add\n        /* \"Donation.sol\":835:840  _type */\n      dup3\n        /* \"Donation.sol\":805:846  Beneficiary(block.timestamp,0,_type,true) */\n      dup2\n      mstore\n      0x20\n      add\n        /* \"Donation.sol\":841:845  true */\n      0x01\n        /* \"Donation.sol\":805:846  Beneficiary(block.timestamp,0,_type,true) */\n      iszero\n      iszero\n      dup2\n      mstore\n      pop\n        /* \"Donation.sol\":779:790  beneficiary */\n      0x00\n        /* \"Donation.sol\":779:802  beneficiary[msg.sender] */\n      dup1\n        /* \"Donation.sol\":791:801  msg.sender */\n      caller\n        /* \"Donation.sol\":779:802  beneficiary[msg.sender] */\n      0xffffffffffffffffffffffffffffffffffffffff\n      and\n      0xffffffffffffffffffffffffffffffffffffffff\n      and\n      dup2\n      mstore\n      0x20\n      add\n      swap1\n      dup2\n      mstore\n      0x20\n      add\n      0x00\n      keccak256\n        /* \"Donation.sol\":779:846  beneficiary[msg.sender] = Beneficiary(block.timestamp,0,_type,true) */\n      0x00\n      dup3\n      add\n      mload\n      dup2\n      0x00\n      add\n      sstore\n      0x20\n      dup3\n      add\n      mload\n      dup2\n      0x01\n      add\n      sstore\n      0x40\n      dup3\n      add\n      mload\n      dup2\n      0x02\n      add\n      swap1\n      dup2\n      tag_44\n      swap2\n      swap1\n      tag_45\n      jump\t// in\n    tag_44:\n      pop\n      0x60\n      dup3\n      add\n      mload\n      dup2\n      0x03\n      add\n      exp(0x0100, 0x00)\n      dup2\n      sload\n      dup2\n      0xff\n      mul\n      not\n      and\n      swap1\n      dup4\n      iszero\n      iszero\n      mul\n      or\n      swap1\n      sstore\n      pop\n      swap1\n      pop\n      pop\n        /* \"Donation.sol\":611:854  function setBeneficiary(string memory _type) public {... */\n      pop\n      jump\t// out\n        /* \"Donation.sol\":901:1296  function donate(uint _value, address _beneficiary) public payable {... */\n    tag_16:\n        /* \"Donation.sol\":998:1004  _value */\n      dup2\n        /* \"Donation.sol\":986:995  msg.value */\n      callvalue\n        /* \"Donation.sol\":986:1004  msg.value >=_value */\n      lt\n      iszero\n        /* \"Donation.sol\":978:1005  require(msg.value >=_value) */\n      tag_47\n      jumpi\n      0x00\n      dup1\n      revert\n    tag_47:\n        /* \"Donation.sol\":1039:1051  _beneficiary */\n      dup1\n        /* \"Donation.sol\":1016:1024  donation */\n      0x01\n        /* \"Donation.sol\":1016:1036  donation[msg.sender] */\n      0x00\n        /* \"Donation.sol\":1025:1035  msg.sender */\n      caller\n        /* \"Donation.sol\":1016:1036  donation[msg.sender] */\n      0xffffffffffffffffffffffffffffffffffffffff\n      and\n      0xffffffffffffffffffffffffffffffffffffffff\n      and\n      dup2\n      mstore\n      0x20\n      add\n      swap1\n      dup2\n      mstore\n      0x20\n      add\n      0x00\n      keccak256\n      0x00\n        /* \"Donation.sol\":1016:1051  donation[msg.sender] = _beneficiary */\n      0x0100\n      exp\n      dup2\n      sload\n      dup2\n      0xffffffffffffffffffffffffffffffffffffffff\n      mul\n      not\n      and\n      swap1\n      dup4\n      0xffffffffffffffffffffffffffffffffffffffff\n      and\n      mul\n      or\n      swap1\n      sstore\n      pop\n        /* \"Donation.sol\":1098:1104  _value */\n      dup2\n        /* \"Donation.sol\":1062:1073  beneficiary */\n      0x00\n        /* \"Donation.sol\":1062:1087  beneficiary[_beneficiary] */\n      dup1\n        /* \"Donation.sol\":1074:1086  _beneficiary */\n      dup4\n        /* \"Donation.sol\":1062:1087  beneficiary[_beneficiary] */\n      0xffffffffffffffffffffffffffffffffffffffff\n      and\n      0xffffffffffffffffffffffffffffffffffffffff\n      and\n      dup2\n      mstore\n      0x20\n      add\n      swap1\n      dup2\n      mstore\n      0x20\n      add\n      0x00\n      keccak256\n        /* \"Donation.sol\":1062:1094  beneficiary[_beneficiary].amount */\n      0x01\n      add\n      0x00\n        /* \"Donation.sol\":1062:1104  beneficiary[_beneficiary].amount += _value */\n      dup3\n      dup3\n      sload\n      tag_48\n      swap2\n      swap1\n      tag_49\n      jump\t// in\n    tag_48:\n      swap3\n      pop\n      pop\n      dup2\n      swap1\n      sstore\n      pop\n        /* \"Donation.sol\":1117:1124  donator */\n      0x02\n        /* \"Donation.sol\":1117:1136  donator[msg.sender] */\n      0x00\n        /* \"Donation.sol\":1125:1135  msg.sender */\n      caller\n        /* \"Donation.sol\":1117:1136  donator[msg.sender] */\n      0xffffffffffffffffffffffffffffffffffffffff\n      and\n      0xffffffffffffffffffffffffffffffffffffffff\n      and\n      dup2\n      mstore\n      0x20\n      add\n      swap1\n      dup2\n      mstore\n      0x20\n      add\n      0x00\n      keccak256\n        /* \"Donation.sol\":1117:1152  donator[msg.sender].beneficiaryAddr */\n      0x02\n      add\n        /* \"Donation.sol\":1158:1170  _beneficiary */\n      dup2\n        /* \"Donation.sol\":1117:1171  donator[msg.sender].beneficiaryAddr.push(_beneficiary) */\n      swap1\n      dup1\n      0x01\n      dup2\n      sload\n      add\n      dup1\n      dup3\n      sstore\n      dup1\n      swap2\n      pop\n      pop\n      0x01\n      swap1\n      sub\n      swap1\n      0x00\n      mstore\n      keccak256(0x00, 0x20)\n      add\n      0x00\n      swap1\n      swap2\n      swap1\n      swap2\n      swap1\n      swap2\n      0x0100\n      exp\n      dup2\n      sload\n      dup2\n      0xffffffffffffffffffffffffffffffffffffffff\n      mul\n      not\n      and\n      swap1\n      dup4\n      0xffffffffffffffffffffffffffffffffffffffff\n      and\n      mul\n      or\n      swap1\n      sstore\n      pop\n        /* \"Donation.sol\":1215:1230  block.timestamp */\n      timestamp\n        /* \"Donation.sol\":1182:1189  donator */\n      0x02\n        /* \"Donation.sol\":1182:1201  donator[msg.sender] */\n      0x00\n        /* \"Donation.sol\":1190:1200  msg.sender */\n      caller\n        /* \"Donation.sol\":1182:1201  donator[msg.sender] */\n      0xffffffffffffffffffffffffffffffffffffffff\n      and\n      0xffffffffffffffffffffffffffffffffffffffff\n      and\n      dup2\n      mstore\n      0x20\n      add\n      swap1\n      dup2\n      mstore\n      0x20\n      add\n      0x00\n      keccak256\n        /* \"Donation.sol\":1182:1212  donator[msg.sender].donateDate */\n      0x00\n      add\n        /* \"Donation.sol\":1182:1230  donator[msg.sender].donateDate = block.timestamp */\n      dup2\n      swap1\n      sstore\n      pop\n        /* \"Donation.sol\":1282:1288  _value */\n      dup2\n        /* \"Donation.sol\":1241:1248  donator */\n      0x02\n        /* \"Donation.sol\":1241:1260  donator[msg.sender] */\n      0x00\n        /* \"Donation.sol\":1249:1259  msg.sender */\n      caller\n        /* \"Donation.sol\":1241:1260  donator[msg.sender] */\n      0xffffffffffffffffffffffffffffffffffffffff\n      and\n      0xffffffffffffffffffffffffffffffffffffffff\n      and\n      dup2\n      mstore\n      0x20\n      add\n      swap1\n      dup2\n      mstore\n      0x20\n      add\n      0x00\n      keccak256\n        /* \"Donation.sol\":1241:1280  donator[msg.sender].totalDonationAmount */\n      0x01\n      add\n      0x00\n        /* \"Donation.sol\":1241:1288  donator[msg.sender].totalDonationAmount+=_value */\n      dup3\n      dup3\n      sload\n      tag_51\n      swap2\n      swap1\n      tag_49\n      jump\t// in\n    tag_51:\n      swap3\n      pop\n      pop\n      dup2\n      swap1\n      sstore\n      pop\n        /* \"Donation.sol\":901:1296  function donate(uint _value, address _beneficiary) public payable {... */\n      pop\n      pop\n      jump\t// out\n        /* \"Donation.sol\":1350:1462  function _beneficiary() public view returns(Beneficiary memory){... */\n    tag_19:\n        /* \"Donation.sol\":1394:1412  Beneficiary memory */\n      tag_52\n      tag_53\n      jump\t// in\n    tag_52:\n        /* \"Donation.sol\":1431:1442  beneficiary */\n      0x00\n        /* \"Donation.sol\":1431:1454  beneficiary[msg.sender] */\n      dup1\n        /* \"Donation.sol\":1443:1453  msg.sender */\n      caller\n        /* \"Donation.sol\":1431:1454  beneficiary[msg.sender] */\n      0xffffffffffffffffffffffffffffffffffffffff\n      and\n      0xffffffffffffffffffffffffffffffffffffffff\n      and\n      dup2\n      mstore\n      0x20\n      add\n      swap1\n      dup2\n      mstore\n      0x20\n      add\n      0x00\n      keccak256\n        /* \"Donation.sol\":1424:1454  return beneficiary[msg.sender] */\n      mload(0x40)\n      dup1\n      0x80\n      add\n      0x40\n      mstore\n      swap1\n      dup2\n      0x00\n      dup3\n      add\n      sload\n      dup2\n      mstore\n      0x20\n      add\n      0x01\n      dup3\n      add\n      sload\n      dup2\n      mstore\n      0x20\n      add\n      0x02\n      dup3\n      add\n      dup1\n      sload\n      tag_55\n      swap1\n      tag_56\n      jump\t// in\n    tag_55:\n      dup1\n      0x1f\n      add\n      0x20\n      dup1\n      swap2\n      div\n      mul\n      0x20\n      add\n      mload(0x40)\n      swap1\n      dup2\n      add\n      0x40\n      mstore\n      dup1\n      swap3\n      swap2\n      swap1\n      dup2\n      dup2\n      mstore\n      0x20\n      add\n      dup3\n      dup1\n      sload\n      tag_57\n      swap1\n      tag_56\n      jump\t// in\n    tag_57:\n      dup1\n      iszero\n      tag_58\n      jumpi\n      dup1\n      0x1f\n      lt\n      tag_59\n      jumpi\n      0x0100\n      dup1\n      dup4\n      sload\n      div\n      mul\n      dup4\n      mstore\n      swap2\n      0x20\n      add\n      swap2\n      jump(tag_58)\n    tag_59:\n      dup3\n      add\n      swap2\n      swap1\n      0x00\n      mstore\n      keccak256(0x00, 0x20)\n      swap1\n    tag_60:\n      dup2\n      sload\n      dup2\n      mstore\n      swap1\n      0x01\n      add\n      swap1\n      0x20\n      add\n      dup1\n      dup4\n      gt\n      tag_60\n      jumpi\n      dup3\n      swap1\n      sub\n      0x1f\n      and\n      dup3\n      add\n      swap2\n    tag_58:\n      pop\n      pop\n      pop\n      pop\n      pop\n      dup2\n      mstore\n      0x20\n      add\n      0x03\n      dup3\n      add\n      0x00\n      swap1\n      sload\n      swap1\n      0x0100\n      exp\n      swap1\n      div\n      0xff\n      and\n      iszero\n      iszero\n      iszero\n      iszero\n      dup2\n      mstore\n      pop\n      pop\n      swap1\n      pop\n        /* \"Donation.sol\":1350:1462  function _beneficiary() public view returns(Beneficiary memory){... */\n      swap1\n      jump\t// out\n        /* \"Donation.sol\":510:550  mapping(address=>Donator) public donator */\n    tag_26:\n      mstore(0x20, 0x02)\n      dup1\n      0x00\n      mstore\n      keccak256(0x00, 0x40)\n      0x00\n      swap2\n      pop\n      swap1\n      pop\n      dup1\n      0x00\n      add\n      sload\n      swap1\n      dup1\n      0x01\n      add\n      sload\n      swap1\n      pop\n      dup3\n      jump\t// out\n        /* \"Donation.sol\":460:501  mapping(address=>address) public donation */\n    tag_32:\n      mstore(0x20, 0x01)\n      dup1\n      0x00\n      mstore\n      keccak256(0x00, 0x40)\n      0x00\n      swap2\n      pop\n      sload\n      swap1\n      0x0100\n      exp\n      swap1\n      div\n      0xffffffffffffffffffffffffffffffffffffffff\n      and\n      dup2\n      jump\t// out\n        /* \"Donation.sol\":1470:1552  function test() public pure returns(string memory){... */\n    tag_37:\n        /* \"Donation.sol\":1506:1519  string memory */\n      0x60\n        /* \"Donation.sol\":1531:1544  return \"test\" */\n      mload(0x40)\n      dup1\n      0x40\n      add\n      0x40\n      mstore\n      dup1\n      0x04\n      dup2\n      mstore\n      0x20\n      add\n      0x7465737400000000000000000000000000000000000000000000000000000000\n      dup2\n      mstore\n      pop\n      swap1\n      pop\n        /* \"Donation.sol\":1470:1552  function test() public pure returns(string memory){... */\n      swap1\n      jump\t// out\n    tag_53:\n      mload(0x40)\n      dup1\n      0x80\n      add\n      0x40\n      mstore\n      dup1\n      0x00\n      dup2\n      mstore\n      0x20\n      add\n      0x00\n      dup2\n      mstore\n      0x20\n      add\n      0x60\n      dup2\n      mstore\n      0x20\n      add\n      iszero(iszero(0x00))\n      dup2\n      mstore\n      pop\n      swap1\n      jump\t// out\n        /* \"#utility.yul\":7:82   */\n    tag_62:\n        /* \"#utility.yul\":40:46   */\n      0x00\n        /* \"#utility.yul\":73:75   */\n      0x40\n        /* \"#utility.yul\":67:76   */\n      mload\n        /* \"#utility.yul\":57:76   */\n      swap1\n      pop\n        /* \"#utility.yul\":7:82   */\n      swap1\n      jump\t// out\n        /* \"#utility.yul\":88:205   */\n    tag_63:\n        /* \"#utility.yul\":197:198   */\n      0x00\n        /* \"#utility.yul\":194:195   */\n      dup1\n        /* \"#utility.yul\":187:199   */\n      revert\n        /* \"#utility.yul\":211:328   */\n    tag_64:\n        /* \"#utility.yul\":320:321   */\n      0x00\n        /* \"#utility.yul\":317:318   */\n      dup1\n        /* \"#utility.yul\":310:322   */\n      revert\n        /* \"#utility.yul\":334:451   */\n    tag_65:\n        /* \"#utility.yul\":443:444   */\n      0x00\n        /* \"#utility.yul\":440:441   */\n      dup1\n        /* \"#utility.yul\":433:445   */\n      revert\n        /* \"#utility.yul\":457:574   */\n    tag_66:\n        /* \"#utility.yul\":566:567   */\n      0x00\n        /* \"#utility.yul\":563:564   */\n      dup1\n        /* \"#utility.yul\":556:568   */\n      revert\n        /* \"#utility.yul\":580:682   */\n    tag_67:\n        /* \"#utility.yul\":621:627   */\n      0x00\n        /* \"#utility.yul\":672:674   */\n      0x1f\n        /* \"#utility.yul\":668:675   */\n      not\n        /* \"#utility.yul\":663:665   */\n      0x1f\n        /* \"#utility.yul\":656:661   */\n      dup4\n        /* \"#utility.yul\":652:666   */\n      add\n        /* \"#utility.yul\":648:676   */\n      and\n        /* \"#utility.yul\":638:676   */\n      swap1\n      pop\n        /* \"#utility.yul\":580:682   */\n      swap2\n      swap1\n      pop\n      jump\t// out\n        /* \"#utility.yul\":688:868   */\n    tag_68:\n        /* \"#utility.yul\":736:813   */\n      0x4e487b7100000000000000000000000000000000000000000000000000000000\n        /* \"#utility.yul\":733:734   */\n      0x00\n        /* \"#utility.yul\":726:814   */\n      mstore\n        /* \"#utility.yul\":833:837   */\n      0x41\n        /* \"#utility.yul\":830:831   */\n      0x04\n        /* \"#utility.yul\":823:838   */\n      mstore\n        /* \"#utility.yul\":857:861   */\n      0x24\n        /* \"#utility.yul\":854:855   */\n      0x00\n        /* \"#utility.yul\":847:862   */\n      revert\n        /* \"#utility.yul\":874:1155   */\n    tag_69:\n        /* \"#utility.yul\":957:984   */\n      tag_122\n        /* \"#utility.yul\":979:983   */\n      dup3\n        /* \"#utility.yul\":957:984   */\n      tag_67\n      jump\t// in\n    tag_122:\n        /* \"#utility.yul\":949:955   */\n      dup2\n        /* \"#utility.yul\":945:985   */\n      add\n        /* \"#utility.yul\":1087:1093   */\n      dup2\n        /* \"#utility.yul\":1075:1085   */\n      dup2\n        /* \"#utility.yul\":1072:1094   */\n      lt\n        /* \"#utility.yul\":1051:1069   */\n      0xffffffffffffffff\n        /* \"#utility.yul\":1039:1049   */\n      dup3\n        /* \"#utility.yul\":1036:1070   */\n      gt\n        /* \"#utility.yul\":1033:1095   */\n      or\n        /* \"#utility.yul\":1030:1118   */\n      iszero\n      tag_123\n      jumpi\n        /* \"#utility.yul\":1098:1116   */\n      tag_124\n      tag_68\n      jump\t// in\n    tag_124:\n        /* \"#utility.yul\":1030:1118   */\n    tag_123:\n        /* \"#utility.yul\":1138:1148   */\n      dup1\n        /* \"#utility.yul\":1134:1136   */\n      0x40\n        /* \"#utility.yul\":1127:1149   */\n      mstore\n        /* \"#utility.yul\":917:1155   */\n      pop\n        /* \"#utility.yul\":874:1155   */\n      pop\n      pop\n      jump\t// out\n        /* \"#utility.yul\":1161:1290   */\n    tag_70:\n        /* \"#utility.yul\":1195:1201   */\n      0x00\n        /* \"#utility.yul\":1222:1242   */\n      tag_126\n      tag_62\n      jump\t// in\n    tag_126:\n        /* \"#utility.yul\":1212:1242   */\n      swap1\n      pop\n        /* \"#utility.yul\":1251:1284   */\n      tag_127\n        /* \"#utility.yul\":1279:1283   */\n      dup3\n        /* \"#utility.yul\":1271:1277   */\n      dup3\n        /* \"#utility.yul\":1251:1284   */\n      tag_69\n      jump\t// in\n    tag_127:\n        /* \"#utility.yul\":1161:1290   */\n      swap2\n      swap1\n      pop\n      jump\t// out\n        /* \"#utility.yul\":1296:1604   */\n    tag_71:\n        /* \"#utility.yul\":1358:1362   */\n      0x00\n        /* \"#utility.yul\":1448:1466   */\n      0xffffffffffffffff\n        /* \"#utility.yul\":1440:1446   */\n      dup3\n        /* \"#utility.yul\":1437:1467   */\n      gt\n        /* \"#utility.yul\":1434:1490   */\n      iszero\n      tag_129\n      jumpi\n        /* \"#utility.yul\":1470:1488   */\n      tag_130\n      tag_68\n      jump\t// in\n    tag_130:\n        /* \"#utility.yul\":1434:1490   */\n    tag_129:\n        /* \"#utility.yul\":1508:1537   */\n      tag_131\n        /* \"#utility.yul\":1530:1536   */\n      dup3\n        /* \"#utility.yul\":1508:1537   */\n      tag_67\n      jump\t// in\n    tag_131:\n        /* \"#utility.yul\":1500:1537   */\n      swap1\n      pop\n        /* \"#utility.yul\":1592:1596   */\n      0x20\n        /* \"#utility.yul\":1586:1590   */\n      dup2\n        /* \"#utility.yul\":1582:1597   */\n      add\n        /* \"#utility.yul\":1574:1597   */\n      swap1\n      pop\n        /* \"#utility.yul\":1296:1604   */\n      swap2\n      swap1\n      pop\n      jump\t// out\n        /* \"#utility.yul\":1610:1756   */\n    tag_72:\n        /* \"#utility.yul\":1707:1713   */\n      dup3\n        /* \"#utility.yul\":1702:1705   */\n      dup2\n        /* \"#utility.yul\":1697:1700   */\n      dup4\n        /* \"#utility.yul\":1684:1714   */\n      calldatacopy\n        /* \"#utility.yul\":1748:1749   */\n      0x00\n        /* \"#utility.yul\":1739:1745   */\n      dup4\n        /* \"#utility.yul\":1734:1737   */\n      dup4\n        /* \"#utility.yul\":1730:1746   */\n      add\n        /* \"#utility.yul\":1723:1750   */\n      mstore\n        /* \"#utility.yul\":1610:1756   */\n      pop\n      pop\n      pop\n      jump\t// out\n        /* \"#utility.yul\":1762:2187   */\n    tag_73:\n        /* \"#utility.yul\":1840:1845   */\n      0x00\n        /* \"#utility.yul\":1865:1931   */\n      tag_134\n        /* \"#utility.yul\":1881:1930   */\n      tag_135\n        /* \"#utility.yul\":1923:1929   */\n      dup5\n        /* \"#utility.yul\":1881:1930   */\n      tag_71\n      jump\t// in\n    tag_135:\n        /* \"#utility.yul\":1865:1931   */\n      tag_70\n      jump\t// in\n    tag_134:\n        /* \"#utility.yul\":1856:1931   */\n      swap1\n      pop\n        /* \"#utility.yul\":1954:1960   */\n      dup3\n        /* \"#utility.yul\":1947:1952   */\n      dup2\n        /* \"#utility.yul\":1940:1961   */\n      mstore\n        /* \"#utility.yul\":1992:1996   */\n      0x20\n        /* \"#utility.yul\":1985:1990   */\n      dup2\n        /* \"#utility.yul\":1981:1997   */\n      add\n        /* \"#utility.yul\":2030:2033   */\n      dup5\n        /* \"#utility.yul\":2021:2027   */\n      dup5\n        /* \"#utility.yul\":2016:2019   */\n      dup5\n        /* \"#utility.yul\":2012:2028   */\n      add\n        /* \"#utility.yul\":2009:2034   */\n      gt\n        /* \"#utility.yul\":2006:2118   */\n      iszero\n      tag_136\n      jumpi\n        /* \"#utility.yul\":2037:2116   */\n      tag_137\n      tag_66\n      jump\t// in\n    tag_137:\n        /* \"#utility.yul\":2006:2118   */\n    tag_136:\n        /* \"#utility.yul\":2127:2181   */\n      tag_138\n        /* \"#utility.yul\":2174:2180   */\n      dup5\n        /* \"#utility.yul\":2169:2172   */\n      dup3\n        /* \"#utility.yul\":2164:2167   */\n      dup6\n        /* \"#utility.yul\":2127:2181   */\n      tag_72\n      jump\t// in\n    tag_138:\n        /* \"#utility.yul\":1846:2187   */\n      pop\n        /* \"#utility.yul\":1762:2187   */\n      swap4\n      swap3\n      pop\n      pop\n      pop\n      jump\t// out\n        /* \"#utility.yul\":2207:2547   */\n    tag_74:\n        /* \"#utility.yul\":2263:2268   */\n      0x00\n        /* \"#utility.yul\":2312:2315   */\n      dup3\n        /* \"#utility.yul\":2305:2309   */\n      0x1f\n        /* \"#utility.yul\":2297:2303   */\n      dup4\n        /* \"#utility.yul\":2293:2310   */\n      add\n        /* \"#utility.yul\":2289:2316   */\n      slt\n        /* \"#utility.yul\":2279:2401   */\n      tag_140\n      jumpi\n        /* \"#utility.yul\":2320:2399   */\n      tag_141\n      tag_65\n      jump\t// in\n    tag_141:\n        /* \"#utility.yul\":2279:2401   */\n    tag_140:\n        /* \"#utility.yul\":2437:2443   */\n      dup2\n        /* \"#utility.yul\":2424:2444   */\n      calldataload\n        /* \"#utility.yul\":2462:2541   */\n      tag_142\n        /* \"#utility.yul\":2537:2540   */\n      dup5\n        /* \"#utility.yul\":2529:2535   */\n      dup3\n        /* \"#utility.yul\":2522:2526   */\n      0x20\n        /* \"#utility.yul\":2514:2520   */\n      dup7\n        /* \"#utility.yul\":2510:2527   */\n      add\n        /* \"#utility.yul\":2462:2541   */\n      tag_73\n      jump\t// in\n    tag_142:\n        /* \"#utility.yul\":2453:2541   */\n      swap2\n      pop\n        /* \"#utility.yul\":2269:2547   */\n      pop\n        /* \"#utility.yul\":2207:2547   */\n      swap3\n      swap2\n      pop\n      pop\n      jump\t// out\n        /* \"#utility.yul\":2553:3062   */\n    tag_11:\n        /* \"#utility.yul\":2622:2628   */\n      0x00\n        /* \"#utility.yul\":2671:2673   */\n      0x20\n        /* \"#utility.yul\":2659:2668   */\n      dup3\n        /* \"#utility.yul\":2650:2657   */\n      dup5\n        /* \"#utility.yul\":2646:2669   */\n      sub\n        /* \"#utility.yul\":2642:2674   */\n      slt\n        /* \"#utility.yul\":2639:2758   */\n      iszero\n      tag_144\n      jumpi\n        /* \"#utility.yul\":2677:2756   */\n      tag_145\n      tag_63\n      jump\t// in\n    tag_145:\n        /* \"#utility.yul\":2639:2758   */\n    tag_144:\n        /* \"#utility.yul\":2825:2826   */\n      0x00\n        /* \"#utility.yul\":2814:2823   */\n      dup3\n        /* \"#utility.yul\":2810:2827   */\n      add\n        /* \"#utility.yul\":2797:2828   */\n      calldataload\n        /* \"#utility.yul\":2855:2873   */\n      0xffffffffffffffff\n        /* \"#utility.yul\":2847:2853   */\n      dup2\n        /* \"#utility.yul\":2844:2874   */\n      gt\n        /* \"#utility.yul\":2841:2958   */\n      iszero\n      tag_146\n      jumpi\n        /* \"#utility.yul\":2877:2956   */\n      tag_147\n      tag_64\n      jump\t// in\n    tag_147:\n        /* \"#utility.yul\":2841:2958   */\n    tag_146:\n        /* \"#utility.yul\":2982:3045   */\n      tag_148\n        /* \"#utility.yul\":3037:3044   */\n      dup5\n        /* \"#utility.yul\":3028:3034   */\n      dup3\n        /* \"#utility.yul\":3017:3026   */\n      dup6\n        /* \"#utility.yul\":3013:3035   */\n      add\n        /* \"#utility.yul\":2982:3045   */\n      tag_74\n      jump\t// in\n    tag_148:\n        /* \"#utility.yul\":2972:3045   */\n      swap2\n      pop\n        /* \"#utility.yul\":2768:3055   */\n      pop\n        /* \"#utility.yul\":2553:3062   */\n      swap3\n      swap2\n      pop\n      pop\n      jump\t// out\n        /* \"#utility.yul\":3068:3145   */\n    tag_75:\n        /* \"#utility.yul\":3105:3112   */\n      0x00\n        /* \"#utility.yul\":3134:3139   */\n      dup2\n        /* \"#utility.yul\":3123:3139   */\n      swap1\n      pop\n        /* \"#utility.yul\":3068:3145   */\n      swap2\n      swap1\n      pop\n      jump\t// out\n        /* \"#utility.yul\":3151:3273   */\n    tag_76:\n        /* \"#utility.yul\":3224:3248   */\n      tag_151\n        /* \"#utility.yul\":3242:3247   */\n      dup2\n        /* \"#utility.yul\":3224:3248   */\n      tag_75\n      jump\t// in\n    tag_151:\n        /* \"#utility.yul\":3217:3222   */\n      dup2\n        /* \"#utility.yul\":3214:3249   */\n      eq\n        /* \"#utility.yul\":3204:3267   */\n      tag_152\n      jumpi\n        /* \"#utility.yul\":3263:3264   */\n      0x00\n        /* \"#utility.yul\":3260:3261   */\n      dup1\n        /* \"#utility.yul\":3253:3265   */\n      revert\n        /* \"#utility.yul\":3204:3267   */\n    tag_152:\n        /* \"#utility.yul\":3151:3273   */\n      pop\n      jump\t// out\n        /* \"#utility.yul\":3279:3418   */\n    tag_77:\n        /* \"#utility.yul\":3325:3330   */\n      0x00\n        /* \"#utility.yul\":3363:3369   */\n      dup2\n        /* \"#utility.yul\":3350:3370   */\n      calldataload\n        /* \"#utility.yul\":3341:3370   */\n      swap1\n      pop\n        /* \"#utility.yul\":3379:3412   */\n      tag_154\n        /* \"#utility.yul\":3406:3411   */\n      dup2\n        /* \"#utility.yul\":3379:3412   */\n      tag_76\n      jump\t// in\n    tag_154:\n        /* \"#utility.yul\":3279:3418   */\n      swap3\n      swap2\n      pop\n      pop\n      jump\t// out\n        /* \"#utility.yul\":3424:3550   */\n    tag_78:\n        /* \"#utility.yul\":3461:3468   */\n      0x00\n        /* \"#utility.yul\":3501:3543   */\n      0xffffffffffffffffffffffffffffffffffffffff\n        /* \"#utility.yul\":3494:3499   */\n      dup3\n        /* \"#utility.yul\":3490:3544   */\n      and\n        /* \"#utility.yul\":3479:3544   */\n      swap1\n      pop\n        /* \"#utility.yul\":3424:3550   */\n      swap2\n      swap1\n      pop\n      jump\t// out\n        /* \"#utility.yul\":3556:3652   */\n    tag_79:\n        /* \"#utility.yul\":3593:3600   */\n      0x00\n        /* \"#utility.yul\":3622:3646   */\n      tag_157\n        /* \"#utility.yul\":3640:3645   */\n      dup3\n        /* \"#utility.yul\":3622:3646   */\n      tag_78\n      jump\t// in\n    tag_157:\n        /* \"#utility.yul\":3611:3646   */\n      swap1\n      pop\n        /* \"#utility.yul\":3556:3652   */\n      swap2\n      swap1\n      pop\n      jump\t// out\n        /* \"#utility.yul\":3658:3780   */\n    tag_80:\n        /* \"#utility.yul\":3731:3755   */\n      tag_159\n        /* \"#utility.yul\":3749:3754   */\n      dup2\n        /* \"#utility.yul\":3731:3755   */\n      tag_79\n      jump\t// in\n    tag_159:\n        /* \"#utility.yul\":3724:3729   */\n      dup2\n        /* \"#utility.yul\":3721:3756   */\n      eq\n        /* \"#utility.yul\":3711:3774   */\n      tag_160\n      jumpi\n        /* \"#utility.yul\":3770:3771   */\n      0x00\n        /* \"#utility.yul\":3767:3768   */\n      dup1\n        /* \"#utility.yul\":3760:3772   */\n      revert\n        /* \"#utility.yul\":3711:3774   */\n    tag_160:\n        /* \"#utility.yul\":3658:3780   */\n      pop\n      jump\t// out\n        /* \"#utility.yul\":3786:3925   */\n    tag_81:\n        /* \"#utility.yul\":3832:3837   */\n      0x00\n        /* \"#utility.yul\":3870:3876   */\n      dup2\n        /* \"#utility.yul\":3857:3877   */\n      calldataload\n        /* \"#utility.yul\":3848:3877   */\n      swap1\n      pop\n        /* \"#utility.yul\":3886:3919   */\n      tag_162\n        /* \"#utility.yul\":3913:3918   */\n      dup2\n        /* \"#utility.yul\":3886:3919   */\n      tag_80\n      jump\t// in\n    tag_162:\n        /* \"#utility.yul\":3786:3925   */\n      swap3\n      swap2\n      pop\n      pop\n      jump\t// out\n        /* \"#utility.yul\":3931:4405   */\n    tag_15:\n        /* \"#utility.yul\":3999:4005   */\n      0x00\n        /* \"#utility.yul\":4007:4013   */\n      dup1\n        /* \"#utility.yul\":4056:4058   */\n      0x40\n        /* \"#utility.yul\":4044:4053   */\n      dup4\n        /* \"#utility.yul\":4035:4042   */\n      dup6\n        /* \"#utility.yul\":4031:4054   */\n      sub\n        /* \"#utility.yul\":4027:4059   */\n      slt\n        /* \"#utility.yul\":4024:4143   */\n      iszero\n      tag_164\n      jumpi\n        /* \"#utility.yul\":4062:4141   */\n      tag_165\n      tag_63\n      jump\t// in\n    tag_165:\n        /* \"#utility.yul\":4024:4143   */\n    tag_164:\n        /* \"#utility.yul\":4182:4183   */\n      0x00\n        /* \"#utility.yul\":4207:4260   */\n      tag_166\n        /* \"#utility.yul\":4252:4259   */\n      dup6\n        /* \"#utility.yul\":4243:4249   */\n      dup3\n        /* \"#utility.yul\":4232:4241   */\n      dup7\n        /* \"#utility.yul\":4228:4250   */\n      add\n        /* \"#utility.yul\":4207:4260   */\n      tag_77\n      jump\t// in\n    tag_166:\n        /* \"#utility.yul\":4197:4260   */\n      swap3\n      pop\n        /* \"#utility.yul\":4153:4270   */\n      pop\n        /* \"#utility.yul\":4309:4311   */\n      0x20\n        /* \"#utility.yul\":4335:4388   */\n      tag_167\n        /* \"#utility.yul\":4380:4387   */\n      dup6\n        /* \"#utility.yul\":4371:4377   */\n      dup3\n        /* \"#utility.yul\":4360:4369   */\n      dup7\n        /* \"#utility.yul\":4356:4378   */\n      add\n        /* \"#utility.yul\":4335:4388   */\n      tag_81\n      jump\t// in\n    tag_167:\n        /* \"#utility.yul\":4325:4388   */\n      swap2\n      pop\n        /* \"#utility.yul\":4280:4398   */\n      pop\n        /* \"#utility.yul\":3931:4405   */\n      swap3\n      pop\n      swap3\n      swap1\n      pop\n      jump\t// out\n        /* \"#utility.yul\":4411:4519   */\n    tag_82:\n        /* \"#utility.yul\":4488:4512   */\n      tag_169\n        /* \"#utility.yul\":4506:4511   */\n      dup2\n        /* \"#utility.yul\":4488:4512   */\n      tag_75\n      jump\t// in\n    tag_169:\n        /* \"#utility.yul\":4483:4486   */\n      dup3\n        /* \"#utility.yul\":4476:4513   */\n      mstore\n        /* \"#utility.yul\":4411:4519   */\n      pop\n      pop\n      jump\t// out\n        /* \"#utility.yul\":4525:4624   */\n    tag_83:\n        /* \"#utility.yul\":4577:4583   */\n      0x00\n        /* \"#utility.yul\":4611:4616   */\n      dup2\n        /* \"#utility.yul\":4605:4617   */\n      mload\n        /* \"#utility.yul\":4595:4617   */\n      swap1\n      pop\n        /* \"#utility.yul\":4525:4624   */\n      swap2\n      swap1\n      pop\n      jump\t// out\n        /* \"#utility.yul\":4630:4789   */\n    tag_84:\n        /* \"#utility.yul\":4704:4715   */\n      0x00\n        /* \"#utility.yul\":4738:4744   */\n      dup3\n        /* \"#utility.yul\":4733:4736   */\n      dup3\n        /* \"#utility.yul\":4726:4745   */\n      mstore\n        /* \"#utility.yul\":4778:4782   */\n      0x20\n        /* \"#utility.yul\":4773:4776   */\n      dup3\n        /* \"#utility.yul\":4769:4783   */\n      add\n        /* \"#utility.yul\":4754:4783   */\n      swap1\n      pop\n        /* \"#utility.yul\":4630:4789   */\n      swap3\n      swap2\n      pop\n      pop\n      jump\t// out\n        /* \"#utility.yul\":4795:5041   */\n    tag_85:\n        /* \"#utility.yul\":4876:4877   */\n      0x00\n        /* \"#utility.yul\":4886:4999   */\n    tag_173:\n        /* \"#utility.yul\":4900:4906   */\n      dup4\n        /* \"#utility.yul\":4897:4898   */\n      dup2\n        /* \"#utility.yul\":4894:4907   */\n      lt\n        /* \"#utility.yul\":4886:4999   */\n      iszero\n      tag_175\n      jumpi\n        /* \"#utility.yul\":4985:4986   */\n      dup1\n        /* \"#utility.yul\":4980:4983   */\n      dup3\n        /* \"#utility.yul\":4976:4987   */\n      add\n        /* \"#utility.yul\":4970:4988   */\n      mload\n        /* \"#utility.yul\":4966:4967   */\n      dup2\n        /* \"#utility.yul\":4961:4964   */\n      dup5\n        /* \"#utility.yul\":4957:4968   */\n      add\n        /* \"#utility.yul\":4950:4989   */\n      mstore\n        /* \"#utility.yul\":4922:4924   */\n      0x20\n        /* \"#utility.yul\":4919:4920   */\n      dup2\n        /* \"#utility.yul\":4915:4925   */\n      add\n        /* \"#utility.yul\":4910:4925   */\n      swap1\n      pop\n        /* \"#utility.yul\":4886:4999   */\n      jump(tag_173)\n    tag_175:\n        /* \"#utility.yul\":5033:5034   */\n      0x00\n        /* \"#utility.yul\":5024:5030   */\n      dup5\n        /* \"#utility.yul\":5019:5022   */\n      dup5\n        /* \"#utility.yul\":5015:5031   */\n      add\n        /* \"#utility.yul\":5008:5035   */\n      mstore\n        /* \"#utility.yul\":4857:5041   */\n      pop\n        /* \"#utility.yul\":4795:5041   */\n      pop\n      pop\n      pop\n      jump\t// out\n        /* \"#utility.yul\":5047:5404   */\n    tag_86:\n        /* \"#utility.yul\":5125:5128   */\n      0x00\n        /* \"#utility.yul\":5153:5192   */\n      tag_177\n        /* \"#utility.yul\":5186:5191   */\n      dup3\n        /* \"#utility.yul\":5153:5192   */\n      tag_83\n      jump\t// in\n    tag_177:\n        /* \"#utility.yul\":5208:5269   */\n      tag_178\n        /* \"#utility.yul\":5262:5268   */\n      dup2\n        /* \"#utility.yul\":5257:5260   */\n      dup6\n        /* \"#utility.yul\":5208:5269   */\n      tag_84\n      jump\t// in\n    tag_178:\n        /* \"#utility.yul\":5201:5269   */\n      swap4\n      pop\n        /* \"#utility.yul\":5278:5343   */\n      tag_179\n        /* \"#utility.yul\":5336:5342   */\n      dup2\n        /* \"#utility.yul\":5331:5334   */\n      dup6\n        /* \"#utility.yul\":5324:5328   */\n      0x20\n        /* \"#utility.yul\":5317:5322   */\n      dup7\n        /* \"#utility.yul\":5313:5329   */\n      add\n        /* \"#utility.yul\":5278:5343   */\n      tag_85\n      jump\t// in\n    tag_179:\n        /* \"#utility.yul\":5368:5397   */\n      tag_180\n        /* \"#utility.yul\":5390:5396   */\n      dup2\n        /* \"#utility.yul\":5368:5397   */\n      tag_67\n      jump\t// in\n    tag_180:\n        /* \"#utility.yul\":5363:5366   */\n      dup5\n        /* \"#utility.yul\":5359:5398   */\n      add\n        /* \"#utility.yul\":5352:5398   */\n      swap2\n      pop\n        /* \"#utility.yul\":5129:5404   */\n      pop\n        /* \"#utility.yul\":5047:5404   */\n      swap3\n      swap2\n      pop\n      pop\n      jump\t// out\n        /* \"#utility.yul\":5410:5500   */\n    tag_87:\n        /* \"#utility.yul\":5444:5451   */\n      0x00\n        /* \"#utility.yul\":5487:5492   */\n      dup2\n        /* \"#utility.yul\":5480:5493   */\n      iszero\n        /* \"#utility.yul\":5473:5494   */\n      iszero\n        /* \"#utility.yul\":5462:5494   */\n      swap1\n      pop\n        /* \"#utility.yul\":5410:5500   */\n      swap2\n      swap1\n      pop\n      jump\t// out\n        /* \"#utility.yul\":5506:5605   */\n    tag_88:\n        /* \"#utility.yul\":5577:5598   */\n      tag_183\n        /* \"#utility.yul\":5592:5597   */\n      dup2\n        /* \"#utility.yul\":5577:5598   */\n      tag_87\n      jump\t// in\n    tag_183:\n        /* \"#utility.yul\":5572:5575   */\n      dup3\n        /* \"#utility.yul\":5565:5599   */\n      mstore\n        /* \"#utility.yul\":5506:5605   */\n      pop\n      pop\n      jump\t// out\n        /* \"#utility.yul\":5677:6647   */\n    tag_89:\n        /* \"#utility.yul\":5800:5803   */\n      0x00\n        /* \"#utility.yul\":5836:5840   */\n      0x80\n        /* \"#utility.yul\":5831:5834   */\n      dup4\n        /* \"#utility.yul\":5827:5841   */\n      add\n        /* \"#utility.yul\":5928:5932   */\n      0x00\n        /* \"#utility.yul\":5921:5926   */\n      dup4\n        /* \"#utility.yul\":5917:5933   */\n      add\n        /* \"#utility.yul\":5911:5934   */\n      mload\n        /* \"#utility.yul\":5947:6010   */\n      tag_185\n        /* \"#utility.yul\":6004:6008   */\n      0x00\n        /* \"#utility.yul\":5999:6002   */\n      dup7\n        /* \"#utility.yul\":5995:6009   */\n      add\n        /* \"#utility.yul\":5981:5993   */\n      dup3\n        /* \"#utility.yul\":5947:6010   */\n      tag_82\n      jump\t// in\n    tag_185:\n        /* \"#utility.yul\":5851:6020   */\n      pop\n        /* \"#utility.yul\":6104:6108   */\n      0x20\n        /* \"#utility.yul\":6097:6102   */\n      dup4\n        /* \"#utility.yul\":6093:6109   */\n      add\n        /* \"#utility.yul\":6087:6110   */\n      mload\n        /* \"#utility.yul\":6123:6186   */\n      tag_186\n        /* \"#utility.yul\":6180:6184   */\n      0x20\n        /* \"#utility.yul\":6175:6178   */\n      dup7\n        /* \"#utility.yul\":6171:6185   */\n      add\n        /* \"#utility.yul\":6157:6169   */\n      dup3\n        /* \"#utility.yul\":6123:6186   */\n      tag_82\n      jump\t// in\n    tag_186:\n        /* \"#utility.yul\":6030:6196   */\n      pop\n        /* \"#utility.yul\":6286:6290   */\n      0x40\n        /* \"#utility.yul\":6279:6284   */\n      dup4\n        /* \"#utility.yul\":6275:6291   */\n      add\n        /* \"#utility.yul\":6269:6292   */\n      mload\n        /* \"#utility.yul\":6339:6342   */\n      dup5\n        /* \"#utility.yul\":6333:6337   */\n      dup3\n        /* \"#utility.yul\":6329:6343   */\n      sub\n        /* \"#utility.yul\":6322:6326   */\n      0x40\n        /* \"#utility.yul\":6317:6320   */\n      dup7\n        /* \"#utility.yul\":6313:6327   */\n      add\n        /* \"#utility.yul\":6306:6344   */\n      mstore\n        /* \"#utility.yul\":6365:6438   */\n      tag_187\n        /* \"#utility.yul\":6433:6437   */\n      dup3\n        /* \"#utility.yul\":6419:6431   */\n      dup3\n        /* \"#utility.yul\":6365:6438   */\n      tag_86\n      jump\t// in\n    tag_187:\n        /* \"#utility.yul\":6357:6438   */\n      swap2\n      pop\n        /* \"#utility.yul\":6206:6449   */\n      pop\n        /* \"#utility.yul\":6534:6538   */\n      0x60\n        /* \"#utility.yul\":6527:6532   */\n      dup4\n        /* \"#utility.yul\":6523:6539   */\n      add\n        /* \"#utility.yul\":6517:6540   */\n      mload\n        /* \"#utility.yul\":6553:6610   */\n      tag_188\n        /* \"#utility.yul\":6604:6608   */\n      0x60\n        /* \"#utility.yul\":6599:6602   */\n      dup7\n        /* \"#utility.yul\":6595:6609   */\n      add\n        /* \"#utility.yul\":6581:6593   */\n      dup3\n        /* \"#utility.yul\":6553:6610   */\n      tag_88\n      jump\t// in\n    tag_188:\n        /* \"#utility.yul\":6459:6620   */\n      pop\n        /* \"#utility.yul\":6637:6641   */\n      dup1\n        /* \"#utility.yul\":6630:6641   */\n      swap2\n      pop\n        /* \"#utility.yul\":5805:6647   */\n      pop\n        /* \"#utility.yul\":5677:6647   */\n      swap3\n      swap2\n      pop\n      pop\n      jump\t// out\n        /* \"#utility.yul\":6653:7034   */\n    tag_21:\n        /* \"#utility.yul\":6800:6804   */\n      0x00\n        /* \"#utility.yul\":6838:6840   */\n      0x20\n        /* \"#utility.yul\":6827:6836   */\n      dup3\n        /* \"#utility.yul\":6823:6841   */\n      add\n        /* \"#utility.yul\":6815:6841   */\n      swap1\n      pop\n        /* \"#utility.yul\":6887:6896   */\n      dup2\n        /* \"#utility.yul\":6881:6885   */\n      dup2\n        /* \"#utility.yul\":6877:6897   */\n      sub\n        /* \"#utility.yul\":6873:6874   */\n      0x00\n        /* \"#utility.yul\":6862:6871   */\n      dup4\n        /* \"#utility.yul\":6858:6875   */\n      add\n        /* \"#utility.yul\":6851:6898   */\n      mstore\n        /* \"#utility.yul\":6915:7027   */\n      tag_190\n        /* \"#utility.yul\":7022:7026   */\n      dup2\n        /* \"#utility.yul\":7013:7019   */\n      dup5\n        /* \"#utility.yul\":6915:7027   */\n      tag_89\n      jump\t// in\n    tag_190:\n        /* \"#utility.yul\":6907:7027   */\n      swap1\n      pop\n        /* \"#utility.yul\":6653:7034   */\n      swap3\n      swap2\n      pop\n      pop\n      jump\t// out\n        /* \"#utility.yul\":7040:7369   */\n    tag_25:\n        /* \"#utility.yul\":7099:7105   */\n      0x00\n        /* \"#utility.yul\":7148:7150   */\n      0x20\n        /* \"#utility.yul\":7136:7145   */\n      dup3\n        /* \"#utility.yul\":7127:7134   */\n      dup5\n        /* \"#utility.yul\":7123:7146   */\n      sub\n        /* \"#utility.yul\":7119:7151   */\n      slt\n        /* \"#utility.yul\":7116:7235   */\n      iszero\n      tag_192\n      jumpi\n        /* \"#utility.yul\":7154:7233   */\n      tag_193\n      tag_63\n      jump\t// in\n    tag_193:\n        /* \"#utility.yul\":7116:7235   */\n    tag_192:\n        /* \"#utility.yul\":7274:7275   */\n      0x00\n        /* \"#utility.yul\":7299:7352   */\n      tag_194\n        /* \"#utility.yul\":7344:7351   */\n      dup5\n        /* \"#utility.yul\":7335:7341   */\n      dup3\n        /* \"#utility.yul\":7324:7333   */\n      dup6\n        /* \"#utility.yul\":7320:7342   */\n      add\n        /* \"#utility.yul\":7299:7352   */\n      tag_81\n      jump\t// in\n    tag_194:\n        /* \"#utility.yul\":7289:7352   */\n      swap2\n      pop\n        /* \"#utility.yul\":7245:7362   */\n      pop\n        /* \"#utility.yul\":7040:7369   */\n      swap3\n      swap2\n      pop\n      pop\n      jump\t// out\n        /* \"#utility.yul\":7375:7493   */\n    tag_90:\n        /* \"#utility.yul\":7462:7486   */\n      tag_196\n        /* \"#utility.yul\":7480:7485   */\n      dup2\n        /* \"#utility.yul\":7462:7486   */\n      tag_75\n      jump\t// in\n    tag_196:\n        /* \"#utility.yul\":7457:7460   */\n      dup3\n        /* \"#utility.yul\":7450:7487   */\n      mstore\n        /* \"#utility.yul\":7375:7493   */\n      pop\n      pop\n      jump\t// out\n        /* \"#utility.yul\":7499:7831   */\n    tag_28:\n        /* \"#utility.yul\":7620:7624   */\n      0x00\n        /* \"#utility.yul\":7658:7660   */\n      0x40\n        /* \"#utility.yul\":7647:7656   */\n      dup3\n        /* \"#utility.yul\":7643:7661   */\n      add\n        /* \"#utility.yul\":7635:7661   */\n      swap1\n      pop\n        /* \"#utility.yul\":7671:7742   */\n      tag_198\n        /* \"#utility.yul\":7739:7740   */\n      0x00\n        /* \"#utility.yul\":7728:7737   */\n      dup4\n        /* \"#utility.yul\":7724:7741   */\n      add\n        /* \"#utility.yul\":7715:7721   */\n      dup6\n        /* \"#utility.yul\":7671:7742   */\n      tag_90\n      jump\t// in\n    tag_198:\n        /* \"#utility.yul\":7752:7824   */\n      tag_199\n        /* \"#utility.yul\":7820:7822   */\n      0x20\n        /* \"#utility.yul\":7809:7818   */\n      dup4\n        /* \"#utility.yul\":7805:7823   */\n      add\n        /* \"#utility.yul\":7796:7802   */\n      dup5\n        /* \"#utility.yul\":7752:7824   */\n      tag_90\n      jump\t// in\n    tag_199:\n        /* \"#utility.yul\":7499:7831   */\n      swap4\n      swap3\n      pop\n      pop\n      pop\n      jump\t// out\n        /* \"#utility.yul\":7837:7955   */\n    tag_91:\n        /* \"#utility.yul\":7924:7948   */\n      tag_201\n        /* \"#utility.yul\":7942:7947   */\n      dup2\n        /* \"#utility.yul\":7924:7948   */\n      tag_79\n      jump\t// in\n    tag_201:\n        /* \"#utility.yul\":7919:7922   */\n      dup3\n        /* \"#utility.yul\":7912:7949   */\n      mstore\n        /* \"#utility.yul\":7837:7955   */\n      pop\n      pop\n      jump\t// out\n        /* \"#utility.yul\":7961:8183   */\n    tag_34:\n        /* \"#utility.yul\":8054:8058   */\n      0x00\n        /* \"#utility.yul\":8092:8094   */\n      0x20\n        /* \"#utility.yul\":8081:8090   */\n      dup3\n        /* \"#utility.yul\":8077:8095   */\n      add\n        /* \"#utility.yul\":8069:8095   */\n      swap1\n      pop\n        /* \"#utility.yul\":8105:8176   */\n      tag_203\n        /* \"#utility.yul\":8173:8174   */\n      0x00\n        /* \"#utility.yul\":8162:8171   */\n      dup4\n        /* \"#utility.yul\":8158:8175   */\n      add\n        /* \"#utility.yul\":8149:8155   */\n      dup5\n        /* \"#utility.yul\":8105:8176   */\n      tag_91\n      jump\t// in\n    tag_203:\n        /* \"#utility.yul\":7961:8183   */\n      swap3\n      swap2\n      pop\n      pop\n      jump\t// out\n        /* \"#utility.yul\":8189:8358   */\n    tag_92:\n        /* \"#utility.yul\":8273:8284   */\n      0x00\n        /* \"#utility.yul\":8307:8313   */\n      dup3\n        /* \"#utility.yul\":8302:8305   */\n      dup3\n        /* \"#utility.yul\":8295:8314   */\n      mstore\n        /* \"#utility.yul\":8347:8351   */\n      0x20\n        /* \"#utility.yul\":8342:8345   */\n      dup3\n        /* \"#utility.yul\":8338:8352   */\n      add\n        /* \"#utility.yul\":8323:8352   */\n      swap1\n      pop\n        /* \"#utility.yul\":8189:8358   */\n      swap3\n      swap2\n      pop\n      pop\n      jump\t// out\n        /* \"#utility.yul\":8364:8741   */\n    tag_93:\n        /* \"#utility.yul\":8452:8455   */\n      0x00\n        /* \"#utility.yul\":8480:8519   */\n      tag_206\n        /* \"#utility.yul\":8513:8518   */\n      dup3\n        /* \"#utility.yul\":8480:8519   */\n      tag_83\n      jump\t// in\n    tag_206:\n        /* \"#utility.yul\":8535:8606   */\n      tag_207\n        /* \"#utility.yul\":8599:8605   */\n      dup2\n        /* \"#utility.yul\":8594:8597   */\n      dup6\n        /* \"#utility.yul\":8535:8606   */\n      tag_92\n      jump\t// in\n    tag_207:\n        /* \"#utility.yul\":8528:8606   */\n      swap4\n      pop\n        /* \"#utility.yul\":8615:8680   */\n      tag_208\n        /* \"#utility.yul\":8673:8679   */\n      dup2\n        /* \"#utility.yul\":8668:8671   */\n      dup6\n        /* \"#utility.yul\":8661:8665   */\n      0x20\n        /* \"#utility.yul\":8654:8659   */\n      dup7\n        /* \"#utility.yul\":8650:8666   */\n      add\n        /* \"#utility.yul\":8615:8680   */\n      tag_85\n      jump\t// in\n    tag_208:\n        /* \"#utility.yul\":8705:8734   */\n      tag_209\n        /* \"#utility.yul\":8727:8733   */\n      dup2\n        /* \"#utility.yul\":8705:8734   */\n      tag_67\n      jump\t// in\n    tag_209:\n        /* \"#utility.yul\":8700:8703   */\n      dup5\n        /* \"#utility.yul\":8696:8735   */\n      add\n        /* \"#utility.yul\":8689:8735   */\n      swap2\n      pop\n        /* \"#utility.yul\":8456:8741   */\n      pop\n        /* \"#utility.yul\":8364:8741   */\n      swap3\n      swap2\n      pop\n      pop\n      jump\t// out\n        /* \"#utility.yul\":8747:9060   */\n    tag_39:\n        /* \"#utility.yul\":8860:8864   */\n      0x00\n        /* \"#utility.yul\":8898:8900   */\n      0x20\n        /* \"#utility.yul\":8887:8896   */\n      dup3\n        /* \"#utility.yul\":8883:8901   */\n      add\n        /* \"#utility.yul\":8875:8901   */\n      swap1\n      pop\n        /* \"#utility.yul\":8947:8956   */\n      dup2\n        /* \"#utility.yul\":8941:8945   */\n      dup2\n        /* \"#utility.yul\":8937:8957   */\n      sub\n        /* \"#utility.yul\":8933:8934   */\n      0x00\n        /* \"#utility.yul\":8922:8931   */\n      dup4\n        /* \"#utility.yul\":8918:8935   */\n      add\n        /* \"#utility.yul\":8911:8958   */\n      mstore\n        /* \"#utility.yul\":8975:9053   */\n      tag_211\n        /* \"#utility.yul\":9048:9052   */\n      dup2\n        /* \"#utility.yul\":9039:9045   */\n      dup5\n        /* \"#utility.yul\":8975:9053   */\n      tag_93\n      jump\t// in\n    tag_211:\n        /* \"#utility.yul\":8967:9053   */\n      swap1\n      pop\n        /* \"#utility.yul\":8747:9060   */\n      swap3\n      swap2\n      pop\n      pop\n      jump\t// out\n        /* \"#utility.yul\":9066:9296   */\n    tag_94:\n        /* \"#utility.yul\":9206:9240   */\n      0x596f75206861766520616c656172647920726567697374657265642074686520\n        /* \"#utility.yul\":9202:9203   */\n      0x00\n        /* \"#utility.yul\":9194:9200   */\n      dup3\n        /* \"#utility.yul\":9190:9204   */\n      add\n        /* \"#utility.yul\":9183:9241   */\n      mstore\n        /* \"#utility.yul\":9275:9288   */\n      0x62656e6566696369617279000000000000000000000000000000000000000000\n        /* \"#utility.yul\":9270:9272   */\n      0x20\n        /* \"#utility.yul\":9262:9268   */\n      dup3\n        /* \"#utility.yul\":9258:9273   */\n      add\n        /* \"#utility.yul\":9251:9289   */\n      mstore\n        /* \"#utility.yul\":9066:9296   */\n      pop\n      jump\t// out\n        /* \"#utility.yul\":9302:9668   */\n    tag_95:\n        /* \"#utility.yul\":9444:9447   */\n      0x00\n        /* \"#utility.yul\":9465:9532   */\n      tag_214\n        /* \"#utility.yul\":9529:9531   */\n      0x2b\n        /* \"#utility.yul\":9524:9527   */\n      dup4\n        /* \"#utility.yul\":9465:9532   */\n      tag_92\n      jump\t// in\n    tag_214:\n        /* \"#utility.yul\":9458:9532   */\n      swap2\n      pop\n        /* \"#utility.yul\":9541:9634   */\n      tag_215\n        /* \"#utility.yul\":9630:9633   */\n      dup3\n        /* \"#utility.yul\":9541:9634   */\n      tag_94\n      jump\t// in\n    tag_215:\n        /* \"#utility.yul\":9659:9661   */\n      0x40\n        /* \"#utility.yul\":9654:9657   */\n      dup3\n        /* \"#utility.yul\":9650:9662   */\n      add\n        /* \"#utility.yul\":9643:9662   */\n      swap1\n      pop\n        /* \"#utility.yul\":9302:9668   */\n      swap2\n      swap1\n      pop\n      jump\t// out\n        /* \"#utility.yul\":9674:10093   */\n    tag_43:\n        /* \"#utility.yul\":9840:9844   */\n      0x00\n        /* \"#utility.yul\":9878:9880   */\n      0x20\n        /* \"#utility.yul\":9867:9876   */\n      dup3\n        /* \"#utility.yul\":9863:9881   */\n      add\n        /* \"#utility.yul\":9855:9881   */\n      swap1\n      pop\n        /* \"#utility.yul\":9927:9936   */\n      dup2\n        /* \"#utility.yul\":9921:9925   */\n      dup2\n        /* \"#utility.yul\":9917:9937   */\n      sub\n        /* \"#utility.yul\":9913:9914   */\n      0x00\n        /* \"#utility.yul\":9902:9911   */\n      dup4\n        /* \"#utility.yul\":9898:9915   */\n      add\n        /* \"#utility.yul\":9891:9938   */\n      mstore\n        /* \"#utility.yul\":9955:10086   */\n      tag_217\n        /* \"#utility.yul\":10081:10085   */\n      dup2\n        /* \"#utility.yul\":9955:10086   */\n      tag_95\n      jump\t// in\n    tag_217:\n        /* \"#utility.yul\":9947:10086   */\n      swap1\n      pop\n        /* \"#utility.yul\":9674:10093   */\n      swap2\n      swap1\n      pop\n      jump\t// out\n        /* \"#utility.yul\":10099:10279   */\n    tag_96:\n        /* \"#utility.yul\":10147:10224   */\n      0x4e487b7100000000000000000000000000000000000000000000000000000000\n        /* \"#utility.yul\":10144:10145   */\n      0x00\n        /* \"#utility.yul\":10137:10225   */\n      mstore\n        /* \"#utility.yul\":10244:10248   */\n      0x22\n        /* \"#utility.yul\":10241:10242   */\n      0x04\n        /* \"#utility.yul\":10234:10249   */\n      mstore\n        /* \"#utility.yul\":10268:10272   */\n      0x24\n        /* \"#utility.yul\":10265:10266   */\n      0x00\n        /* \"#utility.yul\":10258:10273   */\n      revert\n        /* \"#utility.yul\":10285:10605   */\n    tag_56:\n        /* \"#utility.yul\":10329:10335   */\n      0x00\n        /* \"#utility.yul\":10366:10367   */\n      0x02\n        /* \"#utility.yul\":10360:10364   */\n      dup3\n        /* \"#utility.yul\":10356:10368   */\n      div\n        /* \"#utility.yul\":10346:10368   */\n      swap1\n      pop\n        /* \"#utility.yul\":10413:10414   */\n      0x01\n        /* \"#utility.yul\":10407:10411   */\n      dup3\n        /* \"#utility.yul\":10403:10415   */\n      and\n        /* \"#utility.yul\":10434:10452   */\n      dup1\n        /* \"#utility.yul\":10424:10505   */\n      tag_220\n      jumpi\n        /* \"#utility.yul\":10490:10494   */\n      0x7f\n        /* \"#utility.yul\":10482:10488   */\n      dup3\n        /* \"#utility.yul\":10478:10495   */\n      and\n        /* \"#utility.yul\":10468:10495   */\n      swap2\n      pop\n        /* \"#utility.yul\":10424:10505   */\n    tag_220:\n        /* \"#utility.yul\":10552:10554   */\n      0x20\n        /* \"#utility.yul\":10544:10550   */\n      dup3\n        /* \"#utility.yul\":10541:10555   */\n      lt\n        /* \"#utility.yul\":10521:10539   */\n      dup2\n        /* \"#utility.yul\":10518:10556   */\n      sub\n        /* \"#utility.yul\":10515:10599   */\n      tag_221\n      jumpi\n        /* \"#utility.yul\":10571:10589   */\n      tag_222\n      tag_96\n      jump\t// in\n    tag_222:\n        /* \"#utility.yul\":10515:10599   */\n    tag_221:\n        /* \"#utility.yul\":10336:10605   */\n      pop\n        /* \"#utility.yul\":10285:10605   */\n      swap2\n      swap1\n      pop\n      jump\t// out\n        /* \"#utility.yul\":10611:10752   */\n    tag_97:\n        /* \"#utility.yul\":10660:10664   */\n      0x00\n        /* \"#utility.yul\":10683:10686   */\n      dup2\n        /* \"#utility.yul\":10675:10686   */\n      swap1\n      pop\n        /* \"#utility.yul\":10706:10709   */\n      dup2\n        /* \"#utility.yul\":10703:10704   */\n      0x00\n        /* \"#utility.yul\":10696:10710   */\n      mstore\n        /* \"#utility.yul\":10740:10744   */\n      0x20\n        /* \"#utility.yul\":10737:10738   */\n      0x00\n        /* \"#utility.yul\":10727:10745   */\n      keccak256\n        /* \"#utility.yul\":10719:10745   */\n      swap1\n      pop\n        /* \"#utility.yul\":10611:10752   */\n      swap2\n      swap1\n      pop\n      jump\t// out\n        /* \"#utility.yul\":10758:10851   */\n    tag_98:\n        /* \"#utility.yul\":10795:10801   */\n      0x00\n        /* \"#utility.yul\":10842:10844   */\n      0x20\n        /* \"#utility.yul\":10837:10839   */\n      0x1f\n        /* \"#utility.yul\":10830:10835   */\n      dup4\n        /* \"#utility.yul\":10826:10840   */\n      add\n        /* \"#utility.yul\":10822:10845   */\n      div\n        /* \"#utility.yul\":10812:10845   */\n      swap1\n      pop\n        /* \"#utility.yul\":10758:10851   */\n      swap2\n      swap1\n      pop\n      jump\t// out\n        /* \"#utility.yul\":10857:10964   */\n    tag_99:\n        /* \"#utility.yul\":10901:10909   */\n      0x00\n        /* \"#utility.yul\":10951:10956   */\n      dup3\n        /* \"#utility.yul\":10945:10949   */\n      dup3\n        /* \"#utility.yul\":10941:10957   */\n      shl\n        /* \"#utility.yul\":10920:10957   */\n      swap1\n      pop\n        /* \"#utility.yul\":10857:10964   */\n      swap3\n      swap2\n      pop\n      pop\n      jump\t// out\n        /* \"#utility.yul\":10970:11363   */\n    tag_100:\n        /* \"#utility.yul\":11039:11045   */\n      0x00\n        /* \"#utility.yul\":11089:11090   */\n      0x08\n        /* \"#utility.yul\":11077:11087   */\n      dup4\n        /* \"#utility.yul\":11073:11091   */\n      mul\n        /* \"#utility.yul\":11112:11209   */\n      tag_227\n        /* \"#utility.yul\":11142:11208   */\n      0xffffffffffffffffffffffffffffffffffffffffffffffffffffffffffffffff\n        /* \"#utility.yul\":11131:11140   */\n      dup3\n        /* \"#utility.yul\":11112:11209   */\n      tag_99\n      jump\t// in\n    tag_227:\n        /* \"#utility.yul\":11230:11269   */\n      tag_228\n        /* \"#utility.yul\":11260:11268   */\n      dup7\n        /* \"#utility.yul\":11249:11258   */\n      dup4\n        /* \"#utility.yul\":11230:11269   */\n      tag_99\n      jump\t// in\n    tag_228:\n        /* \"#utility.yul\":11218:11269   */\n      swap6\n      pop\n        /* \"#utility.yul\":11302:11306   */\n      dup1\n        /* \"#utility.yul\":11298:11307   */\n      not\n        /* \"#utility.yul\":11291:11296   */\n      dup5\n        /* \"#utility.yul\":11287:11308   */\n      and\n        /* \"#utility.yul\":11278:11308   */\n      swap4\n      pop\n        /* \"#utility.yul\":11351:11355   */\n      dup1\n        /* \"#utility.yul\":11341:11349   */\n      dup7\n        /* \"#utility.yul\":11337:11356   */\n      and\n        /* \"#utility.yul\":11330:11335   */\n      dup5\n        /* \"#utility.yul\":11327:11357   */\n      or\n        /* \"#utility.yul\":11317:11357   */\n      swap3\n      pop\n        /* \"#utility.yul\":11046:11363   */\n      pop\n      pop\n        /* \"#utility.yul\":10970:11363   */\n      swap4\n      swap3\n      pop\n      pop\n      pop\n      jump\t// out\n        /* \"#utility.yul\":11369:11429   */\n    tag_101:\n        /* \"#utility.yul\":11397:11400   */\n      0x00\n        /* \"#utility.yul\":11418:11423   */\n      dup2\n        /* \"#utility.yul\":11411:11423   */\n      swap1\n      pop\n        /* \"#utility.yul\":11369:11429   */\n      swap2\n      swap1\n      pop\n      jump\t// out\n        /* \"#utility.yul\":11435:11577   */\n    tag_102:\n        /* \"#utility.yul\":11485:11494   */\n      0x00\n        /* \"#utility.yul\":11518:11571   */\n      tag_231\n        /* \"#utility.yul\":11536:11570   */\n      tag_232\n        /* \"#utility.yul\":11545:11569   */\n      tag_233\n        /* \"#utility.yul\":11563:11568   */\n      dup5\n        /* \"#utility.yul\":11545:11569   */\n      tag_75\n      jump\t// in\n    tag_233:\n        /* \"#utility.yul\":11536:11570   */\n      tag_101\n      jump\t// in\n    tag_232:\n        /* \"#utility.yul\":11518:11571   */\n      tag_75\n      jump\t// in\n    tag_231:\n        /* \"#utility.yul\":11505:11571   */\n      swap1\n      pop\n        /* \"#utility.yul\":11435:11577   */\n      swap2\n      swap1\n      pop\n      jump\t// out\n        /* \"#utility.yul\":11583:11658   */\n    tag_103:\n        /* \"#utility.yul\":11626:11629   */\n      0x00\n        /* \"#utility.yul\":11647:11652   */\n      dup2\n        /* \"#utility.yul\":11640:11652   */\n      swap1\n      pop\n        /* \"#utility.yul\":11583:11658   */\n      swap2\n      swap1\n      pop\n      jump\t// out\n        /* \"#utility.yul\":11664:11933   */\n    tag_104:\n        /* \"#utility.yul\":11774:11813   */\n      tag_236\n        /* \"#utility.yul\":11805:11812   */\n      dup4\n        /* \"#utility.yul\":11774:11813   */\n      tag_102\n      jump\t// in\n    tag_236:\n        /* \"#utility.yul\":11835:11926   */\n      tag_237\n        /* \"#utility.yul\":11884:11925   */\n      tag_238\n        /* \"#utility.yul\":11908:11924   */\n      dup3\n        /* \"#utility.yul\":11884:11925   */\n      tag_103\n      jump\t// in\n    tag_238:\n        /* \"#utility.yul\":11876:11882   */\n      dup5\n        /* \"#utility.yul\":11869:11873   */\n      dup5\n        /* \"#utility.yul\":11863:11874   */\n      sload\n        /* \"#utility.yul\":11835:11926   */\n      tag_100\n      jump\t// in\n    tag_237:\n        /* \"#utility.yul\":11829:11833   */\n      dup3\n        /* \"#utility.yul\":11822:11927   */\n      sstore\n        /* \"#utility.yul\":11740:11933   */\n      pop\n        /* \"#utility.yul\":11664:11933   */\n      pop\n      pop\n      pop\n      jump\t// out\n        /* \"#utility.yul\":11939:12012   */\n    tag_105:\n        /* \"#utility.yul\":11984:11987   */\n      0x00\n        /* \"#utility.yul\":11939:12012   */\n      swap1\n      jump\t// out\n        /* \"#utility.yul\":12018:12207   */\n    tag_106:\n        /* \"#utility.yul\":12095:12127   */\n      tag_241\n      tag_105\n      jump\t// in\n    tag_241:\n        /* \"#utility.yul\":12136:12201   */\n      tag_242\n        /* \"#utility.yul\":12194:12200   */\n      dup2\n        /* \"#utility.yul\":12186:12192   */\n      dup5\n        /* \"#utility.yul\":12180:12184   */\n      dup5\n        /* \"#utility.yul\":12136:12201   */\n      tag_104\n      jump\t// in\n    tag_242:\n        /* \"#utility.yul\":12071:12207   */\n      pop\n        /* \"#utility.yul\":12018:12207   */\n      pop\n      pop\n      jump\t// out\n        /* \"#utility.yul\":12213:12399   */\n    tag_107:\n        /* \"#utility.yul\":12273:12393   */\n    tag_244:\n        /* \"#utility.yul\":12290:12293   */\n      dup2\n        /* \"#utility.yul\":12283:12288   */\n      dup2\n        /* \"#utility.yul\":12280:12294   */\n      lt\n        /* \"#utility.yul\":12273:12393   */\n      iszero\n      tag_246\n      jumpi\n        /* \"#utility.yul\":12344:12383   */\n      tag_247\n        /* \"#utility.yul\":12381:12382   */\n      0x00\n        /* \"#utility.yul\":12374:12379   */\n      dup3\n        /* \"#utility.yul\":12344:12383   */\n      tag_106\n      jump\t// in\n    tag_247:\n        /* \"#utility.yul\":12317:12318   */\n      0x01\n        /* \"#utility.yul\":12310:12315   */\n      dup2\n        /* \"#utility.yul\":12306:12319   */\n      add\n        /* \"#utility.yul\":12297:12319   */\n      swap1\n      pop\n        /* \"#utility.yul\":12273:12393   */\n      jump(tag_244)\n    tag_246:\n        /* \"#utility.yul\":12213:12399   */\n      pop\n      pop\n      jump\t// out\n        /* \"#utility.yul\":12405:12948   */\n    tag_108:\n        /* \"#utility.yul\":12506:12508   */\n      0x1f\n        /* \"#utility.yul\":12501:12504   */\n      dup3\n        /* \"#utility.yul\":12498:12509   */\n      gt\n        /* \"#utility.yul\":12495:12941   */\n      iszero\n      tag_249\n      jumpi\n        /* \"#utility.yul\":12540:12578   */\n      tag_250\n        /* \"#utility.yul\":12572:12577   */\n      dup2\n        /* \"#utility.yul\":12540:12578   */\n      tag_97\n      jump\t// in\n    tag_250:\n        /* \"#utility.yul\":12624:12653   */\n      tag_251\n        /* \"#utility.yul\":12642:12652   */\n      dup5\n        /* \"#utility.yul\":12624:12653   */\n      tag_98\n      jump\t// in\n    tag_251:\n        /* \"#utility.yul\":12614:12622   */\n      dup2\n        /* \"#utility.yul\":12610:12654   */\n      add\n        /* \"#utility.yul\":12807:12809   */\n      0x20\n        /* \"#utility.yul\":12795:12805   */\n      dup6\n        /* \"#utility.yul\":12792:12810   */\n      lt\n        /* \"#utility.yul\":12789:12838   */\n      iszero\n      tag_252\n      jumpi\n        /* \"#utility.yul\":12828:12836   */\n      dup2\n        /* \"#utility.yul\":12813:12836   */\n      swap1\n      pop\n        /* \"#utility.yul\":12789:12838   */\n    tag_252:\n        /* \"#utility.yul\":12851:12931   */\n      tag_253\n        /* \"#utility.yul\":12907:12929   */\n      tag_254\n        /* \"#utility.yul\":12925:12928   */\n      dup6\n        /* \"#utility.yul\":12907:12929   */\n      tag_98\n      jump\t// in\n    tag_254:\n        /* \"#utility.yul\":12897:12905   */\n      dup4\n        /* \"#utility.yul\":12893:12930   */\n      add\n        /* \"#utility.yul\":12880:12891   */\n      dup3\n        /* \"#utility.yul\":12851:12931   */\n      tag_107\n      jump\t// in\n    tag_253:\n        /* \"#utility.yul\":12510:12941   */\n      pop\n      pop\n        /* \"#utility.yul\":12495:12941   */\n    tag_249:\n        /* \"#utility.yul\":12405:12948   */\n      pop\n      pop\n      pop\n      jump\t// out\n        /* \"#utility.yul\":12954:13071   */\n    tag_109:\n        /* \"#utility.yul\":13008:13016   */\n      0x00\n        /* \"#utility.yul\":13058:13063   */\n      dup3\n        /* \"#utility.yul\":13052:13056   */\n      dup3\n        /* \"#utility.yul\":13048:13064   */\n      shr\n        /* \"#utility.yul\":13027:13064   */\n      swap1\n      pop\n        /* \"#utility.yul\":12954:13071   */\n      swap3\n      swap2\n      pop\n      pop\n      jump\t// out\n        /* \"#utility.yul\":13077:13246   */\n    tag_110:\n        /* \"#utility.yul\":13121:13127   */\n      0x00\n        /* \"#utility.yul\":13154:13205   */\n      tag_257\n        /* \"#utility.yul\":13202:13203   */\n      0x00\n        /* \"#utility.yul\":13198:13204   */\n      not\n        /* \"#utility.yul\":13190:13195   */\n      dup5\n        /* \"#utility.yul\":13187:13188   */\n      0x08\n        /* \"#utility.yul\":13183:13196   */\n      mul\n        /* \"#utility.yul\":13154:13205   */\n      tag_109\n      jump\t// in\n    tag_257:\n        /* \"#utility.yul\":13150:13206   */\n      not\n        /* \"#utility.yul\":13235:13239   */\n      dup1\n        /* \"#utility.yul\":13229:13233   */\n      dup4\n        /* \"#utility.yul\":13225:13240   */\n      and\n        /* \"#utility.yul\":13215:13240   */\n      swap2\n      pop\n        /* \"#utility.yul\":13128:13246   */\n      pop\n        /* \"#utility.yul\":13077:13246   */\n      swap3\n      swap2\n      pop\n      pop\n      jump\t// out\n        /* \"#utility.yul\":13251:13546   */\n    tag_111:\n        /* \"#utility.yul\":13327:13331   */\n      0x00\n        /* \"#utility.yul\":13473:13502   */\n      tag_259\n        /* \"#utility.yul\":13498:13501   */\n      dup4\n        /* \"#utility.yul\":13492:13496   */\n      dup4\n        /* \"#utility.yul\":13473:13502   */\n      tag_110\n      jump\t// in\n    tag_259:\n        /* \"#utility.yul\":13465:13502   */\n      swap2\n      pop\n        /* \"#utility.yul\":13535:13538   */\n      dup3\n        /* \"#utility.yul\":13532:13533   */\n      0x02\n        /* \"#utility.yul\":13528:13539   */\n      mul\n        /* \"#utility.yul\":13522:13526   */\n      dup3\n        /* \"#utility.yul\":13519:13540   */\n      or\n        /* \"#utility.yul\":13511:13540   */\n      swap1\n      pop\n        /* \"#utility.yul\":13251:13546   */\n      swap3\n      swap2\n      pop\n      pop\n      jump\t// out\n        /* \"#utility.yul\":13551:14946   */\n    tag_45:\n        /* \"#utility.yul\":13668:13705   */\n      tag_261\n        /* \"#utility.yul\":13701:13704   */\n      dup3\n        /* \"#utility.yul\":13668:13705   */\n      tag_83\n      jump\t// in\n    tag_261:\n        /* \"#utility.yul\":13770:13788   */\n      0xffffffffffffffff\n        /* \"#utility.yul\":13762:13768   */\n      dup2\n        /* \"#utility.yul\":13759:13789   */\n      gt\n        /* \"#utility.yul\":13756:13812   */\n      iszero\n      tag_262\n      jumpi\n        /* \"#utility.yul\":13792:13810   */\n      tag_263\n      tag_68\n      jump\t// in\n    tag_263:\n        /* \"#utility.yul\":13756:13812   */\n    tag_262:\n        /* \"#utility.yul\":13836:13874   */\n      tag_264\n        /* \"#utility.yul\":13868:13872   */\n      dup3\n        /* \"#utility.yul\":13862:13873   */\n      sload\n        /* \"#utility.yul\":13836:13874   */\n      tag_56\n      jump\t// in\n    tag_264:\n        /* \"#utility.yul\":13921:13988   */\n      tag_265\n        /* \"#utility.yul\":13981:13987   */\n      dup3\n        /* \"#utility.yul\":13973:13979   */\n      dup3\n        /* \"#utility.yul\":13967:13971   */\n      dup6\n        /* \"#utility.yul\":13921:13988   */\n      tag_108\n      jump\t// in\n    tag_265:\n        /* \"#utility.yul\":14015:14016   */\n      0x00\n        /* \"#utility.yul\":14039:14043   */\n      0x20\n        /* \"#utility.yul\":14026:14043   */\n      swap1\n      pop\n        /* \"#utility.yul\":14071:14073   */\n      0x1f\n        /* \"#utility.yul\":14063:14069   */\n      dup4\n        /* \"#utility.yul\":14060:14074   */\n      gt\n        /* \"#utility.yul\":14088:14089   */\n      0x01\n        /* \"#utility.yul\":14083:14701   */\n      dup2\n      eq\n      tag_267\n      jumpi\n        /* \"#utility.yul\":14745:14746   */\n      0x00\n        /* \"#utility.yul\":14762:14768   */\n      dup5\n        /* \"#utility.yul\":14759:14836   */\n      iszero\n      tag_268\n      jumpi\n        /* \"#utility.yul\":14811:14820   */\n      dup3\n        /* \"#utility.yul\":14806:14809   */\n      dup8\n        /* \"#utility.yul\":14802:14821   */\n      add\n        /* \"#utility.yul\":14796:14822   */\n      mload\n        /* \"#utility.yul\":14787:14822   */\n      swap1\n      pop\n        /* \"#utility.yul\":14759:14836   */\n    tag_268:\n        /* \"#utility.yul\":14862:14929   */\n      tag_269\n        /* \"#utility.yul\":14922:14928   */\n      dup6\n        /* \"#utility.yul\":14915:14920   */\n      dup3\n        /* \"#utility.yul\":14862:14929   */\n      tag_111\n      jump\t// in\n    tag_269:\n        /* \"#utility.yul\":14856:14860   */\n      dup7\n        /* \"#utility.yul\":14849:14930   */\n      sstore\n        /* \"#utility.yul\":14718:14940   */\n      pop\n        /* \"#utility.yul\":14053:14940   */\n      jump(tag_266)\n        /* \"#utility.yul\":14083:14701   */\n    tag_267:\n        /* \"#utility.yul\":14135:14139   */\n      0x1f\n        /* \"#utility.yul\":14131:14140   */\n      not\n        /* \"#utility.yul\":14123:14129   */\n      dup5\n        /* \"#utility.yul\":14119:14141   */\n      and\n        /* \"#utility.yul\":14169:14206   */\n      tag_270\n        /* \"#utility.yul\":14201:14205   */\n      dup7\n        /* \"#utility.yul\":14169:14206   */\n      tag_97\n      jump\t// in\n    tag_270:\n        /* \"#utility.yul\":14228:14229   */\n      0x00\n        /* \"#utility.yul\":14242:14450   */\n    tag_271:\n        /* \"#utility.yul\":14256:14263   */\n      dup3\n        /* \"#utility.yul\":14253:14254   */\n      dup2\n        /* \"#utility.yul\":14250:14264   */\n      lt\n        /* \"#utility.yul\":14242:14450   */\n      iszero\n      tag_273\n      jumpi\n        /* \"#utility.yul\":14335:14344   */\n      dup5\n        /* \"#utility.yul\":14330:14333   */\n      dup10\n        /* \"#utility.yul\":14326:14345   */\n      add\n        /* \"#utility.yul\":14320:14346   */\n      mload\n        /* \"#utility.yul\":14312:14318   */\n      dup3\n        /* \"#utility.yul\":14305:14347   */\n      sstore\n        /* \"#utility.yul\":14386:14387   */\n      0x01\n        /* \"#utility.yul\":14378:14384   */\n      dup3\n        /* \"#utility.yul\":14374:14388   */\n      add\n        /* \"#utility.yul\":14364:14388   */\n      swap2\n      pop\n        /* \"#utility.yul\":14433:14435   */\n      0x20\n        /* \"#utility.yul\":14422:14431   */\n      dup6\n        /* \"#utility.yul\":14418:14436   */\n      add\n        /* \"#utility.yul\":14405:14436   */\n      swap5\n      pop\n        /* \"#utility.yul\":14279:14283   */\n      0x20\n        /* \"#utility.yul\":14276:14277   */\n      dup2\n        /* \"#utility.yul\":14272:14284   */\n      add\n        /* \"#utility.yul\":14267:14284   */\n      swap1\n      pop\n        /* \"#utility.yul\":14242:14450   */\n      jump(tag_271)\n    tag_273:\n        /* \"#utility.yul\":14478:14484   */\n      dup7\n        /* \"#utility.yul\":14469:14476   */\n      dup4\n        /* \"#utility.yul\":14466:14485   */\n      lt\n        /* \"#utility.yul\":14463:14642   */\n      iszero\n      tag_274\n      jumpi\n        /* \"#utility.yul\":14536:14545   */\n      dup5\n        /* \"#utility.yul\":14531:14534   */\n      dup10\n        /* \"#utility.yul\":14527:14546   */\n      add\n        /* \"#utility.yul\":14521:14547   */\n      mload\n        /* \"#utility.yul\":14579:14627   */\n      tag_275\n        /* \"#utility.yul\":14621:14625   */\n      0x1f\n        /* \"#utility.yul\":14613:14619   */\n      dup10\n        /* \"#utility.yul\":14609:14626   */\n      and\n        /* \"#utility.yul\":14598:14607   */\n      dup3\n        /* \"#utility.yul\":14579:14627   */\n      tag_110\n      jump\t// in\n    tag_275:\n        /* \"#utility.yul\":14571:14577   */\n      dup4\n        /* \"#utility.yul\":14564:14628   */\n      sstore\n        /* \"#utility.yul\":14486:14642   */\n      pop\n        /* \"#utility.yul\":14463:14642   */\n    tag_274:\n        /* \"#utility.yul\":14688:14689   */\n      0x01\n        /* \"#utility.yul\":14684:14685   */\n      0x02\n        /* \"#utility.yul\":14676:14682   */\n      dup9\n        /* \"#utility.yul\":14672:14686   */\n      mul\n        /* \"#utility.yul\":14668:14690   */\n      add\n        /* \"#utility.yul\":14662:14666   */\n      dup9\n        /* \"#utility.yul\":14655:14691   */\n      sstore\n        /* \"#utility.yul\":14090:14701   */\n      pop\n      pop\n      pop\n        /* \"#utility.yul\":14053:14940   */\n    tag_266:\n      pop\n        /* \"#utility.yul\":13643:14946   */\n      pop\n      pop\n      pop\n        /* \"#utility.yul\":13551:14946   */\n      pop\n      pop\n      jump\t// out\n        /* \"#utility.yul\":14952:15132   */\n    tag_112:\n        /* \"#utility.yul\":15000:15077   */\n      0x4e487b7100000000000000000000000000000000000000000000000000000000\n        /* \"#utility.yul\":14997:14998   */\n      0x00\n        /* \"#utility.yul\":14990:15078   */\n      mstore\n        /* \"#utility.yul\":15097:15101   */\n      0x11\n        /* \"#utility.yul\":15094:15095   */\n      0x04\n        /* \"#utility.yul\":15087:15102   */\n      mstore\n        /* \"#utility.yul\":15121:15125   */\n      0x24\n        /* \"#utility.yul\":15118:15119   */\n      0x00\n        /* \"#utility.yul\":15111:15126   */\n      revert\n        /* \"#utility.yul\":15138:15329   */\n    tag_49:\n        /* \"#utility.yul\":15178:15181   */\n      0x00\n        /* \"#utility.yul\":15197:15217   */\n      tag_278\n        /* \"#utility.yul\":15215:15216   */\n      dup3\n        /* \"#utility.yul\":15197:15217   */\n      tag_75\n      jump\t// in\n    tag_278:\n        /* \"#utility.yul\":15192:15217   */\n      swap2\n      pop\n        /* \"#utility.yul\":15231:15251   */\n      tag_279\n        /* \"#utility.yul\":15249:15250   */\n      dup4\n        /* \"#utility.yul\":15231:15251   */\n      tag_75\n      jump\t// in\n    tag_279:\n        /* \"#utility.yul\":15226:15251   */\n      swap3\n      pop\n        /* \"#utility.yul\":15274:15275   */\n      dup3\n        /* \"#utility.yul\":15271:15272   */\n      dup3\n        /* \"#utility.yul\":15267:15276   */\n      add\n        /* \"#utility.yul\":15260:15276   */\n      swap1\n      pop\n        /* \"#utility.yul\":15295:15298   */\n      dup1\n        /* \"#utility.yul\":15292:15293   */\n      dup3\n        /* \"#utility.yul\":15289:15299   */\n      gt\n        /* \"#utility.yul\":15286:15322   */\n      iszero\n      tag_280\n      jumpi\n        /* \"#utility.yul\":15302:15320   */\n      tag_281\n      tag_112\n      jump\t// in\n    tag_281:\n        /* \"#utility.yul\":15286:15322   */\n    tag_280:\n        /* \"#utility.yul\":15138:15329   */\n      swap3\n      swap2\n      pop\n      pop\n      jump\t// out\n\n    auxdata: 0xa26469706673582212204f2672bc9014ad5e355f8d273a5627f03567e59ff2d2a6681f92d3679764efc764736f6c63430008160033\n}\n",
				"bytecode": {
					"linkReferences": {},
					"object": "608060405234801561000f575f80fd5b50610ee58061001d5f395ff3fe608060405260043610610054575f3560e01c806349ef1467146100585780638004f9fa14610080578063828cedb71461009c578063cc51d892146100c6578063f457ee5a14610103578063f8a8fd6d1461013f575b5f80fd5b348015610063575f80fd5b5061007e600480360381019061007991906107d2565b610169565b005b61009a600480360381019061009591906108a6565b6102a8565b005b3480156100a7575f80fd5b506100b06104c0565b6040516100bd91906109e7565b60405180910390f35b3480156100d1575f80fd5b506100ec60048036038101906100e79190610a07565b6105d1565b6040516100fa929190610a41565b60405180910390f35b34801561010e575f80fd5b5061012960048036038101906101249190610a07565b6105f1565b6040516101369190610a77565b60405180910390f35b34801561014a575f80fd5b50610153610621565b6040516101609190610ad8565b60405180910390f35b600115155f803373ffffffffffffffffffffffffffffffffffffffff1673ffffffffffffffffffffffffffffffffffffffff1681526020019081526020015f206003015f9054906101000a900460ff161515036101fb576040517f08c379a00000000000000000000000000000000000000000000000000000000081526004016101f290610b68565b60405180910390fd5b60405180608001604052804281526020015f8152602001828152602001600115158152505f803373ffffffffffffffffffffffffffffffffffffffff1673ffffffffffffffffffffffffffffffffffffffff1681526020019081526020015f205f820151815f01556020820151816001015560408201518160020190816102829190610d80565b506060820151816003015f6101000a81548160ff02191690831515021790555090505050565b813410156102b4575f80fd5b8060015f3373ffffffffffffffffffffffffffffffffffffffff1673ffffffffffffffffffffffffffffffffffffffff1681526020019081526020015f205f6101000a81548173ffffffffffffffffffffffffffffffffffffffff021916908373ffffffffffffffffffffffffffffffffffffffff160217905550815f808373ffffffffffffffffffffffffffffffffffffffff1673ffffffffffffffffffffffffffffffffffffffff1681526020019081526020015f206001015f82825461037d9190610e7c565b9250508190555060025f3373ffffffffffffffffffffffffffffffffffffffff1673ffffffffffffffffffffffffffffffffffffffff1681526020019081526020015f2060020181908060018154018082558091505060019003905f5260205f20015f9091909190916101000a81548173ffffffffffffffffffffffffffffffffffffffff021916908373ffffffffffffffffffffffffffffffffffffffff1602179055504260025f3373ffffffffffffffffffffffffffffffffffffffff1673ffffffffffffffffffffffffffffffffffffffff1681526020019081526020015f205f01819055508160025f3373ffffffffffffffffffffffffffffffffffffffff1673ffffffffffffffffffffffffffffffffffffffff1681526020019081526020015f206001015f8282546104b59190610e7c565b925050819055505050565b6104c861065e565b5f803373ffffffffffffffffffffffffffffffffffffffff1673ffffffffffffffffffffffffffffffffffffffff1681526020019081526020015f206040518060800160405290815f82015481526020016001820154815260200160028201805461053290610bb3565b80601f016020809104026020016040519081016040528092919081815260200182805461055e90610bb3565b80156105a95780601f10610580576101008083540402835291602001916105a9565b820191905f5260205f20905b81548152906001019060200180831161058c57829003601f168201915b50505050508152602001600382015f9054906101000a900460ff161515151581525050905090565b6002602052805f5260405f205f91509050805f0154908060010154905082565b6001602052805f5260405f205f915054906101000a900473ffffffffffffffffffffffffffffffffffffffff1681565b60606040518060400160405280600481526020017f7465737400000000000000000000000000000000000000000000000000000000815250905090565b60405180608001604052805f81526020015f8152602001606081526020015f151581525090565b5f604051905090565b5f80fd5b5f80fd5b5f80fd5b5f80fd5b5f601f19601f8301169050919050565b7f4e487b71000000000000000000000000000000000000000000000000000000005f52604160045260245ffd5b6106e48261069e565b810181811067ffffffffffffffff82111715610703576107026106ae565b5b80604052505050565b5f610715610685565b905061072182826106db565b919050565b5f67ffffffffffffffff8211156107405761073f6106ae565b5b6107498261069e565b9050602081019050919050565b828183375f83830152505050565b5f61077661077184610726565b61070c565b9050828152602081018484840111156107925761079161069a565b5b61079d848285610756565b509392505050565b5f82601f8301126107b9576107b8610696565b5b81356107c9848260208601610764565b91505092915050565b5f602082840312156107e7576107e661068e565b5b5f82013567ffffffffffffffff81111561080457610803610692565b5b610810848285016107a5565b91505092915050565b5f819050919050565b61082b81610819565b8114610835575f80fd5b50565b5f8135905061084681610822565b92915050565b5f73ffffffffffffffffffffffffffffffffffffffff82169050919050565b5f6108758261084c565b9050919050565b6108858161086b565b811461088f575f80fd5b50565b5f813590506108a08161087c565b92915050565b5f80604083850312156108bc576108bb61068e565b5b5f6108c985828601610838565b92505060206108da85828601610892565b9150509250929050565b6108ed81610819565b82525050565b5f81519050919050565b5f82825260208201905092915050565b5f5b8381101561092a57808201518184015260208101905061090f565b5f8484015250505050565b5f61093f826108f3565b61094981856108fd565b935061095981856020860161090d565b6109628161069e565b840191505092915050565b5f8115159050919050565b6109818161096d565b82525050565b5f608083015f83015161099c5f8601826108e4565b5060208301516109af60208601826108e4565b50604083015184820360408601526109c78282610935565b91505060608301516109dc6060860182610978565b508091505092915050565b5f6020820190508181035f8301526109ff8184610987565b905092915050565b5f60208284031215610a1c57610a1b61068e565b5b5f610a2984828501610892565b91505092915050565b610a3b81610819565b82525050565b5f604082019050610a545f830185610a32565b610a616020830184610a32565b9392505050565b610a718161086b565b82525050565b5f602082019050610a8a5f830184610a68565b92915050565b5f82825260208201905092915050565b5f610aaa826108f3565b610ab48185610a90565b9350610ac481856020860161090d565b610acd8161069e565b840191505092915050565b5f6020820190508181035f830152610af08184610aa0565b905092915050565b7f596f75206861766520616c6561726479207265676973746572656420746865205f8201527f62656e6566696369617279000000000000000000000000000000000000000000602082015250565b5f610b52602b83610a90565b9150610b5d82610af8565b604082019050919050565b5f6020820190508181035f830152610b7f81610b46565b9050919050565b7f4e487b71000000000000000000000000000000000000000000000000000000005f52602260045260245ffd5b5f6002820490506001821680610bca57607f821691505b602082108103610bdd57610bdc610b86565b5b50919050565b5f819050815f5260205f209050919050565b5f6020601f8301049050919050565b5f82821b905092915050565b5f60088302610c3f7fffffffffffffffffffffffffffffffffffffffffffffffffffffffffffffffff82610c04565b610c498683610c04565b95508019841693508086168417925050509392505050565b5f819050919050565b5f610c84610c7f610c7a84610819565b610c61565b610819565b9050919050565b5f819050919050565b610c9d83610c6a565b610cb1610ca982610c8b565b848454610c10565b825550505050565b5f90565b610cc5610cb9565b610cd0818484610c94565b505050565b5b81811015610cf357610ce85f82610cbd565b600181019050610cd6565b5050565b601f821115610d3857610d0981610be3565b610d1284610bf5565b81016020851015610d21578190505b610d35610d2d85610bf5565b830182610cd5565b50505b505050565b5f82821c905092915050565b5f610d585f1984600802610d3d565b1980831691505092915050565b5f610d708383610d49565b9150826002028217905092915050565b610d89826108f3565b67ffffffffffffffff811115610da257610da16106ae565b5b610dac8254610bb3565b610db7828285610cf7565b5f60209050601f831160018114610de8575f8415610dd6578287015190505b610de08582610d65565b865550610e47565b601f198416610df686610be3565b5f5b82811015610e1d57848901518255600182019150602085019450602081019050610df8565b86831015610e3a5784890151610e36601f891682610d49565b8355505b6001600288020188555050505b505050505050565b7f4e487b71000000000000000000000000000000000000000000000000000000005f52601160045260245ffd5b5f610e8682610819565b9150610e9183610819565b9250828201905080821115610ea957610ea8610e4f565b5b9291505056fea26469706673582212204f2672bc9014ad5e355f8d273a5627f03567e59ff2d2a6681f92d3679764efc764736f6c63430008160033",
					"opcodes": "PUSH1 0x80 PUSH1 0x40 MSTORE CALLVALUE DUP1 ISZERO PUSH2 0xF JUMPI PUSH0 DUP1 REVERT JUMPDEST POP PUSH2 0xEE5 DUP1 PUSH2 0x1D PUSH0 CODECOPY PUSH0 RETURN INVALID PUSH1 0x80 PUSH1 0x40 MSTORE PUSH1 0x4 CALLDATASIZE LT PUSH2 0x54 JUMPI PUSH0 CALLDATALOAD PUSH1 0xE0 SHR DUP1 PUSH4 0x49EF1467 EQ PUSH2 0x58 JUMPI DUP1 PUSH4 0x8004F9FA EQ PUSH2 0x80 JUMPI DUP1 PUSH4 0x828CEDB7 EQ PUSH2 0x9C JUMPI DUP1 PUSH4 0xCC51D892 EQ PUSH2 0xC6 JUMPI DUP1 PUSH4 0xF457EE5A EQ PUSH2 0x103 JUMPI DUP1 PUSH4 0xF8A8FD6D EQ PUSH2 0x13F JUMPI JUMPDEST PUSH0 DUP1 REVERT JUMPDEST CALLVALUE DUP1 ISZERO PUSH2 0x63 JUMPI PUSH0 DUP1 REVERT JUMPDEST POP PUSH2 0x7E PUSH1 0x4 DUP1 CALLDATASIZE SUB DUP2 ADD SWAP1 PUSH2 0x79 SWAP2 SWAP1 PUSH2 0x7D2 JUMP JUMPDEST PUSH2 0x169 JUMP JUMPDEST STOP JUMPDEST PUSH2 0x9A PUSH1 0x4 DUP1 CALLDATASIZE SUB DUP2 ADD SWAP1 PUSH2 0x95 SWAP2 SWAP1 PUSH2 0x8A6 JUMP JUMPDEST PUSH2 0x2A8 JUMP JUMPDEST STOP JUMPDEST CALLVALUE DUP1 ISZERO PUSH2 0xA7 JUMPI PUSH0 DUP1 REVERT JUMPDEST POP PUSH2 0xB0 PUSH2 0x4C0 JUMP JUMPDEST PUSH1 0x40 MLOAD PUSH2 0xBD SWAP2 SWAP1 PUSH2 0x9E7 JUMP JUMPDEST PUSH1 0x40 MLOAD DUP1 SWAP2 SUB SWAP1 RETURN JUMPDEST CALLVALUE DUP1 ISZERO PUSH2 0xD1 JUMPI PUSH0 DUP1 REVERT JUMPDEST POP PUSH2 0xEC PUSH1 0x4 DUP1 CALLDATASIZE SUB DUP2 ADD SWAP1 PUSH2 0xE7 SWAP2 SWAP1 PUSH2 0xA07 JUMP JUMPDEST PUSH2 0x5D1 JUMP JUMPDEST PUSH1 0x40 MLOAD PUSH2 0xFA SWAP3 SWAP2 SWAP1 PUSH2 0xA41 JUMP JUMPDEST PUSH1 0x40 MLOAD DUP1 SWAP2 SUB SWAP1 RETURN JUMPDEST CALLVALUE DUP1 ISZERO PUSH2 0x10E JUMPI PUSH0 DUP1 REVERT JUMPDEST POP PUSH2 0x129 PUSH1 0x4 DUP1 CALLDATASIZE SUB DUP2 ADD SWAP1 PUSH2 0x124 SWAP2 SWAP1 PUSH2 0xA07 JUMP JUMPDEST PUSH2 0x5F1 JUMP JUMPDEST PUSH1 0x40 MLOAD PUSH2 0x136 SWAP2 SWAP1 PUSH2 0xA77 JUMP JUMPDEST PUSH1 0x40 MLOAD DUP1 SWAP2 SUB SWAP1 RETURN JUMPDEST CALLVALUE DUP1 ISZERO PUSH2 0x14A JUMPI PUSH0 DUP1 REVERT JUMPDEST POP PUSH2 0x153 PUSH2 0x621 JUMP JUMPDEST PUSH1 0x40 MLOAD PUSH2 0x160 SWAP2 SWAP1 PUSH2 0xAD8 JUMP JUMPDEST PUSH1 0x40 MLOAD DUP1 SWAP2 SUB SWAP1 RETURN JUMPDEST PUSH1 0x1 ISZERO ISZERO PUSH0 DUP1 CALLER PUSH20 0xFFFFFFFFFFFFFFFFFFFFFFFFFFFFFFFFFFFFFFFF AND PUSH20 0xFFFFFFFFFFFFFFFFFFFFFFFFFFFFFFFFFFFFFFFF AND DUP2 MSTORE PUSH1 0x20 ADD SWAP1 DUP2 MSTORE PUSH1 0x20 ADD PUSH0 KECCAK256 PUSH1 0x3 ADD PUSH0 SWAP1 SLOAD SWAP1 PUSH2 0x100 EXP SWAP1 DIV PUSH1 0xFF AND ISZERO ISZERO SUB PUSH2 0x1FB JUMPI PUSH1 0x40 MLOAD PUSH32 0x8C379A000000000000000000000000000000000000000000000000000000000 DUP2 MSTORE PUSH1 0x4 ADD PUSH2 0x1F2 SWAP1 PUSH2 0xB68 JUMP JUMPDEST PUSH1 0x40 MLOAD DUP1 SWAP2 SUB SWAP1 REVERT JUMPDEST PUSH1 0x40 MLOAD DUP1 PUSH1 0x80 ADD PUSH1 0x40 MSTORE DUP1 TIMESTAMP DUP2 MSTORE PUSH1 0x20 ADD PUSH0 DUP2 MSTORE PUSH1 0x20 ADD DUP3 DUP2 MSTORE PUSH1 0x20 ADD PUSH1 0x1 ISZERO ISZERO DUP2 MSTORE POP PUSH0 DUP1 CALLER PUSH20 0xFFFFFFFFFFFFFFFFFFFFFFFFFFFFFFFFFFFFFFFF AND PUSH20 0xFFFFFFFFFFFFFFFFFFFFFFFFFFFFFFFFFFFFFFFF AND DUP2 MSTORE PUSH1 0x20 ADD SWAP1 DUP2 MSTORE PUSH1 0x20 ADD PUSH0 KECCAK256 PUSH0 DUP3 ADD MLOAD DUP2 PUSH0 ADD SSTORE PUSH1 0x20 DUP3 ADD MLOAD DUP2 PUSH1 0x1 ADD SSTORE PUSH1 0x40 DUP3 ADD MLOAD DUP2 PUSH1 0x2 ADD SWAP1 DUP2 PUSH2 0x282 SWAP2 SWAP1 PUSH2 0xD80 JUMP JUMPDEST POP PUSH1 0x60 DUP3 ADD MLOAD DUP2 PUSH1 0x3 ADD PUSH0 PUSH2 0x100 EXP DUP2 SLOAD DUP2 PUSH1 0xFF MUL NOT AND SWAP1 DUP4 ISZERO ISZERO MUL OR SWAP1 SSTORE POP SWAP1 POP POP POP JUMP JUMPDEST DUP2 CALLVALUE LT ISZERO PUSH2 0x2B4 JUMPI PUSH0 DUP1 REVERT JUMPDEST DUP1 PUSH1 0x1 PUSH0 CALLER PUSH20 0xFFFFFFFFFFFFFFFFFFFFFFFFFFFFFFFFFFFFFFFF AND PUSH20 0xFFFFFFFFFFFFFFFFFFFFFFFFFFFFFFFFFFFFFFFF AND DUP2 MSTORE PUSH1 0x20 ADD SWAP1 DUP2 MSTORE PUSH1 0x20 ADD PUSH0 KECCAK256 PUSH0 PUSH2 0x100 EXP DUP2 SLOAD DUP2 PUSH20 0xFFFFFFFFFFFFFFFFFFFFFFFFFFFFFFFFFFFFFFFF MUL NOT AND SWAP1 DUP4 PUSH20 0xFFFFFFFFFFFFFFFFFFFFFFFFFFFFFFFFFFFFFFFF AND MUL OR SWAP1 SSTORE POP DUP2 PUSH0 DUP1 DUP4 PUSH20 0xFFFFFFFFFFFFFFFFFFFFFFFFFFFFFFFFFFFFFFFF AND PUSH20 0xFFFFFFFFFFFFFFFFFFFFFFFFFFFFFFFFFFFFFFFF AND DUP2 MSTORE PUSH1 0x20 ADD SWAP1 DUP2 MSTORE PUSH1 0x20 ADD PUSH0 KECCAK256 PUSH1 0x1 ADD PUSH0 DUP3 DUP3 SLOAD PUSH2 0x37D SWAP2 SWAP1 PUSH2 0xE7C JUMP JUMPDEST SWAP3 POP POP DUP2 SWAP1 SSTORE POP PUSH1 0x2 PUSH0 CALLER PUSH20 0xFFFFFFFFFFFFFFFFFFFFFFFFFFFFFFFFFFFFFFFF AND PUSH20 0xFFFFFFFFFFFFFFFFFFFFFFFFFFFFFFFFFFFFFFFF AND DUP2 MSTORE PUSH1 0x20 ADD SWAP1 DUP2 MSTORE PUSH1 0x20 ADD PUSH0 KECCAK256 PUSH1 0x2 ADD DUP2 SWAP1 DUP1 PUSH1 0x1 DUP2 SLOAD ADD DUP1 DUP3 SSTORE DUP1 SWAP2 POP POP PUSH1 0x1 SWAP1 SUB SWAP1 PUSH0 MSTORE PUSH1 0x20 PUSH0 KECCAK256 ADD PUSH0 SWAP1 SWAP2 SWAP1 SWAP2 SWAP1 SWAP2 PUSH2 0x100 EXP DUP2 SLOAD DUP2 PUSH20 0xFFFFFFFFFFFFFFFFFFFFFFFFFFFFFFFFFFFFFFFF MUL NOT AND SWAP1 DUP4 PUSH20 0xFFFFFFFFFFFFFFFFFFFFFFFFFFFFFFFFFFFFFFFF AND MUL OR SWAP1 SSTORE POP TIMESTAMP PUSH1 0x2 PUSH0 CALLER PUSH20 0xFFFFFFFFFFFFFFFFFFFFFFFFFFFFFFFFFFFFFFFF AND PUSH20 0xFFFFFFFFFFFFFFFFFFFFFFFFFFFFFFFFFFFFFFFF AND DUP2 MSTORE PUSH1 0x20 ADD SWAP1 DUP2 MSTORE PUSH1 0x20 ADD PUSH0 KECCAK256 PUSH0 ADD DUP2 SWAP1 SSTORE POP DUP2 PUSH1 0x2 PUSH0 CALLER PUSH20 0xFFFFFFFFFFFFFFFFFFFFFFFFFFFFFFFFFFFFFFFF AND PUSH20 0xFFFFFFFFFFFFFFFFFFFFFFFFFFFFFFFFFFFFFFFF AND DUP2 MSTORE PUSH1 0x20 ADD SWAP1 DUP2 MSTORE PUSH1 0x20 ADD PUSH0 KECCAK256 PUSH1 0x1 ADD PUSH0 DUP3 DUP3 SLOAD PUSH2 0x4B5 SWAP2 SWAP1 PUSH2 0xE7C JUMP JUMPDEST SWAP3 POP POP DUP2 SWAP1 SSTORE POP POP POP JUMP JUMPDEST PUSH2 0x4C8 PUSH2 0x65E JUMP JUMPDEST PUSH0 DUP1 CALLER PUSH20 0xFFFFFFFFFFFFFFFFFFFFFFFFFFFFFFFFFFFFFFFF AND PUSH20 0xFFFFFFFFFFFFFFFFFFFFFFFFFFFFFFFFFFFFFFFF AND DUP2 MSTORE PUSH1 0x20 ADD SWAP1 DUP2 MSTORE PUSH1 0x20 ADD PUSH0 KECCAK256 PUSH1 0x40 MLOAD DUP1 PUSH1 0x80 ADD PUSH1 0x40 MSTORE SWAP1 DUP2 PUSH0 DUP3 ADD SLOAD DUP2 MSTORE PUSH1 0x20 ADD PUSH1 0x1 DUP3 ADD SLOAD DUP2 MSTORE PUSH1 0x20 ADD PUSH1 0x2 DUP3 ADD DUP1 SLOAD PUSH2 0x532 SWAP1 PUSH2 0xBB3 JUMP JUMPDEST DUP1 PUSH1 0x1F ADD PUSH1 0x20 DUP1 SWAP2 DIV MUL PUSH1 0x20 ADD PUSH1 0x40 MLOAD SWAP1 DUP2 ADD PUSH1 0x40 MSTORE DUP1 SWAP3 SWAP2 SWAP1 DUP2 DUP2 MSTORE PUSH1 0x20 ADD DUP3 DUP1 SLOAD PUSH2 0x55E SWAP1 PUSH2 0xBB3 JUMP JUMPDEST DUP1 ISZERO PUSH2 0x5A9 JUMPI DUP1 PUSH1 0x1F LT PUSH2 0x580 JUMPI PUSH2 0x100 DUP1 DUP4 SLOAD DIV MUL DUP4 MSTORE SWAP2 PUSH1 0x20 ADD SWAP2 PUSH2 0x5A9 JUMP JUMPDEST DUP3 ADD SWAP2 SWAP1 PUSH0 MSTORE PUSH1 0x20 PUSH0 KECCAK256 SWAP1 JUMPDEST DUP2 SLOAD DUP2 MSTORE SWAP1 PUSH1 0x1 ADD SWAP1 PUSH1 0x20 ADD DUP1 DUP4 GT PUSH2 0x58C JUMPI DUP3 SWAP1 SUB PUSH1 0x1F AND DUP3 ADD SWAP2 JUMPDEST POP POP POP POP POP DUP2 MSTORE PUSH1 0x20 ADD PUSH1 0x3 DUP3 ADD PUSH0 SWAP1 SLOAD SWAP1 PUSH2 0x100 EXP SWAP1 DIV PUSH1 0xFF AND ISZERO ISZERO ISZERO ISZERO DUP2 MSTORE POP POP SWAP1 POP SWAP1 JUMP JUMPDEST PUSH1 0x2 PUSH1 0x20 MSTORE DUP1 PUSH0 MSTORE PUSH1 0x40 PUSH0 KECCAK256 PUSH0 SWAP2 POP SWAP1 POP DUP1 PUSH0 ADD SLOAD SWAP1 DUP1 PUSH1 0x1 ADD SLOAD SWAP1 POP DUP3 JUMP JUMPDEST PUSH1 0x1 PUSH1 0x20 MSTORE DUP1 PUSH0 MSTORE PUSH1 0x40 PUSH0 KECCAK256 PUSH0 SWAP2 POP SLOAD SWAP1 PUSH2 0x100 EXP SWAP1 DIV PUSH20 0xFFFFFFFFFFFFFFFFFFFFFFFFFFFFFFFFFFFFFFFF AND DUP2 JUMP JUMPDEST PUSH1 0x60 PUSH1 0x40 MLOAD DUP1 PUSH1 0x40 ADD PUSH1 0x40 MSTORE DUP1 PUSH1 0x4 DUP2 MSTORE PUSH1 0x20 ADD PUSH32 0x7465737400000000000000000000000000000000000000000000000000000000 DUP2 MSTORE POP SWAP1 POP SWAP1 JUMP JUMPDEST PUSH1 0x40 MLOAD DUP1 PUSH1 0x80 ADD PUSH1 0x40 MSTORE DUP1 PUSH0 DUP2 MSTORE PUSH1 0x20 ADD PUSH0 DUP2 MSTORE PUSH1 0x20 ADD PUSH1 0x60 DUP2 MSTORE PUSH1 0x20 ADD PUSH0 ISZERO ISZERO DUP2 MSTORE POP SWAP1 JUMP JUMPDEST PUSH0 PUSH1 0x40 MLOAD SWAP1 POP SWAP1 JUMP JUMPDEST PUSH0 DUP1 REVERT JUMPDEST PUSH0 DUP1 REVERT JUMPDEST PUSH0 DUP1 REVERT JUMPDEST PUSH0 DUP1 REVERT JUMPDEST PUSH0 PUSH1 0x1F NOT PUSH1 0x1F DUP4 ADD AND SWAP1 POP SWAP2 SWAP1 POP JUMP JUMPDEST PUSH32 0x4E487B7100000000000000000000000000000000000000000000000000000000 PUSH0 MSTORE PUSH1 0x41 PUSH1 0x4 MSTORE PUSH1 0x24 PUSH0 REVERT JUMPDEST PUSH2 0x6E4 DUP3 PUSH2 0x69E JUMP JUMPDEST DUP2 ADD DUP2 DUP2 LT PUSH8 0xFFFFFFFFFFFFFFFF DUP3 GT OR ISZERO PUSH2 0x703 JUMPI PUSH2 0x702 PUSH2 0x6AE JUMP JUMPDEST JUMPDEST DUP1 PUSH1 0x40 MSTORE POP POP POP JUMP JUMPDEST PUSH0 PUSH2 0x715 PUSH2 0x685 JUMP JUMPDEST SWAP1 POP PUSH2 0x721 DUP3 DUP3 PUSH2 0x6DB JUMP JUMPDEST SWAP2 SWAP1 POP JUMP JUMPDEST PUSH0 PUSH8 0xFFFFFFFFFFFFFFFF DUP3 GT ISZERO PUSH2 0x740 JUMPI PUSH2 0x73F PUSH2 0x6AE JUMP JUMPDEST JUMPDEST PUSH2 0x749 DUP3 PUSH2 0x69E JUMP JUMPDEST SWAP1 POP PUSH1 0x20 DUP2 ADD SWAP1 POP SWAP2 SWAP1 POP JUMP JUMPDEST DUP3 DUP2 DUP4 CALLDATACOPY PUSH0 DUP4 DUP4 ADD MSTORE POP POP POP JUMP JUMPDEST PUSH0 PUSH2 0x776 PUSH2 0x771 DUP5 PUSH2 0x726 JUMP JUMPDEST PUSH2 0x70C JUMP JUMPDEST SWAP1 POP DUP3 DUP2 MSTORE PUSH1 0x20 DUP2 ADD DUP5 DUP5 DUP5 ADD GT ISZERO PUSH2 0x792 JUMPI PUSH2 0x791 PUSH2 0x69A JUMP JUMPDEST JUMPDEST PUSH2 0x79D DUP5 DUP3 DUP6 PUSH2 0x756 JUMP JUMPDEST POP SWAP4 SWAP3 POP POP POP JUMP JUMPDEST PUSH0 DUP3 PUSH1 0x1F DUP4 ADD SLT PUSH2 0x7B9 JUMPI PUSH2 0x7B8 PUSH2 0x696 JUMP JUMPDEST JUMPDEST DUP2 CALLDATALOAD PUSH2 0x7C9 DUP5 DUP3 PUSH1 0x20 DUP7 ADD PUSH2 0x764 JUMP JUMPDEST SWAP2 POP POP SWAP3 SWAP2 POP POP JUMP JUMPDEST PUSH0 PUSH1 0x20 DUP3 DUP5 SUB SLT ISZERO PUSH2 0x7E7 JUMPI PUSH2 0x7E6 PUSH2 0x68E JUMP JUMPDEST JUMPDEST PUSH0 DUP3 ADD CALLDATALOAD PUSH8 0xFFFFFFFFFFFFFFFF DUP2 GT ISZERO PUSH2 0x804 JUMPI PUSH2 0x803 PUSH2 0x692 JUMP JUMPDEST JUMPDEST PUSH2 0x810 DUP5 DUP3 DUP6 ADD PUSH2 0x7A5 JUMP JUMPDEST SWAP2 POP POP SWAP3 SWAP2 POP POP JUMP JUMPDEST PUSH0 DUP2 SWAP1 POP SWAP2 SWAP1 POP JUMP JUMPDEST PUSH2 0x82B DUP2 PUSH2 0x819 JUMP JUMPDEST DUP2 EQ PUSH2 0x835 JUMPI PUSH0 DUP1 REVERT JUMPDEST POP JUMP JUMPDEST PUSH0 DUP2 CALLDATALOAD SWAP1 POP PUSH2 0x846 DUP2 PUSH2 0x822 JUMP JUMPDEST SWAP3 SWAP2 POP POP JUMP JUMPDEST PUSH0 PUSH20 0xFFFFFFFFFFFFFFFFFFFFFFFFFFFFFFFFFFFFFFFF DUP3 AND SWAP1 POP SWAP2 SWAP1 POP JUMP JUMPDEST PUSH0 PUSH2 0x875 DUP3 PUSH2 0x84C JUMP JUMPDEST SWAP1 POP SWAP2 SWAP1 POP JUMP JUMPDEST PUSH2 0x885 DUP2 PUSH2 0x86B JUMP JUMPDEST DUP2 EQ PUSH2 0x88F JUMPI PUSH0 DUP1 REVERT JUMPDEST POP JUMP JUMPDEST PUSH0 DUP2 CALLDATALOAD SWAP1 POP PUSH2 0x8A0 DUP2 PUSH2 0x87C JUMP JUMPDEST SWAP3 SWAP2 POP POP JUMP JUMPDEST PUSH0 DUP1 PUSH1 0x40 DUP4 DUP6 SUB SLT ISZERO PUSH2 0x8BC JUMPI PUSH2 0x8BB PUSH2 0x68E JUMP JUMPDEST JUMPDEST PUSH0 PUSH2 0x8C9 DUP6 DUP3 DUP7 ADD PUSH2 0x838 JUMP JUMPDEST SWAP3 POP POP PUSH1 0x20 PUSH2 0x8DA DUP6 DUP3 DUP7 ADD PUSH2 0x892 JUMP JUMPDEST SWAP2 POP POP SWAP3 POP SWAP3 SWAP1 POP JUMP JUMPDEST PUSH2 0x8ED DUP2 PUSH2 0x819 JUMP JUMPDEST DUP3 MSTORE POP POP JUMP JUMPDEST PUSH0 DUP2 MLOAD SWAP1 POP SWAP2 SWAP1 POP JUMP JUMPDEST PUSH0 DUP3 DUP3 MSTORE PUSH1 0x20 DUP3 ADD SWAP1 POP SWAP3 SWAP2 POP POP JUMP JUMPDEST PUSH0 JUMPDEST DUP4 DUP2 LT ISZERO PUSH2 0x92A JUMPI DUP1 DUP3 ADD MLOAD DUP2 DUP5 ADD MSTORE PUSH1 0x20 DUP2 ADD SWAP1 POP PUSH2 0x90F JUMP JUMPDEST PUSH0 DUP5 DUP5 ADD MSTORE POP POP POP POP JUMP JUMPDEST PUSH0 PUSH2 0x93F DUP3 PUSH2 0x8F3 JUMP JUMPDEST PUSH2 0x949 DUP2 DUP6 PUSH2 0x8FD JUMP JUMPDEST SWAP4 POP PUSH2 0x959 DUP2 DUP6 PUSH1 0x20 DUP7 ADD PUSH2 0x90D JUMP JUMPDEST PUSH2 0x962 DUP2 PUSH2 0x69E JUMP JUMPDEST DUP5 ADD SWAP2 POP POP SWAP3 SWAP2 POP POP JUMP JUMPDEST PUSH0 DUP2 ISZERO ISZERO SWAP1 POP SWAP2 SWAP1 POP JUMP JUMPDEST PUSH2 0x981 DUP2 PUSH2 0x96D JUMP JUMPDEST DUP3 MSTORE POP POP JUMP JUMPDEST PUSH0 PUSH1 0x80 DUP4 ADD PUSH0 DUP4 ADD MLOAD PUSH2 0x99C PUSH0 DUP7 ADD DUP3 PUSH2 0x8E4 JUMP JUMPDEST POP PUSH1 0x20 DUP4 ADD MLOAD PUSH2 0x9AF PUSH1 0x20 DUP7 ADD DUP3 PUSH2 0x8E4 JUMP JUMPDEST POP PUSH1 0x40 DUP4 ADD MLOAD DUP5 DUP3 SUB PUSH1 0x40 DUP7 ADD MSTORE PUSH2 0x9C7 DUP3 DUP3 PUSH2 0x935 JUMP JUMPDEST SWAP2 POP POP PUSH1 0x60 DUP4 ADD MLOAD PUSH2 0x9DC PUSH1 0x60 DUP7 ADD DUP3 PUSH2 0x978 JUMP JUMPDEST POP DUP1 SWAP2 POP POP SWAP3 SWAP2 POP POP JUMP JUMPDEST PUSH0 PUSH1 0x20 DUP3 ADD SWAP1 POP DUP2 DUP2 SUB PUSH0 DUP4 ADD MSTORE PUSH2 0x9FF DUP2 DUP5 PUSH2 0x987 JUMP JUMPDEST SWAP1 POP SWAP3 SWAP2 POP POP JUMP JUMPDEST PUSH0 PUSH1 0x20 DUP3 DUP5 SUB SLT ISZERO PUSH2 0xA1C JUMPI PUSH2 0xA1B PUSH2 0x68E JUMP JUMPDEST JUMPDEST PUSH0 PUSH2 0xA29 DUP5 DUP3 DUP6 ADD PUSH2 0x892 JUMP JUMPDEST SWAP2 POP POP SWAP3 SWAP2 POP POP JUMP JUMPDEST PUSH2 0xA3B DUP2 PUSH2 0x819 JUMP JUMPDEST DUP3 MSTORE POP POP JUMP JUMPDEST PUSH0 PUSH1 0x40 DUP3 ADD SWAP1 POP PUSH2 0xA54 PUSH0 DUP4 ADD DUP6 PUSH2 0xA32 JUMP JUMPDEST PUSH2 0xA61 PUSH1 0x20 DUP4 ADD DUP5 PUSH2 0xA32 JUMP JUMPDEST SWAP4 SWAP3 POP POP POP JUMP JUMPDEST PUSH2 0xA71 DUP2 PUSH2 0x86B JUMP JUMPDEST DUP3 MSTORE POP POP JUMP JUMPDEST PUSH0 PUSH1 0x20 DUP3 ADD SWAP1 POP PUSH2 0xA8A PUSH0 DUP4 ADD DUP5 PUSH2 0xA68 JUMP JUMPDEST SWAP3 SWAP2 POP POP JUMP JUMPDEST PUSH0 DUP3 DUP3 MSTORE PUSH1 0x20 DUP3 ADD SWAP1 POP SWAP3 SWAP2 POP POP JUMP JUMPDEST PUSH0 PUSH2 0xAAA DUP3 PUSH2 0x8F3 JUMP JUMPDEST PUSH2 0xAB4 DUP2 DUP6 PUSH2 0xA90 JUMP JUMPDEST SWAP4 POP PUSH2 0xAC4 DUP2 DUP6 PUSH1 0x20 DUP7 ADD PUSH2 0x90D JUMP JUMPDEST PUSH2 0xACD DUP2 PUSH2 0x69E JUMP JUMPDEST DUP5 ADD SWAP2 POP POP SWAP3 SWAP2 POP POP JUMP JUMPDEST PUSH0 PUSH1 0x20 DUP3 ADD SWAP1 POP DUP2 DUP2 SUB PUSH0 DUP4 ADD MSTORE PUSH2 0xAF0 DUP2 DUP5 PUSH2 0xAA0 JUMP JUMPDEST SWAP1 POP SWAP3 SWAP2 POP POP JUMP JUMPDEST PUSH32 0x596F75206861766520616C656172647920726567697374657265642074686520 PUSH0 DUP3 ADD MSTORE PUSH32 0x62656E6566696369617279000000000000000000000000000000000000000000 PUSH1 0x20 DUP3 ADD MSTORE POP JUMP JUMPDEST PUSH0 PUSH2 0xB52 PUSH1 0x2B DUP4 PUSH2 0xA90 JUMP JUMPDEST SWAP2 POP PUSH2 0xB5D DUP3 PUSH2 0xAF8 JUMP JUMPDEST PUSH1 0x40 DUP3 ADD SWAP1 POP SWAP2 SWAP1 POP JUMP JUMPDEST PUSH0 PUSH1 0x20 DUP3 ADD SWAP1 POP DUP2 DUP2 SUB PUSH0 DUP4 ADD MSTORE PUSH2 0xB7F DUP2 PUSH2 0xB46 JUMP JUMPDEST SWAP1 POP SWAP2 SWAP1 POP JUMP JUMPDEST PUSH32 0x4E487B7100000000000000000000000000000000000000000000000000000000 PUSH0 MSTORE PUSH1 0x22 PUSH1 0x4 MSTORE PUSH1 0x24 PUSH0 REVERT JUMPDEST PUSH0 PUSH1 0x2 DUP3 DIV SWAP1 POP PUSH1 0x1 DUP3 AND DUP1 PUSH2 0xBCA JUMPI PUSH1 0x7F DUP3 AND SWAP2 POP JUMPDEST PUSH1 0x20 DUP3 LT DUP2 SUB PUSH2 0xBDD JUMPI PUSH2 0xBDC PUSH2 0xB86 JUMP JUMPDEST JUMPDEST POP SWAP2 SWAP1 POP JUMP JUMPDEST PUSH0 DUP2 SWAP1 POP DUP2 PUSH0 MSTORE PUSH1 0x20 PUSH0 KECCAK256 SWAP1 POP SWAP2 SWAP1 POP JUMP JUMPDEST PUSH0 PUSH1 0x20 PUSH1 0x1F DUP4 ADD DIV SWAP1 POP SWAP2 SWAP1 POP JUMP JUMPDEST PUSH0 DUP3 DUP3 SHL SWAP1 POP SWAP3 SWAP2 POP POP JUMP JUMPDEST PUSH0 PUSH1 0x8 DUP4 MUL PUSH2 0xC3F PUSH32 0xFFFFFFFFFFFFFFFFFFFFFFFFFFFFFFFFFFFFFFFFFFFFFFFFFFFFFFFFFFFFFFFF DUP3 PUSH2 0xC04 JUMP JUMPDEST PUSH2 0xC49 DUP7 DUP4 PUSH2 0xC04 JUMP JUMPDEST SWAP6 POP DUP1 NOT DUP5 AND SWAP4 POP DUP1 DUP7 AND DUP5 OR SWAP3 POP POP POP SWAP4 SWAP3 POP POP POP JUMP JUMPDEST PUSH0 DUP2 SWAP1 POP SWAP2 SWAP1 POP JUMP JUMPDEST PUSH0 PUSH2 0xC84 PUSH2 0xC7F PUSH2 0xC7A DUP5 PUSH2 0x819 JUMP JUMPDEST PUSH2 0xC61 JUMP JUMPDEST PUSH2 0x819 JUMP JUMPDEST SWAP1 POP SWAP2 SWAP1 POP JUMP JUMPDEST PUSH0 DUP2 SWAP1 POP SWAP2 SWAP1 POP JUMP JUMPDEST PUSH2 0xC9D DUP4 PUSH2 0xC6A JUMP JUMPDEST PUSH2 0xCB1 PUSH2 0xCA9 DUP3 PUSH2 0xC8B JUMP JUMPDEST DUP5 DUP5 SLOAD PUSH2 0xC10 JUMP JUMPDEST DUP3 SSTORE POP POP POP POP JUMP JUMPDEST PUSH0 SWAP1 JUMP JUMPDEST PUSH2 0xCC5 PUSH2 0xCB9 JUMP JUMPDEST PUSH2 0xCD0 DUP2 DUP5 DUP5 PUSH2 0xC94 JUMP JUMPDEST POP POP POP JUMP JUMPDEST JUMPDEST DUP2 DUP2 LT ISZERO PUSH2 0xCF3 JUMPI PUSH2 0xCE8 PUSH0 DUP3 PUSH2 0xCBD JUMP JUMPDEST PUSH1 0x1 DUP2 ADD SWAP1 POP PUSH2 0xCD6 JUMP JUMPDEST POP POP JUMP JUMPDEST PUSH1 0x1F DUP3 GT ISZERO PUSH2 0xD38 JUMPI PUSH2 0xD09 DUP2 PUSH2 0xBE3 JUMP JUMPDEST PUSH2 0xD12 DUP5 PUSH2 0xBF5 JUMP JUMPDEST DUP2 ADD PUSH1 0x20 DUP6 LT ISZERO PUSH2 0xD21 JUMPI DUP2 SWAP1 POP JUMPDEST PUSH2 0xD35 PUSH2 0xD2D DUP6 PUSH2 0xBF5 JUMP JUMPDEST DUP4 ADD DUP3 PUSH2 0xCD5 JUMP JUMPDEST POP POP JUMPDEST POP POP POP JUMP JUMPDEST PUSH0 DUP3 DUP3 SHR SWAP1 POP SWAP3 SWAP2 POP POP JUMP JUMPDEST PUSH0 PUSH2 0xD58 PUSH0 NOT DUP5 PUSH1 0x8 MUL PUSH2 0xD3D JUMP JUMPDEST NOT DUP1 DUP4 AND SWAP2 POP POP SWAP3 SWAP2 POP POP JUMP JUMPDEST PUSH0 PUSH2 0xD70 DUP4 DUP4 PUSH2 0xD49 JUMP JUMPDEST SWAP2 POP DUP3 PUSH1 0x2 MUL DUP3 OR SWAP1 POP SWAP3 SWAP2 POP POP JUMP JUMPDEST PUSH2 0xD89 DUP3 PUSH2 0x8F3 JUMP JUMPDEST PUSH8 0xFFFFFFFFFFFFFFFF DUP2 GT ISZERO PUSH2 0xDA2 JUMPI PUSH2 0xDA1 PUSH2 0x6AE JUMP JUMPDEST JUMPDEST PUSH2 0xDAC DUP3 SLOAD PUSH2 0xBB3 JUMP JUMPDEST PUSH2 0xDB7 DUP3 DUP3 DUP6 PUSH2 0xCF7 JUMP JUMPDEST PUSH0 PUSH1 0x20 SWAP1 POP PUSH1 0x1F DUP4 GT PUSH1 0x1 DUP2 EQ PUSH2 0xDE8 JUMPI PUSH0 DUP5 ISZERO PUSH2 0xDD6 JUMPI DUP3 DUP8 ADD MLOAD SWAP1 POP JUMPDEST PUSH2 0xDE0 DUP6 DUP3 PUSH2 0xD65 JUMP JUMPDEST DUP7 SSTORE POP PUSH2 0xE47 JUMP JUMPDEST PUSH1 0x1F NOT DUP5 AND PUSH2 0xDF6 DUP7 PUSH2 0xBE3 JUMP JUMPDEST PUSH0 JUMPDEST DUP3 DUP2 LT ISZERO PUSH2 0xE1D JUMPI DUP5 DUP10 ADD MLOAD DUP3 SSTORE PUSH1 0x1 DUP3 ADD SWAP2 POP PUSH1 0x20 DUP6 ADD SWAP5 POP PUSH1 0x20 DUP2 ADD SWAP1 POP PUSH2 0xDF8 JUMP JUMPDEST DUP7 DUP4 LT ISZERO PUSH2 0xE3A JUMPI DUP5 DUP10 ADD MLOAD PUSH2 0xE36 PUSH1 0x1F DUP10 AND DUP3 PUSH2 0xD49 JUMP JUMPDEST DUP4 SSTORE POP JUMPDEST PUSH1 0x1 PUSH1 0x2 DUP9 MUL ADD DUP9 SSTORE POP POP POP JUMPDEST POP POP POP POP POP POP JUMP JUMPDEST PUSH32 0x4E487B7100000000000000000000000000000000000000000000000000000000 PUSH0 MSTORE PUSH1 0x11 PUSH1 0x4 MSTORE PUSH1 0x24 PUSH0 REVERT JUMPDEST PUSH0 PUSH2 0xE86 DUP3 PUSH2 0x819 JUMP JUMPDEST SWAP2 POP PUSH2 0xE91 DUP4 PUSH2 0x819 JUMP JUMPDEST SWAP3 POP DUP3 DUP3 ADD SWAP1 POP DUP1 DUP3 GT ISZERO PUSH2 0xEA9 JUMPI PUSH2 0xEA8 PUSH2 0xE4F JUMP JUMPDEST JUMPDEST SWAP3 SWAP2 POP POP JUMP INVALID LOG2 PUSH5 0x6970667358 0x22 SLT KECCAK256 0x4F 0x26 PUSH19 0xBC9014AD5E355F8D273A5627F03567E59FF2D2 0xA6 PUSH9 0x1F92D3679764EFC764 PUSH20 0x6F6C634300081600330000000000000000000000 "
				},
				"gasEstimates": {
					"creation": {
						"codeDepositCost": "762600",
						"executionCost": "797",
						"totalCost": "763397"
					},
					"external": {
						"_beneficiary()": "infinite",
						"donate(uint256,address)": "infinite",
						"donation(address)": "infinite",
						"donator(address)": "infinite",
						"setBeneficiary(string)": "infinite",
						"test()": "infinite"
					}
				},
				"methodIdentifiers": {
					"_beneficiary()": "828cedb7",
					"donate(uint256,address)": "8004f9fa",
					"donation(address)": "f457ee5a",
					"donator(address)": "cc51d892",
					"setBeneficiary(string)": "49ef1467",
					"test()": "f8a8fd6d"
				}
			},
			"storageLayout": {
				"storage": [
					{
						"astId": 23,
						"contract": "Donation.sol:Donation",
						"label": "beneficiary",
						"offset": 0,
						"slot": "0",
						"type": "t_mapping(t_address,t_struct(Beneficiary)18_storage)"
					},
					{
						"astId": 27,
						"contract": "Donation.sol:Donation",
						"label": "donation",
						"offset": 0,
						"slot": "1",
						"type": "t_mapping(t_address,t_address)"
					},
					{
						"astId": 32,
						"contract": "Donation.sol:Donation",
						"label": "donator",
						"offset": 0,
						"slot": "2",
						"type": "t_mapping(t_address,t_struct(Donator)9_storage)"
					}
				],
				"types": {
					"t_address": {
						"encoding": "inplace",
						"label": "address",
						"numberOfBytes": "20"
					},
					"t_array(t_address)dyn_storage": {
						"base": "t_address",
						"encoding": "dynamic_array",
						"label": "address[]",
						"numberOfBytes": "32"
					},
					"t_bool": {
						"encoding": "inplace",
						"label": "bool",
						"numberOfBytes": "1"
					},
					"t_mapping(t_address,t_address)": {
						"encoding": "mapping",
						"key": "t_address",
						"label": "mapping(address => address)",
						"numberOfBytes": "32",
						"value": "t_address"
					},
					"t_mapping(t_address,t_struct(Beneficiary)18_storage)": {
						"encoding": "mapping",
						"key": "t_address",
						"label": "mapping(address => struct Donation.Beneficiary)",
						"numberOfBytes": "32",
						"value": "t_struct(Beneficiary)18_storage"
					},
					"t_mapping(t_address,t_struct(Donator)9_storage)": {
						"encoding": "mapping",
						"key": "t_address",
						"label": "mapping(address => struct Donation.Donator)",
						"numberOfBytes": "32",
						"value": "t_struct(Donator)9_storage"
					},
					"t_string_storage": {
						"encoding": "bytes",
						"label": "string",
						"numberOfBytes": "32"
					},
					"t_struct(Beneficiary)18_storage": {
						"encoding": "inplace",
						"label": "struct Donation.Beneficiary",
						"members": [
							{
								"astId": 11,
								"contract": "Donation.sol:Donation",
								"label": "applyDate",
								"offset": 0,
								"slot": "0",
								"type": "t_uint256"
							},
							{
								"astId": 13,
								"contract": "Donation.sol:Donation",
								"label": "amount",
								"offset": 0,
								"slot": "1",
								"type": "t_uint256"
							},
							{
								"astId": 15,
								"contract": "Donation.sol:Donation",
								"label": "donationType",
								"offset": 0,
								"slot": "2",
								"type": "t_string_storage"
							},
							{
								"astId": 17,
								"contract": "Donation.sol:Donation",
								"label": "isApply",
								"offset": 0,
								"slot": "3",
								"type": "t_bool"
							}
						],
						"numberOfBytes": "128"
					},
					"t_struct(Donator)9_storage": {
						"encoding": "inplace",
						"label": "struct Donation.Donator",
						"members": [
							{
								"astId": 3,
								"contract": "Donation.sol:Donation",
								"label": "donateDate",
								"offset": 0,
								"slot": "0",
								"type": "t_uint256"
							},
							{
								"astId": 5,
								"contract": "Donation.sol:Donation",
								"label": "totalDonationAmount",
								"offset": 0,
								"slot": "1",
								"type": "t_uint256"
							},
							{
								"astId": 8,
								"contract": "Donation.sol:Donation",
								"label": "beneficiaryAddr",
								"offset": 0,
								"slot": "2",
								"type": "t_array(t_address)dyn_storage"
							}
						],
						"numberOfBytes": "96"
					},
					"t_uint256": {
						"encoding": "inplace",
						"label": "uint256",
						"numberOfBytes": "32"
					}
				}
			},
			"userdoc": {
				"kind": "user",
				"methods": {},
				"version": 1
			}
		}
	}
}