{
	"Donation2.sol": {
		"Donation2": {
			"abi": [
				{
					"inputs": [
						{
							"internalType": "address",
							"name": "",
							"type": "address"
						}
					],
					"name": "beneficiary",
					"outputs": [
						{
							"internalType": "uint256",
							"name": "applyDate",
							"type": "uint256"
						},
						{
							"internalType": "uint256",
							"name": "amount",
							"type": "uint256"
						},
						{
							"internalType": "string",
							"name": "donationType",
							"type": "string"
						},
						{
							"internalType": "bool",
							"name": "isApply",
							"type": "bool"
						}
					],
					"stateMutability": "view",
					"type": "function"
				},
				{
					"inputs": [
						{
							"internalType": "uint256",
							"name": "_value",
							"type": "uint256"
						},
						{
							"internalType": "address",
							"name": "_beneficiary",
							"type": "address"
						}
					],
					"name": "donate",
					"outputs": [],
					"stateMutability": "payable",
					"type": "function"
				},
				{
					"inputs": [
						{
							"internalType": "address",
							"name": "",
							"type": "address"
						}
					],
					"name": "donation",
					"outputs": [
						{
							"internalType": "address",
							"name": "",
							"type": "address"
						}
					],
					"stateMutability": "view",
					"type": "function"
				},
				{
					"inputs": [
						{
							"internalType": "address",
							"name": "",
							"type": "address"
						}
					],
					"name": "donator",
					"outputs": [
						{
							"internalType": "uint256",
							"name": "donateDate",
							"type": "uint256"
						},
						{
							"internalType": "uint256",
							"name": "totalDonationAmount",
							"type": "uint256"
						}
					],
					"stateMutability": "view",
					"type": "function"
				},
				{
					"inputs": [
						{
							"internalType": "string",
							"name": "_type",
							"type": "string"
						}
					],
					"name": "setBeneficiary",
					"outputs": [],
					"stateMutability": "nonpayable",
					"type": "function"
				}
			],
			"devdoc": {
				"kind": "dev",
				"methods": {},
				"version": 1
			},
			"evm": {
				"assembly": "    /* \"Donation2.sol\":67:1219  contract Donation2{... */\n  mstore(0x40, 0x80)\n  callvalue\n  dup1\n  iszero\n  tag_1\n  jumpi\n  0x00\n  dup1\n  revert\ntag_1:\n  pop\n  dataSize(sub_0)\n  dup1\n  dataOffset(sub_0)\n  0x00\n  codecopy\n  0x00\n  return\nstop\n\nsub_0: assembly {\n        /* \"Donation2.sol\":67:1219  contract Donation2{... */\n      mstore(0x40, 0x80)\n      jumpi(tag_1, lt(calldatasize, 0x04))\n      shr(0xe0, calldataload(0x00))\n      dup1\n      0x49ef1467\n      eq\n      tag_2\n      jumpi\n      dup1\n      0x8004f9fa\n      eq\n      tag_3\n      jumpi\n      dup1\n      0x81008568\n      eq\n      tag_4\n      jumpi\n      dup1\n      0xcc51d892\n      eq\n      tag_5\n      jumpi\n      dup1\n      0xf457ee5a\n      eq\n      tag_6\n      jumpi\n    tag_1:\n      0x00\n      dup1\n      revert\n        /* \"Donation2.sol\":562:758  function setBeneficiary(string memory _type) public {... */\n    tag_2:\n      callvalue\n      dup1\n      iszero\n      tag_7\n      jumpi\n      0x00\n      dup1\n      revert\n    tag_7:\n      pop\n      tag_8\n      0x04\n      dup1\n      calldatasize\n      sub\n      dup2\n      add\n      swap1\n      tag_9\n      swap2\n      swap1\n      tag_10\n      jump\t// in\n    tag_9:\n      tag_11\n      jump\t// in\n    tag_8:\n      stop\n        /* \"Donation2.sol\":805:1200  function donate(uint _value, address _beneficiary) public payable {... */\n    tag_3:\n      tag_12\n      0x04\n      dup1\n      calldatasize\n      sub\n      dup2\n      add\n      swap1\n      tag_13\n      swap2\n      swap1\n      tag_14\n      jump\t// in\n    tag_13:\n      tag_15\n      jump\t// in\n    tag_12:\n      stop\n        /* \"Donation2.sol\":354:402  mapping(address=>Beneficiary) public beneficiary */\n    tag_4:\n      callvalue\n      dup1\n      iszero\n      tag_16\n      jumpi\n      0x00\n      dup1\n      revert\n    tag_16:\n      pop\n      tag_17\n      0x04\n      dup1\n      calldatasize\n      sub\n      dup2\n      add\n      swap1\n      tag_18\n      swap2\n      swap1\n      tag_19\n      jump\t// in\n    tag_18:\n      tag_20\n      jump\t// in\n    tag_17:\n      mload(0x40)\n      tag_21\n      swap5\n      swap4\n      swap3\n      swap2\n      swap1\n      tag_22\n      jump\t// in\n    tag_21:\n      mload(0x40)\n      dup1\n      swap2\n      sub\n      swap1\n      return\n        /* \"Donation2.sol\":461:501  mapping(address=>Donator) public donator */\n    tag_5:\n      callvalue\n      dup1\n      iszero\n      tag_23\n      jumpi\n      0x00\n      dup1\n      revert\n    tag_23:\n      pop\n      tag_24\n      0x04\n      dup1\n      calldatasize\n      sub\n      dup2\n      add\n      swap1\n      tag_25\n      swap2\n      swap1\n      tag_19\n      jump\t// in\n    tag_25:\n      tag_26\n      jump\t// in\n    tag_24:\n      mload(0x40)\n      tag_27\n      swap3\n      swap2\n      swap1\n      tag_28\n      jump\t// in\n    tag_27:\n      mload(0x40)\n      dup1\n      swap2\n      sub\n      swap1\n      return\n        /* \"Donation2.sol\":411:452  mapping(address=>address) public donation */\n    tag_6:\n      callvalue\n      dup1\n      iszero\n      tag_29\n      jumpi\n      0x00\n      dup1\n      revert\n    tag_29:\n      pop\n      tag_30\n      0x04\n      dup1\n      calldatasize\n      sub\n      dup2\n      add\n      swap1\n      tag_31\n      swap2\n      swap1\n      tag_19\n      jump\t// in\n    tag_31:\n      tag_32\n      jump\t// in\n    tag_30:\n      mload(0x40)\n      tag_33\n      swap2\n      swap1\n      tag_34\n      jump\t// in\n    tag_33:\n      mload(0x40)\n      dup1\n      swap2\n      sub\n      swap1\n      return\n        /* \"Donation2.sol\":562:758  function setBeneficiary(string memory _type) public {... */\n    tag_11:\n        /* \"Donation2.sol\":667:671  true */\n      0x01\n        /* \"Donation2.sol\":633:671  beneficiary[msg.sender].isApply !=true */\n      iszero\n      iszero\n        /* \"Donation2.sol\":633:644  beneficiary */\n      0x00\n        /* \"Donation2.sol\":633:656  beneficiary[msg.sender] */\n      dup1\n        /* \"Donation2.sol\":645:655  msg.sender */\n      caller\n        /* \"Donation2.sol\":633:656  beneficiary[msg.sender] */\n      0xffffffffffffffffffffffffffffffffffffffff\n      and\n      0xffffffffffffffffffffffffffffffffffffffff\n      and\n      dup2\n      mstore\n      0x20\n      add\n      swap1\n      dup2\n      mstore\n      0x20\n      add\n      0x00\n      keccak256\n        /* \"Donation2.sol\":633:664  beneficiary[msg.sender].isApply */\n      0x03\n      add\n      0x00\n      swap1\n      sload\n      swap1\n      0x0100\n      exp\n      swap1\n      div\n      0xff\n      and\n        /* \"Donation2.sol\":633:671  beneficiary[msg.sender].isApply !=true */\n      iszero\n      iszero\n      sub\n        /* \"Donation2.sol\":625:672  require(beneficiary[msg.sender].isApply !=true) */\n      tag_36\n      jumpi\n      0x00\n      dup1\n      revert\n    tag_36:\n        /* \"Donation2.sol\":709:750  Beneficiary(block.timestamp,0,_type,true) */\n      mload(0x40)\n      dup1\n      0x80\n      add\n      0x40\n      mstore\n      dup1\n        /* \"Donation2.sol\":721:736  block.timestamp */\n      timestamp\n        /* \"Donation2.sol\":709:750  Beneficiary(block.timestamp,0,_type,true) */\n      dup2\n      mstore\n      0x20\n      add\n        /* \"Donation2.sol\":737:738  0 */\n      0x00\n        /* \"Donation2.sol\":709:750  Beneficiary(block.timestamp,0,_type,true) */\n      dup2\n      mstore\n      0x20\n      add\n        /* \"Donation2.sol\":739:744  _type */\n      dup3\n        /* \"Donation2.sol\":709:750  Beneficiary(block.timestamp,0,_type,true) */\n      dup2\n      mstore\n      0x20\n      add\n        /* \"Donation2.sol\":745:749  true */\n      0x01\n        /* \"Donation2.sol\":709:750  Beneficiary(block.timestamp,0,_type,true) */\n      iszero\n      iszero\n      dup2\n      mstore\n      pop\n        /* \"Donation2.sol\":683:694  beneficiary */\n      0x00\n        /* \"Donation2.sol\":683:706  beneficiary[msg.sender] */\n      dup1\n        /* \"Donation2.sol\":695:705  msg.sender */\n      caller\n        /* \"Donation2.sol\":683:706  beneficiary[msg.sender] */\n      0xffffffffffffffffffffffffffffffffffffffff\n      and\n      0xffffffffffffffffffffffffffffffffffffffff\n      and\n      dup2\n      mstore\n      0x20\n      add\n      swap1\n      dup2\n      mstore\n      0x20\n      add\n      0x00\n      keccak256\n        /* \"Donation2.sol\":683:750  beneficiary[msg.sender] = Beneficiary(block.timestamp,0,_type,true) */\n      0x00\n      dup3\n      add\n      mload\n      dup2\n      0x00\n      add\n      sstore\n      0x20\n      dup3\n      add\n      mload\n      dup2\n      0x01\n      add\n      sstore\n      0x40\n      dup3\n      add\n      mload\n      dup2\n      0x02\n      add\n      swap1\n      dup2\n      tag_37\n      swap2\n      swap1\n      tag_38\n      jump\t// in\n    tag_37:\n      pop\n      0x60\n      dup3\n      add\n      mload\n      dup2\n      0x03\n      add\n      exp(0x0100, 0x00)\n      dup2\n      sload\n      dup2\n      0xff\n      mul\n      not\n      and\n      swap1\n      dup4\n      iszero\n      iszero\n      mul\n      or\n      swap1\n      sstore\n      pop\n      swap1\n      pop\n      pop\n        /* \"Donation2.sol\":562:758  function setBeneficiary(string memory _type) public {... */\n      pop\n      jump\t// out\n        /* \"Donation2.sol\":805:1200  function donate(uint _value, address _beneficiary) public payable {... */\n    tag_15:\n        /* \"Donation2.sol\":902:908  _value */\n      dup2\n        /* \"Donation2.sol\":890:899  msg.value */\n      callvalue\n        /* \"Donation2.sol\":890:908  msg.value >=_value */\n      lt\n      iszero\n        /* \"Donation2.sol\":882:909  require(msg.value >=_value) */\n      tag_40\n      jumpi\n      0x00\n      dup1\n      revert\n    tag_40:\n        /* \"Donation2.sol\":943:955  _beneficiary */\n      dup1\n        /* \"Donation2.sol\":920:928  donation */\n      0x01\n        /* \"Donation2.sol\":920:940  donation[msg.sender] */\n      0x00\n        /* \"Donation2.sol\":929:939  msg.sender */\n      caller\n        /* \"Donation2.sol\":920:940  donation[msg.sender] */\n      0xffffffffffffffffffffffffffffffffffffffff\n      and\n      0xffffffffffffffffffffffffffffffffffffffff\n      and\n      dup2\n      mstore\n      0x20\n      add\n      swap1\n      dup2\n      mstore\n      0x20\n      add\n      0x00\n      keccak256\n      0x00\n        /* \"Donation2.sol\":920:955  donation[msg.sender] = _beneficiary */\n      0x0100\n      exp\n      dup2\n      sload\n      dup2\n      0xffffffffffffffffffffffffffffffffffffffff\n      mul\n      not\n      and\n      swap1\n      dup4\n      0xffffffffffffffffffffffffffffffffffffffff\n      and\n      mul\n      or\n      swap1\n      sstore\n      pop\n        /* \"Donation2.sol\":1002:1008  _value */\n      dup2\n        /* \"Donation2.sol\":966:977  beneficiary */\n      0x00\n        /* \"Donation2.sol\":966:991  beneficiary[_beneficiary] */\n      dup1\n        /* \"Donation2.sol\":978:990  _beneficiary */\n      dup4\n        /* \"Donation2.sol\":966:991  beneficiary[_beneficiary] */\n      0xffffffffffffffffffffffffffffffffffffffff\n      and\n      0xffffffffffffffffffffffffffffffffffffffff\n      and\n      dup2\n      mstore\n      0x20\n      add\n      swap1\n      dup2\n      mstore\n      0x20\n      add\n      0x00\n      keccak256\n        /* \"Donation2.sol\":966:998  beneficiary[_beneficiary].amount */\n      0x01\n      add\n      0x00\n        /* \"Donation2.sol\":966:1008  beneficiary[_beneficiary].amount += _value */\n      dup3\n      dup3\n      sload\n      tag_41\n      swap2\n      swap1\n      tag_42\n      jump\t// in\n    tag_41:\n      swap3\n      pop\n      pop\n      dup2\n      swap1\n      sstore\n      pop\n        /* \"Donation2.sol\":1021:1028  donator */\n      0x02\n        /* \"Donation2.sol\":1021:1040  donator[msg.sender] */\n      0x00\n        /* \"Donation2.sol\":1029:1039  msg.sender */\n      caller\n        /* \"Donation2.sol\":1021:1040  donator[msg.sender] */\n      0xffffffffffffffffffffffffffffffffffffffff\n      and\n      0xffffffffffffffffffffffffffffffffffffffff\n      and\n      dup2\n      mstore\n      0x20\n      add\n      swap1\n      dup2\n      mstore\n      0x20\n      add\n      0x00\n      keccak256\n        /* \"Donation2.sol\":1021:1056  donator[msg.sender].beneficiaryAddr */\n      0x02\n      add\n        /* \"Donation2.sol\":1062:1074  _beneficiary */\n      dup2\n        /* \"Donation2.sol\":1021:1075  donator[msg.sender].beneficiaryAddr.push(_beneficiary) */\n      swap1\n      dup1\n      0x01\n      dup2\n      sload\n      add\n      dup1\n      dup3\n      sstore\n      dup1\n      swap2\n      pop\n      pop\n      0x01\n      swap1\n      sub\n      swap1\n      0x00\n      mstore\n      keccak256(0x00, 0x20)\n      add\n      0x00\n      swap1\n      swap2\n      swap1\n      swap2\n      swap1\n      swap2\n      0x0100\n      exp\n      dup2\n      sload\n      dup2\n      0xffffffffffffffffffffffffffffffffffffffff\n      mul\n      not\n      and\n      swap1\n      dup4\n      0xffffffffffffffffffffffffffffffffffffffff\n      and\n      mul\n      or\n      swap1\n      sstore\n      pop\n        /* \"Donation2.sol\":1119:1134  block.timestamp */\n      timestamp\n        /* \"Donation2.sol\":1086:1093  donator */\n      0x02\n        /* \"Donation2.sol\":1086:1105  donator[msg.sender] */\n      0x00\n        /* \"Donation2.sol\":1094:1104  msg.sender */\n      caller\n        /* \"Donation2.sol\":1086:1105  donator[msg.sender] */\n      0xffffffffffffffffffffffffffffffffffffffff\n      and\n      0xffffffffffffffffffffffffffffffffffffffff\n      and\n      dup2\n      mstore\n      0x20\n      add\n      swap1\n      dup2\n      mstore\n      0x20\n      add\n      0x00\n      keccak256\n        /* \"Donation2.sol\":1086:1116  donator[msg.sender].donateDate */\n      0x00\n      add\n        /* \"Donation2.sol\":1086:1134  donator[msg.sender].donateDate = block.timestamp */\n      dup2\n      swap1\n      sstore\n      pop\n        /* \"Donation2.sol\":1186:1192  _value */\n      dup2\n        /* \"Donation2.sol\":1145:1152  donator */\n      0x02\n        /* \"Donation2.sol\":1145:1164  donator[msg.sender] */\n      0x00\n        /* \"Donation2.sol\":1153:1163  msg.sender */\n      caller\n        /* \"Donation2.sol\":1145:1164  donator[msg.sender] */\n      0xffffffffffffffffffffffffffffffffffffffff\n      and\n      0xffffffffffffffffffffffffffffffffffffffff\n      and\n      dup2\n      mstore\n      0x20\n      add\n      swap1\n      dup2\n      mstore\n      0x20\n      add\n      0x00\n      keccak256\n        /* \"Donation2.sol\":1145:1184  donator[msg.sender].totalDonationAmount */\n      0x01\n      add\n      0x00\n        /* \"Donation2.sol\":1145:1192  donator[msg.sender].totalDonationAmount+=_value */\n      dup3\n      dup3\n      sload\n      tag_44\n      swap2\n      swap1\n      tag_42\n      jump\t// in\n    tag_44:\n      swap3\n      pop\n      pop\n      dup2\n      swap1\n      sstore\n      pop\n        /* \"Donation2.sol\":805:1200  function donate(uint _value, address _beneficiary) public payable {... */\n      pop\n      pop\n      jump\t// out\n        /* \"Donation2.sol\":354:402  mapping(address=>Beneficiary) public beneficiary */\n    tag_20:\n      mstore(0x20, 0x00)\n      dup1\n      0x00\n      mstore\n      keccak256(0x00, 0x40)\n      0x00\n      swap2\n      pop\n      swap1\n      pop\n      dup1\n      0x00\n      add\n      sload\n      swap1\n      dup1\n      0x01\n      add\n      sload\n      swap1\n      dup1\n      0x02\n      add\n      dup1\n      sload\n      tag_45\n      swap1\n      tag_46\n      jump\t// in\n    tag_45:\n      dup1\n      0x1f\n      add\n      0x20\n      dup1\n      swap2\n      div\n      mul\n      0x20\n      add\n      mload(0x40)\n      swap1\n      dup2\n      add\n      0x40\n      mstore\n      dup1\n      swap3\n      swap2\n      swap1\n      dup2\n      dup2\n      mstore\n      0x20\n      add\n      dup3\n      dup1\n      sload\n      tag_47\n      swap1\n      tag_46\n      jump\t// in\n    tag_47:\n      dup1\n      iszero\n      tag_48\n      jumpi\n      dup1\n      0x1f\n      lt\n      tag_49\n      jumpi\n      0x0100\n      dup1\n      dup4\n      sload\n      div\n      mul\n      dup4\n      mstore\n      swap2\n      0x20\n      add\n      swap2\n      jump(tag_48)\n    tag_49:\n      dup3\n      add\n      swap2\n      swap1\n      0x00\n      mstore\n      keccak256(0x00, 0x20)\n      swap1\n    tag_50:\n      dup2\n      sload\n      dup2\n      mstore\n      swap1\n      0x01\n      add\n      swap1\n      0x20\n      add\n      dup1\n      dup4\n      gt\n      tag_50\n      jumpi\n      dup3\n      swap1\n      sub\n      0x1f\n      and\n      dup3\n      add\n      swap2\n    tag_48:\n      pop\n      pop\n      pop\n      pop\n      pop\n      swap1\n      dup1\n      0x03\n      add\n      0x00\n      swap1\n      sload\n      swap1\n      0x0100\n      exp\n      swap1\n      div\n      0xff\n      and\n      swap1\n      pop\n      dup5\n      jump\t// out\n        /* \"Donation2.sol\":461:501  mapping(address=>Donator) public donator */\n    tag_26:\n      mstore(0x20, 0x02)\n      dup1\n      0x00\n      mstore\n      keccak256(0x00, 0x40)\n      0x00\n      swap2\n      pop\n      swap1\n      pop\n      dup1\n      0x00\n      add\n      sload\n      swap1\n      dup1\n      0x01\n      add\n      sload\n      swap1\n      pop\n      dup3\n      jump\t// out\n        /* \"Donation2.sol\":411:452  mapping(address=>address) public donation */\n    tag_32:\n      mstore(0x20, 0x01)\n      dup1\n      0x00\n      mstore\n      keccak256(0x00, 0x40)\n      0x00\n      swap2\n      pop\n      sload\n      swap1\n      0x0100\n      exp\n      swap1\n      div\n      0xffffffffffffffffffffffffffffffffffffffff\n      and\n      dup2\n      jump\t// out\n        /* \"#utility.yul\":7:82   */\n    tag_51:\n        /* \"#utility.yul\":40:46   */\n      0x00\n        /* \"#utility.yul\":73:75   */\n      0x40\n        /* \"#utility.yul\":67:76   */\n      mload\n        /* \"#utility.yul\":57:76   */\n      swap1\n      pop\n        /* \"#utility.yul\":7:82   */\n      swap1\n      jump\t// out\n        /* \"#utility.yul\":88:205   */\n    tag_52:\n        /* \"#utility.yul\":197:198   */\n      0x00\n        /* \"#utility.yul\":194:195   */\n      dup1\n        /* \"#utility.yul\":187:199   */\n      revert\n        /* \"#utility.yul\":211:328   */\n    tag_53:\n        /* \"#utility.yul\":320:321   */\n      0x00\n        /* \"#utility.yul\":317:318   */\n      dup1\n        /* \"#utility.yul\":310:322   */\n      revert\n        /* \"#utility.yul\":334:451   */\n    tag_54:\n        /* \"#utility.yul\":443:444   */\n      0x00\n        /* \"#utility.yul\":440:441   */\n      dup1\n        /* \"#utility.yul\":433:445   */\n      revert\n        /* \"#utility.yul\":457:574   */\n    tag_55:\n        /* \"#utility.yul\":566:567   */\n      0x00\n        /* \"#utility.yul\":563:564   */\n      dup1\n        /* \"#utility.yul\":556:568   */\n      revert\n        /* \"#utility.yul\":580:682   */\n    tag_56:\n        /* \"#utility.yul\":621:627   */\n      0x00\n        /* \"#utility.yul\":672:674   */\n      0x1f\n        /* \"#utility.yul\":668:675   */\n      not\n        /* \"#utility.yul\":663:665   */\n      0x1f\n        /* \"#utility.yul\":656:661   */\n      dup4\n        /* \"#utility.yul\":652:666   */\n      add\n        /* \"#utility.yul\":648:676   */\n      and\n        /* \"#utility.yul\":638:676   */\n      swap1\n      pop\n        /* \"#utility.yul\":580:682   */\n      swap2\n      swap1\n      pop\n      jump\t// out\n        /* \"#utility.yul\":688:868   */\n    tag_57:\n        /* \"#utility.yul\":736:813   */\n      0x4e487b7100000000000000000000000000000000000000000000000000000000\n        /* \"#utility.yul\":733:734   */\n      0x00\n        /* \"#utility.yul\":726:814   */\n      mstore\n        /* \"#utility.yul\":833:837   */\n      0x41\n        /* \"#utility.yul\":830:831   */\n      0x04\n        /* \"#utility.yul\":823:838   */\n      mstore\n        /* \"#utility.yul\":857:861   */\n      0x24\n        /* \"#utility.yul\":854:855   */\n      0x00\n        /* \"#utility.yul\":847:862   */\n      revert\n        /* \"#utility.yul\":874:1155   */\n    tag_58:\n        /* \"#utility.yul\":957:984   */\n      tag_105\n        /* \"#utility.yul\":979:983   */\n      dup3\n        /* \"#utility.yul\":957:984   */\n      tag_56\n      jump\t// in\n    tag_105:\n        /* \"#utility.yul\":949:955   */\n      dup2\n        /* \"#utility.yul\":945:985   */\n      add\n        /* \"#utility.yul\":1087:1093   */\n      dup2\n        /* \"#utility.yul\":1075:1085   */\n      dup2\n        /* \"#utility.yul\":1072:1094   */\n      lt\n        /* \"#utility.yul\":1051:1069   */\n      0xffffffffffffffff\n        /* \"#utility.yul\":1039:1049   */\n      dup3\n        /* \"#utility.yul\":1036:1070   */\n      gt\n        /* \"#utility.yul\":1033:1095   */\n      or\n        /* \"#utility.yul\":1030:1118   */\n      iszero\n      tag_106\n      jumpi\n        /* \"#utility.yul\":1098:1116   */\n      tag_107\n      tag_57\n      jump\t// in\n    tag_107:\n        /* \"#utility.yul\":1030:1118   */\n    tag_106:\n        /* \"#utility.yul\":1138:1148   */\n      dup1\n        /* \"#utility.yul\":1134:1136   */\n      0x40\n        /* \"#utility.yul\":1127:1149   */\n      mstore\n        /* \"#utility.yul\":917:1155   */\n      pop\n        /* \"#utility.yul\":874:1155   */\n      pop\n      pop\n      jump\t// out\n        /* \"#utility.yul\":1161:1290   */\n    tag_59:\n        /* \"#utility.yul\":1195:1201   */\n      0x00\n        /* \"#utility.yul\":1222:1242   */\n      tag_109\n      tag_51\n      jump\t// in\n    tag_109:\n        /* \"#utility.yul\":1212:1242   */\n      swap1\n      pop\n        /* \"#utility.yul\":1251:1284   */\n      tag_110\n        /* \"#utility.yul\":1279:1283   */\n      dup3\n        /* \"#utility.yul\":1271:1277   */\n      dup3\n        /* \"#utility.yul\":1251:1284   */\n      tag_58\n      jump\t// in\n    tag_110:\n        /* \"#utility.yul\":1161:1290   */\n      swap2\n      swap1\n      pop\n      jump\t// out\n        /* \"#utility.yul\":1296:1604   */\n    tag_60:\n        /* \"#utility.yul\":1358:1362   */\n      0x00\n        /* \"#utility.yul\":1448:1466   */\n      0xffffffffffffffff\n        /* \"#utility.yul\":1440:1446   */\n      dup3\n        /* \"#utility.yul\":1437:1467   */\n      gt\n        /* \"#utility.yul\":1434:1490   */\n      iszero\n      tag_112\n      jumpi\n        /* \"#utility.yul\":1470:1488   */\n      tag_113\n      tag_57\n      jump\t// in\n    tag_113:\n        /* \"#utility.yul\":1434:1490   */\n    tag_112:\n        /* \"#utility.yul\":1508:1537   */\n      tag_114\n        /* \"#utility.yul\":1530:1536   */\n      dup3\n        /* \"#utility.yul\":1508:1537   */\n      tag_56\n      jump\t// in\n    tag_114:\n        /* \"#utility.yul\":1500:1537   */\n      swap1\n      pop\n        /* \"#utility.yul\":1592:1596   */\n      0x20\n        /* \"#utility.yul\":1586:1590   */\n      dup2\n        /* \"#utility.yul\":1582:1597   */\n      add\n        /* \"#utility.yul\":1574:1597   */\n      swap1\n      pop\n        /* \"#utility.yul\":1296:1604   */\n      swap2\n      swap1\n      pop\n      jump\t// out\n        /* \"#utility.yul\":1610:1756   */\n    tag_61:\n        /* \"#utility.yul\":1707:1713   */\n      dup3\n        /* \"#utility.yul\":1702:1705   */\n      dup2\n        /* \"#utility.yul\":1697:1700   */\n      dup4\n        /* \"#utility.yul\":1684:1714   */\n      calldatacopy\n        /* \"#utility.yul\":1748:1749   */\n      0x00\n        /* \"#utility.yul\":1739:1745   */\n      dup4\n        /* \"#utility.yul\":1734:1737   */\n      dup4\n        /* \"#utility.yul\":1730:1746   */\n      add\n        /* \"#utility.yul\":1723:1750   */\n      mstore\n        /* \"#utility.yul\":1610:1756   */\n      pop\n      pop\n      pop\n      jump\t// out\n        /* \"#utility.yul\":1762:2187   */\n    tag_62:\n        /* \"#utility.yul\":1840:1845   */\n      0x00\n        /* \"#utility.yul\":1865:1931   */\n      tag_117\n        /* \"#utility.yul\":1881:1930   */\n      tag_118\n        /* \"#utility.yul\":1923:1929   */\n      dup5\n        /* \"#utility.yul\":1881:1930   */\n      tag_60\n      jump\t// in\n    tag_118:\n        /* \"#utility.yul\":1865:1931   */\n      tag_59\n      jump\t// in\n    tag_117:\n        /* \"#utility.yul\":1856:1931   */\n      swap1\n      pop\n        /* \"#utility.yul\":1954:1960   */\n      dup3\n        /* \"#utility.yul\":1947:1952   */\n      dup2\n        /* \"#utility.yul\":1940:1961   */\n      mstore\n        /* \"#utility.yul\":1992:1996   */\n      0x20\n        /* \"#utility.yul\":1985:1990   */\n      dup2\n        /* \"#utility.yul\":1981:1997   */\n      add\n        /* \"#utility.yul\":2030:2033   */\n      dup5\n        /* \"#utility.yul\":2021:2027   */\n      dup5\n        /* \"#utility.yul\":2016:2019   */\n      dup5\n        /* \"#utility.yul\":2012:2028   */\n      add\n        /* \"#utility.yul\":2009:2034   */\n      gt\n        /* \"#utility.yul\":2006:2118   */\n      iszero\n      tag_119\n      jumpi\n        /* \"#utility.yul\":2037:2116   */\n      tag_120\n      tag_55\n      jump\t// in\n    tag_120:\n        /* \"#utility.yul\":2006:2118   */\n    tag_119:\n        /* \"#utility.yul\":2127:2181   */\n      tag_121\n        /* \"#utility.yul\":2174:2180   */\n      dup5\n        /* \"#utility.yul\":2169:2172   */\n      dup3\n        /* \"#utility.yul\":2164:2167   */\n      dup6\n        /* \"#utility.yul\":2127:2181   */\n      tag_61\n      jump\t// in\n    tag_121:\n        /* \"#utility.yul\":1846:2187   */\n      pop\n        /* \"#utility.yul\":1762:2187   */\n      swap4\n      swap3\n      pop\n      pop\n      pop\n      jump\t// out\n        /* \"#utility.yul\":2207:2547   */\n    tag_63:\n        /* \"#utility.yul\":2263:2268   */\n      0x00\n        /* \"#utility.yul\":2312:2315   */\n      dup3\n        /* \"#utility.yul\":2305:2309   */\n      0x1f\n        /* \"#utility.yul\":2297:2303   */\n      dup4\n        /* \"#utility.yul\":2293:2310   */\n      add\n        /* \"#utility.yul\":2289:2316   */\n      slt\n        /* \"#utility.yul\":2279:2401   */\n      tag_123\n      jumpi\n        /* \"#utility.yul\":2320:2399   */\n      tag_124\n      tag_54\n      jump\t// in\n    tag_124:\n        /* \"#utility.yul\":2279:2401   */\n    tag_123:\n        /* \"#utility.yul\":2437:2443   */\n      dup2\n        /* \"#utility.yul\":2424:2444   */\n      calldataload\n        /* \"#utility.yul\":2462:2541   */\n      tag_125\n        /* \"#utility.yul\":2537:2540   */\n      dup5\n        /* \"#utility.yul\":2529:2535   */\n      dup3\n        /* \"#utility.yul\":2522:2526   */\n      0x20\n        /* \"#utility.yul\":2514:2520   */\n      dup7\n        /* \"#utility.yul\":2510:2527   */\n      add\n        /* \"#utility.yul\":2462:2541   */\n      tag_62\n      jump\t// in\n    tag_125:\n        /* \"#utility.yul\":2453:2541   */\n      swap2\n      pop\n        /* \"#utility.yul\":2269:2547   */\n      pop\n        /* \"#utility.yul\":2207:2547   */\n      swap3\n      swap2\n      pop\n      pop\n      jump\t// out\n        /* \"#utility.yul\":2553:3062   */\n    tag_10:\n        /* \"#utility.yul\":2622:2628   */\n      0x00\n        /* \"#utility.yul\":2671:2673   */\n      0x20\n        /* \"#utility.yul\":2659:2668   */\n      dup3\n        /* \"#utility.yul\":2650:2657   */\n      dup5\n        /* \"#utility.yul\":2646:2669   */\n      sub\n        /* \"#utility.yul\":2642:2674   */\n      slt\n        /* \"#utility.yul\":2639:2758   */\n      iszero\n      tag_127\n      jumpi\n        /* \"#utility.yul\":2677:2756   */\n      tag_128\n      tag_52\n      jump\t// in\n    tag_128:\n        /* \"#utility.yul\":2639:2758   */\n    tag_127:\n        /* \"#utility.yul\":2825:2826   */\n      0x00\n        /* \"#utility.yul\":2814:2823   */\n      dup3\n        /* \"#utility.yul\":2810:2827   */\n      add\n        /* \"#utility.yul\":2797:2828   */\n      calldataload\n        /* \"#utility.yul\":2855:2873   */\n      0xffffffffffffffff\n        /* \"#utility.yul\":2847:2853   */\n      dup2\n        /* \"#utility.yul\":2844:2874   */\n      gt\n        /* \"#utility.yul\":2841:2958   */\n      iszero\n      tag_129\n      jumpi\n        /* \"#utility.yul\":2877:2956   */\n      tag_130\n      tag_53\n      jump\t// in\n    tag_130:\n        /* \"#utility.yul\":2841:2958   */\n    tag_129:\n        /* \"#utility.yul\":2982:3045   */\n      tag_131\n        /* \"#utility.yul\":3037:3044   */\n      dup5\n        /* \"#utility.yul\":3028:3034   */\n      dup3\n        /* \"#utility.yul\":3017:3026   */\n      dup6\n        /* \"#utility.yul\":3013:3035   */\n      add\n        /* \"#utility.yul\":2982:3045   */\n      tag_63\n      jump\t// in\n    tag_131:\n        /* \"#utility.yul\":2972:3045   */\n      swap2\n      pop\n        /* \"#utility.yul\":2768:3055   */\n      pop\n        /* \"#utility.yul\":2553:3062   */\n      swap3\n      swap2\n      pop\n      pop\n      jump\t// out\n        /* \"#utility.yul\":3068:3145   */\n    tag_64:\n        /* \"#utility.yul\":3105:3112   */\n      0x00\n        /* \"#utility.yul\":3134:3139   */\n      dup2\n        /* \"#utility.yul\":3123:3139   */\n      swap1\n      pop\n        /* \"#utility.yul\":3068:3145   */\n      swap2\n      swap1\n      pop\n      jump\t// out\n        /* \"#utility.yul\":3151:3273   */\n    tag_65:\n        /* \"#utility.yul\":3224:3248   */\n      tag_134\n        /* \"#utility.yul\":3242:3247   */\n      dup2\n        /* \"#utility.yul\":3224:3248   */\n      tag_64\n      jump\t// in\n    tag_134:\n        /* \"#utility.yul\":3217:3222   */\n      dup2\n        /* \"#utility.yul\":3214:3249   */\n      eq\n        /* \"#utility.yul\":3204:3267   */\n      tag_135\n      jumpi\n        /* \"#utility.yul\":3263:3264   */\n      0x00\n        /* \"#utility.yul\":3260:3261   */\n      dup1\n        /* \"#utility.yul\":3253:3265   */\n      revert\n        /* \"#utility.yul\":3204:3267   */\n    tag_135:\n        /* \"#utility.yul\":3151:3273   */\n      pop\n      jump\t// out\n        /* \"#utility.yul\":3279:3418   */\n    tag_66:\n        /* \"#utility.yul\":3325:3330   */\n      0x00\n        /* \"#utility.yul\":3363:3369   */\n      dup2\n        /* \"#utility.yul\":3350:3370   */\n      calldataload\n        /* \"#utility.yul\":3341:3370   */\n      swap1\n      pop\n        /* \"#utility.yul\":3379:3412   */\n      tag_137\n        /* \"#utility.yul\":3406:3411   */\n      dup2\n        /* \"#utility.yul\":3379:3412   */\n      tag_65\n      jump\t// in\n    tag_137:\n        /* \"#utility.yul\":3279:3418   */\n      swap3\n      swap2\n      pop\n      pop\n      jump\t// out\n        /* \"#utility.yul\":3424:3550   */\n    tag_67:\n        /* \"#utility.yul\":3461:3468   */\n      0x00\n        /* \"#utility.yul\":3501:3543   */\n      0xffffffffffffffffffffffffffffffffffffffff\n        /* \"#utility.yul\":3494:3499   */\n      dup3\n        /* \"#utility.yul\":3490:3544   */\n      and\n        /* \"#utility.yul\":3479:3544   */\n      swap1\n      pop\n        /* \"#utility.yul\":3424:3550   */\n      swap2\n      swap1\n      pop\n      jump\t// out\n        /* \"#utility.yul\":3556:3652   */\n    tag_68:\n        /* \"#utility.yul\":3593:3600   */\n      0x00\n        /* \"#utility.yul\":3622:3646   */\n      tag_140\n        /* \"#utility.yul\":3640:3645   */\n      dup3\n        /* \"#utility.yul\":3622:3646   */\n      tag_67\n      jump\t// in\n    tag_140:\n        /* \"#utility.yul\":3611:3646   */\n      swap1\n      pop\n        /* \"#utility.yul\":3556:3652   */\n      swap2\n      swap1\n      pop\n      jump\t// out\n        /* \"#utility.yul\":3658:3780   */\n    tag_69:\n        /* \"#utility.yul\":3731:3755   */\n      tag_142\n        /* \"#utility.yul\":3749:3754   */\n      dup2\n        /* \"#utility.yul\":3731:3755   */\n      tag_68\n      jump\t// in\n    tag_142:\n        /* \"#utility.yul\":3724:3729   */\n      dup2\n        /* \"#utility.yul\":3721:3756   */\n      eq\n        /* \"#utility.yul\":3711:3774   */\n      tag_143\n      jumpi\n        /* \"#utility.yul\":3770:3771   */\n      0x00\n        /* \"#utility.yul\":3767:3768   */\n      dup1\n        /* \"#utility.yul\":3760:3772   */\n      revert\n        /* \"#utility.yul\":3711:3774   */\n    tag_143:\n        /* \"#utility.yul\":3658:3780   */\n      pop\n      jump\t// out\n        /* \"#utility.yul\":3786:3925   */\n    tag_70:\n        /* \"#utility.yul\":3832:3837   */\n      0x00\n        /* \"#utility.yul\":3870:3876   */\n      dup2\n        /* \"#utility.yul\":3857:3877   */\n      calldataload\n        /* \"#utility.yul\":3848:3877   */\n      swap1\n      pop\n        /* \"#utility.yul\":3886:3919   */\n      tag_145\n        /* \"#utility.yul\":3913:3918   */\n      dup2\n        /* \"#utility.yul\":3886:3919   */\n      tag_69\n      jump\t// in\n    tag_145:\n        /* \"#utility.yul\":3786:3925   */\n      swap3\n      swap2\n      pop\n      pop\n      jump\t// out\n        /* \"#utility.yul\":3931:4405   */\n    tag_14:\n        /* \"#utility.yul\":3999:4005   */\n      0x00\n        /* \"#utility.yul\":4007:4013   */\n      dup1\n        /* \"#utility.yul\":4056:4058   */\n      0x40\n        /* \"#utility.yul\":4044:4053   */\n      dup4\n        /* \"#utility.yul\":4035:4042   */\n      dup6\n        /* \"#utility.yul\":4031:4054   */\n      sub\n        /* \"#utility.yul\":4027:4059   */\n      slt\n        /* \"#utility.yul\":4024:4143   */\n      iszero\n      tag_147\n      jumpi\n        /* \"#utility.yul\":4062:4141   */\n      tag_148\n      tag_52\n      jump\t// in\n    tag_148:\n        /* \"#utility.yul\":4024:4143   */\n    tag_147:\n        /* \"#utility.yul\":4182:4183   */\n      0x00\n        /* \"#utility.yul\":4207:4260   */\n      tag_149\n        /* \"#utility.yul\":4252:4259   */\n      dup6\n        /* \"#utility.yul\":4243:4249   */\n      dup3\n        /* \"#utility.yul\":4232:4241   */\n      dup7\n        /* \"#utility.yul\":4228:4250   */\n      add\n        /* \"#utility.yul\":4207:4260   */\n      tag_66\n      jump\t// in\n    tag_149:\n        /* \"#utility.yul\":4197:4260   */\n      swap3\n      pop\n        /* \"#utility.yul\":4153:4270   */\n      pop\n        /* \"#utility.yul\":4309:4311   */\n      0x20\n        /* \"#utility.yul\":4335:4388   */\n      tag_150\n        /* \"#utility.yul\":4380:4387   */\n      dup6\n        /* \"#utility.yul\":4371:4377   */\n      dup3\n        /* \"#utility.yul\":4360:4369   */\n      dup7\n        /* \"#utility.yul\":4356:4378   */\n      add\n        /* \"#utility.yul\":4335:4388   */\n      tag_70\n      jump\t// in\n    tag_150:\n        /* \"#utility.yul\":4325:4388   */\n      swap2\n      pop\n        /* \"#utility.yul\":4280:4398   */\n      pop\n        /* \"#utility.yul\":3931:4405   */\n      swap3\n      pop\n      swap3\n      swap1\n      pop\n      jump\t// out\n        /* \"#utility.yul\":4411:4740   */\n    tag_19:\n        /* \"#utility.yul\":4470:4476   */\n      0x00\n        /* \"#utility.yul\":4519:4521   */\n      0x20\n        /* \"#utility.yul\":4507:4516   */\n      dup3\n        /* \"#utility.yul\":4498:4505   */\n      dup5\n        /* \"#utility.yul\":4494:4517   */\n      sub\n        /* \"#utility.yul\":4490:4522   */\n      slt\n        /* \"#utility.yul\":4487:4606   */\n      iszero\n      tag_152\n      jumpi\n        /* \"#utility.yul\":4525:4604   */\n      tag_153\n      tag_52\n      jump\t// in\n    tag_153:\n        /* \"#utility.yul\":4487:4606   */\n    tag_152:\n        /* \"#utility.yul\":4645:4646   */\n      0x00\n        /* \"#utility.yul\":4670:4723   */\n      tag_154\n        /* \"#utility.yul\":4715:4722   */\n      dup5\n        /* \"#utility.yul\":4706:4712   */\n      dup3\n        /* \"#utility.yul\":4695:4704   */\n      dup6\n        /* \"#utility.yul\":4691:4713   */\n      add\n        /* \"#utility.yul\":4670:4723   */\n      tag_70\n      jump\t// in\n    tag_154:\n        /* \"#utility.yul\":4660:4723   */\n      swap2\n      pop\n        /* \"#utility.yul\":4616:4733   */\n      pop\n        /* \"#utility.yul\":4411:4740   */\n      swap3\n      swap2\n      pop\n      pop\n      jump\t// out\n        /* \"#utility.yul\":4746:4864   */\n    tag_71:\n        /* \"#utility.yul\":4833:4857   */\n      tag_156\n        /* \"#utility.yul\":4851:4856   */\n      dup2\n        /* \"#utility.yul\":4833:4857   */\n      tag_64\n      jump\t// in\n    tag_156:\n        /* \"#utility.yul\":4828:4831   */\n      dup3\n        /* \"#utility.yul\":4821:4858   */\n      mstore\n        /* \"#utility.yul\":4746:4864   */\n      pop\n      pop\n      jump\t// out\n        /* \"#utility.yul\":4870:4969   */\n    tag_72:\n        /* \"#utility.yul\":4922:4928   */\n      0x00\n        /* \"#utility.yul\":4956:4961   */\n      dup2\n        /* \"#utility.yul\":4950:4962   */\n      mload\n        /* \"#utility.yul\":4940:4962   */\n      swap1\n      pop\n        /* \"#utility.yul\":4870:4969   */\n      swap2\n      swap1\n      pop\n      jump\t// out\n        /* \"#utility.yul\":4975:5144   */\n    tag_73:\n        /* \"#utility.yul\":5059:5070   */\n      0x00\n        /* \"#utility.yul\":5093:5099   */\n      dup3\n        /* \"#utility.yul\":5088:5091   */\n      dup3\n        /* \"#utility.yul\":5081:5100   */\n      mstore\n        /* \"#utility.yul\":5133:5137   */\n      0x20\n        /* \"#utility.yul\":5128:5131   */\n      dup3\n        /* \"#utility.yul\":5124:5138   */\n      add\n        /* \"#utility.yul\":5109:5138   */\n      swap1\n      pop\n        /* \"#utility.yul\":4975:5144   */\n      swap3\n      swap2\n      pop\n      pop\n      jump\t// out\n        /* \"#utility.yul\":5150:5396   */\n    tag_74:\n        /* \"#utility.yul\":5231:5232   */\n      0x00\n        /* \"#utility.yul\":5241:5354   */\n    tag_160:\n        /* \"#utility.yul\":5255:5261   */\n      dup4\n        /* \"#utility.yul\":5252:5253   */\n      dup2\n        /* \"#utility.yul\":5249:5262   */\n      lt\n        /* \"#utility.yul\":5241:5354   */\n      iszero\n      tag_162\n      jumpi\n        /* \"#utility.yul\":5340:5341   */\n      dup1\n        /* \"#utility.yul\":5335:5338   */\n      dup3\n        /* \"#utility.yul\":5331:5342   */\n      add\n        /* \"#utility.yul\":5325:5343   */\n      mload\n        /* \"#utility.yul\":5321:5322   */\n      dup2\n        /* \"#utility.yul\":5316:5319   */\n      dup5\n        /* \"#utility.yul\":5312:5323   */\n      add\n        /* \"#utility.yul\":5305:5344   */\n      mstore\n        /* \"#utility.yul\":5277:5279   */\n      0x20\n        /* \"#utility.yul\":5274:5275   */\n      dup2\n        /* \"#utility.yul\":5270:5280   */\n      add\n        /* \"#utility.yul\":5265:5280   */\n      swap1\n      pop\n        /* \"#utility.yul\":5241:5354   */\n      jump(tag_160)\n    tag_162:\n        /* \"#utility.yul\":5388:5389   */\n      0x00\n        /* \"#utility.yul\":5379:5385   */\n      dup5\n        /* \"#utility.yul\":5374:5377   */\n      dup5\n        /* \"#utility.yul\":5370:5386   */\n      add\n        /* \"#utility.yul\":5363:5390   */\n      mstore\n        /* \"#utility.yul\":5212:5396   */\n      pop\n        /* \"#utility.yul\":5150:5396   */\n      pop\n      pop\n      pop\n      jump\t// out\n        /* \"#utility.yul\":5402:5779   */\n    tag_75:\n        /* \"#utility.yul\":5490:5493   */\n      0x00\n        /* \"#utility.yul\":5518:5557   */\n      tag_164\n        /* \"#utility.yul\":5551:5556   */\n      dup3\n        /* \"#utility.yul\":5518:5557   */\n      tag_72\n      jump\t// in\n    tag_164:\n        /* \"#utility.yul\":5573:5644   */\n      tag_165\n        /* \"#utility.yul\":5637:5643   */\n      dup2\n        /* \"#utility.yul\":5632:5635   */\n      dup6\n        /* \"#utility.yul\":5573:5644   */\n      tag_73\n      jump\t// in\n    tag_165:\n        /* \"#utility.yul\":5566:5644   */\n      swap4\n      pop\n        /* \"#utility.yul\":5653:5718   */\n      tag_166\n        /* \"#utility.yul\":5711:5717   */\n      dup2\n        /* \"#utility.yul\":5706:5709   */\n      dup6\n        /* \"#utility.yul\":5699:5703   */\n      0x20\n        /* \"#utility.yul\":5692:5697   */\n      dup7\n        /* \"#utility.yul\":5688:5704   */\n      add\n        /* \"#utility.yul\":5653:5718   */\n      tag_74\n      jump\t// in\n    tag_166:\n        /* \"#utility.yul\":5743:5772   */\n      tag_167\n        /* \"#utility.yul\":5765:5771   */\n      dup2\n        /* \"#utility.yul\":5743:5772   */\n      tag_56\n      jump\t// in\n    tag_167:\n        /* \"#utility.yul\":5738:5741   */\n      dup5\n        /* \"#utility.yul\":5734:5773   */\n      add\n        /* \"#utility.yul\":5727:5773   */\n      swap2\n      pop\n        /* \"#utility.yul\":5494:5779   */\n      pop\n        /* \"#utility.yul\":5402:5779   */\n      swap3\n      swap2\n      pop\n      pop\n      jump\t// out\n        /* \"#utility.yul\":5785:5875   */\n    tag_76:\n        /* \"#utility.yul\":5819:5826   */\n      0x00\n        /* \"#utility.yul\":5862:5867   */\n      dup2\n        /* \"#utility.yul\":5855:5868   */\n      iszero\n        /* \"#utility.yul\":5848:5869   */\n      iszero\n        /* \"#utility.yul\":5837:5869   */\n      swap1\n      pop\n        /* \"#utility.yul\":5785:5875   */\n      swap2\n      swap1\n      pop\n      jump\t// out\n        /* \"#utility.yul\":5881:5990   */\n    tag_77:\n        /* \"#utility.yul\":5962:5983   */\n      tag_170\n        /* \"#utility.yul\":5977:5982   */\n      dup2\n        /* \"#utility.yul\":5962:5983   */\n      tag_76\n      jump\t// in\n    tag_170:\n        /* \"#utility.yul\":5957:5960   */\n      dup3\n        /* \"#utility.yul\":5950:5984   */\n      mstore\n        /* \"#utility.yul\":5881:5990   */\n      pop\n      pop\n      jump\t// out\n        /* \"#utility.yul\":5996:6628   */\n    tag_22:\n        /* \"#utility.yul\":6187:6191   */\n      0x00\n        /* \"#utility.yul\":6225:6228   */\n      0x80\n        /* \"#utility.yul\":6214:6223   */\n      dup3\n        /* \"#utility.yul\":6210:6229   */\n      add\n        /* \"#utility.yul\":6202:6229   */\n      swap1\n      pop\n        /* \"#utility.yul\":6239:6310   */\n      tag_172\n        /* \"#utility.yul\":6307:6308   */\n      0x00\n        /* \"#utility.yul\":6296:6305   */\n      dup4\n        /* \"#utility.yul\":6292:6309   */\n      add\n        /* \"#utility.yul\":6283:6289   */\n      dup8\n        /* \"#utility.yul\":6239:6310   */\n      tag_71\n      jump\t// in\n    tag_172:\n        /* \"#utility.yul\":6320:6392   */\n      tag_173\n        /* \"#utility.yul\":6388:6390   */\n      0x20\n        /* \"#utility.yul\":6377:6386   */\n      dup4\n        /* \"#utility.yul\":6373:6391   */\n      add\n        /* \"#utility.yul\":6364:6370   */\n      dup7\n        /* \"#utility.yul\":6320:6392   */\n      tag_71\n      jump\t// in\n    tag_173:\n        /* \"#utility.yul\":6439:6448   */\n      dup2\n        /* \"#utility.yul\":6433:6437   */\n      dup2\n        /* \"#utility.yul\":6429:6449   */\n      sub\n        /* \"#utility.yul\":6424:6426   */\n      0x40\n        /* \"#utility.yul\":6413:6422   */\n      dup4\n        /* \"#utility.yul\":6409:6427   */\n      add\n        /* \"#utility.yul\":6402:6450   */\n      mstore\n        /* \"#utility.yul\":6467:6545   */\n      tag_174\n        /* \"#utility.yul\":6540:6544   */\n      dup2\n        /* \"#utility.yul\":6531:6537   */\n      dup6\n        /* \"#utility.yul\":6467:6545   */\n      tag_75\n      jump\t// in\n    tag_174:\n        /* \"#utility.yul\":6459:6545   */\n      swap1\n      pop\n        /* \"#utility.yul\":6555:6621   */\n      tag_175\n        /* \"#utility.yul\":6617:6619   */\n      0x60\n        /* \"#utility.yul\":6606:6615   */\n      dup4\n        /* \"#utility.yul\":6602:6620   */\n      add\n        /* \"#utility.yul\":6593:6599   */\n      dup5\n        /* \"#utility.yul\":6555:6621   */\n      tag_77\n      jump\t// in\n    tag_175:\n        /* \"#utility.yul\":5996:6628   */\n      swap6\n      swap5\n      pop\n      pop\n      pop\n      pop\n      pop\n      jump\t// out\n        /* \"#utility.yul\":6634:6966   */\n    tag_28:\n        /* \"#utility.yul\":6755:6759   */\n      0x00\n        /* \"#utility.yul\":6793:6795   */\n      0x40\n        /* \"#utility.yul\":6782:6791   */\n      dup3\n        /* \"#utility.yul\":6778:6796   */\n      add\n        /* \"#utility.yul\":6770:6796   */\n      swap1\n      pop\n        /* \"#utility.yul\":6806:6877   */\n      tag_177\n        /* \"#utility.yul\":6874:6875   */\n      0x00\n        /* \"#utility.yul\":6863:6872   */\n      dup4\n        /* \"#utility.yul\":6859:6876   */\n      add\n        /* \"#utility.yul\":6850:6856   */\n      dup6\n        /* \"#utility.yul\":6806:6877   */\n      tag_71\n      jump\t// in\n    tag_177:\n        /* \"#utility.yul\":6887:6959   */\n      tag_178\n        /* \"#utility.yul\":6955:6957   */\n      0x20\n        /* \"#utility.yul\":6944:6953   */\n      dup4\n        /* \"#utility.yul\":6940:6958   */\n      add\n        /* \"#utility.yul\":6931:6937   */\n      dup5\n        /* \"#utility.yul\":6887:6959   */\n      tag_71\n      jump\t// in\n    tag_178:\n        /* \"#utility.yul\":6634:6966   */\n      swap4\n      swap3\n      pop\n      pop\n      pop\n      jump\t// out\n        /* \"#utility.yul\":6972:7090   */\n    tag_78:\n        /* \"#utility.yul\":7059:7083   */\n      tag_180\n        /* \"#utility.yul\":7077:7082   */\n      dup2\n        /* \"#utility.yul\":7059:7083   */\n      tag_68\n      jump\t// in\n    tag_180:\n        /* \"#utility.yul\":7054:7057   */\n      dup3\n        /* \"#utility.yul\":7047:7084   */\n      mstore\n        /* \"#utility.yul\":6972:7090   */\n      pop\n      pop\n      jump\t// out\n        /* \"#utility.yul\":7096:7318   */\n    tag_34:\n        /* \"#utility.yul\":7189:7193   */\n      0x00\n        /* \"#utility.yul\":7227:7229   */\n      0x20\n        /* \"#utility.yul\":7216:7225   */\n      dup3\n        /* \"#utility.yul\":7212:7230   */\n      add\n        /* \"#utility.yul\":7204:7230   */\n      swap1\n      pop\n        /* \"#utility.yul\":7240:7311   */\n      tag_182\n        /* \"#utility.yul\":7308:7309   */\n      0x00\n        /* \"#utility.yul\":7297:7306   */\n      dup4\n        /* \"#utility.yul\":7293:7310   */\n      add\n        /* \"#utility.yul\":7284:7290   */\n      dup5\n        /* \"#utility.yul\":7240:7311   */\n      tag_78\n      jump\t// in\n    tag_182:\n        /* \"#utility.yul\":7096:7318   */\n      swap3\n      swap2\n      pop\n      pop\n      jump\t// out\n        /* \"#utility.yul\":7324:7504   */\n    tag_79:\n        /* \"#utility.yul\":7372:7449   */\n      0x4e487b7100000000000000000000000000000000000000000000000000000000\n        /* \"#utility.yul\":7369:7370   */\n      0x00\n        /* \"#utility.yul\":7362:7450   */\n      mstore\n        /* \"#utility.yul\":7469:7473   */\n      0x22\n        /* \"#utility.yul\":7466:7467   */\n      0x04\n        /* \"#utility.yul\":7459:7474   */\n      mstore\n        /* \"#utility.yul\":7493:7497   */\n      0x24\n        /* \"#utility.yul\":7490:7491   */\n      0x00\n        /* \"#utility.yul\":7483:7498   */\n      revert\n        /* \"#utility.yul\":7510:7830   */\n    tag_46:\n        /* \"#utility.yul\":7554:7560   */\n      0x00\n        /* \"#utility.yul\":7591:7592   */\n      0x02\n        /* \"#utility.yul\":7585:7589   */\n      dup3\n        /* \"#utility.yul\":7581:7593   */\n      div\n        /* \"#utility.yul\":7571:7593   */\n      swap1\n      pop\n        /* \"#utility.yul\":7638:7639   */\n      0x01\n        /* \"#utility.yul\":7632:7636   */\n      dup3\n        /* \"#utility.yul\":7628:7640   */\n      and\n        /* \"#utility.yul\":7659:7677   */\n      dup1\n        /* \"#utility.yul\":7649:7730   */\n      tag_185\n      jumpi\n        /* \"#utility.yul\":7715:7719   */\n      0x7f\n        /* \"#utility.yul\":7707:7713   */\n      dup3\n        /* \"#utility.yul\":7703:7720   */\n      and\n        /* \"#utility.yul\":7693:7720   */\n      swap2\n      pop\n        /* \"#utility.yul\":7649:7730   */\n    tag_185:\n        /* \"#utility.yul\":7777:7779   */\n      0x20\n        /* \"#utility.yul\":7769:7775   */\n      dup3\n        /* \"#utility.yul\":7766:7780   */\n      lt\n        /* \"#utility.yul\":7746:7764   */\n      dup2\n        /* \"#utility.yul\":7743:7781   */\n      sub\n        /* \"#utility.yul\":7740:7824   */\n      tag_186\n      jumpi\n        /* \"#utility.yul\":7796:7814   */\n      tag_187\n      tag_79\n      jump\t// in\n    tag_187:\n        /* \"#utility.yul\":7740:7824   */\n    tag_186:\n        /* \"#utility.yul\":7561:7830   */\n      pop\n        /* \"#utility.yul\":7510:7830   */\n      swap2\n      swap1\n      pop\n      jump\t// out\n        /* \"#utility.yul\":7836:7977   */\n    tag_80:\n        /* \"#utility.yul\":7885:7889   */\n      0x00\n        /* \"#utility.yul\":7908:7911   */\n      dup2\n        /* \"#utility.yul\":7900:7911   */\n      swap1\n      pop\n        /* \"#utility.yul\":7931:7934   */\n      dup2\n        /* \"#utility.yul\":7928:7929   */\n      0x00\n        /* \"#utility.yul\":7921:7935   */\n      mstore\n        /* \"#utility.yul\":7965:7969   */\n      0x20\n        /* \"#utility.yul\":7962:7963   */\n      0x00\n        /* \"#utility.yul\":7952:7970   */\n      keccak256\n        /* \"#utility.yul\":7944:7970   */\n      swap1\n      pop\n        /* \"#utility.yul\":7836:7977   */\n      swap2\n      swap1\n      pop\n      jump\t// out\n        /* \"#utility.yul\":7983:8076   */\n    tag_81:\n        /* \"#utility.yul\":8020:8026   */\n      0x00\n        /* \"#utility.yul\":8067:8069   */\n      0x20\n        /* \"#utility.yul\":8062:8064   */\n      0x1f\n        /* \"#utility.yul\":8055:8060   */\n      dup4\n        /* \"#utility.yul\":8051:8065   */\n      add\n        /* \"#utility.yul\":8047:8070   */\n      div\n        /* \"#utility.yul\":8037:8070   */\n      swap1\n      pop\n        /* \"#utility.yul\":7983:8076   */\n      swap2\n      swap1\n      pop\n      jump\t// out\n        /* \"#utility.yul\":8082:8189   */\n    tag_82:\n        /* \"#utility.yul\":8126:8134   */\n      0x00\n        /* \"#utility.yul\":8176:8181   */\n      dup3\n        /* \"#utility.yul\":8170:8174   */\n      dup3\n        /* \"#utility.yul\":8166:8182   */\n      shl\n        /* \"#utility.yul\":8145:8182   */\n      swap1\n      pop\n        /* \"#utility.yul\":8082:8189   */\n      swap3\n      swap2\n      pop\n      pop\n      jump\t// out\n        /* \"#utility.yul\":8195:8588   */\n    tag_83:\n        /* \"#utility.yul\":8264:8270   */\n      0x00\n        /* \"#utility.yul\":8314:8315   */\n      0x08\n        /* \"#utility.yul\":8302:8312   */\n      dup4\n        /* \"#utility.yul\":8298:8316   */\n      mul\n        /* \"#utility.yul\":8337:8434   */\n      tag_192\n        /* \"#utility.yul\":8367:8433   */\n      0xffffffffffffffffffffffffffffffffffffffffffffffffffffffffffffffff\n        /* \"#utility.yul\":8356:8365   */\n      dup3\n        /* \"#utility.yul\":8337:8434   */\n      tag_82\n      jump\t// in\n    tag_192:\n        /* \"#utility.yul\":8455:8494   */\n      tag_193\n        /* \"#utility.yul\":8485:8493   */\n      dup7\n        /* \"#utility.yul\":8474:8483   */\n      dup4\n        /* \"#utility.yul\":8455:8494   */\n      tag_82\n      jump\t// in\n    tag_193:\n        /* \"#utility.yul\":8443:8494   */\n      swap6\n      pop\n        /* \"#utility.yul\":8527:8531   */\n      dup1\n        /* \"#utility.yul\":8523:8532   */\n      not\n        /* \"#utility.yul\":8516:8521   */\n      dup5\n        /* \"#utility.yul\":8512:8533   */\n      and\n        /* \"#utility.yul\":8503:8533   */\n      swap4\n      pop\n        /* \"#utility.yul\":8576:8580   */\n      dup1\n        /* \"#utility.yul\":8566:8574   */\n      dup7\n        /* \"#utility.yul\":8562:8581   */\n      and\n        /* \"#utility.yul\":8555:8560   */\n      dup5\n        /* \"#utility.yul\":8552:8582   */\n      or\n        /* \"#utility.yul\":8542:8582   */\n      swap3\n      pop\n        /* \"#utility.yul\":8271:8588   */\n      pop\n      pop\n        /* \"#utility.yul\":8195:8588   */\n      swap4\n      swap3\n      pop\n      pop\n      pop\n      jump\t// out\n        /* \"#utility.yul\":8594:8654   */\n    tag_84:\n        /* \"#utility.yul\":8622:8625   */\n      0x00\n        /* \"#utility.yul\":8643:8648   */\n      dup2\n        /* \"#utility.yul\":8636:8648   */\n      swap1\n      pop\n        /* \"#utility.yul\":8594:8654   */\n      swap2\n      swap1\n      pop\n      jump\t// out\n        /* \"#utility.yul\":8660:8802   */\n    tag_85:\n        /* \"#utility.yul\":8710:8719   */\n      0x00\n        /* \"#utility.yul\":8743:8796   */\n      tag_196\n        /* \"#utility.yul\":8761:8795   */\n      tag_197\n        /* \"#utility.yul\":8770:8794   */\n      tag_198\n        /* \"#utility.yul\":8788:8793   */\n      dup5\n        /* \"#utility.yul\":8770:8794   */\n      tag_64\n      jump\t// in\n    tag_198:\n        /* \"#utility.yul\":8761:8795   */\n      tag_84\n      jump\t// in\n    tag_197:\n        /* \"#utility.yul\":8743:8796   */\n      tag_64\n      jump\t// in\n    tag_196:\n        /* \"#utility.yul\":8730:8796   */\n      swap1\n      pop\n        /* \"#utility.yul\":8660:8802   */\n      swap2\n      swap1\n      pop\n      jump\t// out\n        /* \"#utility.yul\":8808:8883   */\n    tag_86:\n        /* \"#utility.yul\":8851:8854   */\n      0x00\n        /* \"#utility.yul\":8872:8877   */\n      dup2\n        /* \"#utility.yul\":8865:8877   */\n      swap1\n      pop\n        /* \"#utility.yul\":8808:8883   */\n      swap2\n      swap1\n      pop\n      jump\t// out\n        /* \"#utility.yul\":8889:9158   */\n    tag_87:\n        /* \"#utility.yul\":8999:9038   */\n      tag_201\n        /* \"#utility.yul\":9030:9037   */\n      dup4\n        /* \"#utility.yul\":8999:9038   */\n      tag_85\n      jump\t// in\n    tag_201:\n        /* \"#utility.yul\":9060:9151   */\n      tag_202\n        /* \"#utility.yul\":9109:9150   */\n      tag_203\n        /* \"#utility.yul\":9133:9149   */\n      dup3\n        /* \"#utility.yul\":9109:9150   */\n      tag_86\n      jump\t// in\n    tag_203:\n        /* \"#utility.yul\":9101:9107   */\n      dup5\n        /* \"#utility.yul\":9094:9098   */\n      dup5\n        /* \"#utility.yul\":9088:9099   */\n      sload\n        /* \"#utility.yul\":9060:9151   */\n      tag_83\n      jump\t// in\n    tag_202:\n        /* \"#utility.yul\":9054:9058   */\n      dup3\n        /* \"#utility.yul\":9047:9152   */\n      sstore\n        /* \"#utility.yul\":8965:9158   */\n      pop\n        /* \"#utility.yul\":8889:9158   */\n      pop\n      pop\n      pop\n      jump\t// out\n        /* \"#utility.yul\":9164:9237   */\n    tag_88:\n        /* \"#utility.yul\":9209:9212   */\n      0x00\n        /* \"#utility.yul\":9164:9237   */\n      swap1\n      jump\t// out\n        /* \"#utility.yul\":9243:9432   */\n    tag_89:\n        /* \"#utility.yul\":9320:9352   */\n      tag_206\n      tag_88\n      jump\t// in\n    tag_206:\n        /* \"#utility.yul\":9361:9426   */\n      tag_207\n        /* \"#utility.yul\":9419:9425   */\n      dup2\n        /* \"#utility.yul\":9411:9417   */\n      dup5\n        /* \"#utility.yul\":9405:9409   */\n      dup5\n        /* \"#utility.yul\":9361:9426   */\n      tag_87\n      jump\t// in\n    tag_207:\n        /* \"#utility.yul\":9296:9432   */\n      pop\n        /* \"#utility.yul\":9243:9432   */\n      pop\n      pop\n      jump\t// out\n        /* \"#utility.yul\":9438:9624   */\n    tag_90:\n        /* \"#utility.yul\":9498:9618   */\n    tag_209:\n        /* \"#utility.yul\":9515:9518   */\n      dup2\n        /* \"#utility.yul\":9508:9513   */\n      dup2\n        /* \"#utility.yul\":9505:9519   */\n      lt\n        /* \"#utility.yul\":9498:9618   */\n      iszero\n      tag_211\n      jumpi\n        /* \"#utility.yul\":9569:9608   */\n      tag_212\n        /* \"#utility.yul\":9606:9607   */\n      0x00\n        /* \"#utility.yul\":9599:9604   */\n      dup3\n        /* \"#utility.yul\":9569:9608   */\n      tag_89\n      jump\t// in\n    tag_212:\n        /* \"#utility.yul\":9542:9543   */\n      0x01\n        /* \"#utility.yul\":9535:9540   */\n      dup2\n        /* \"#utility.yul\":9531:9544   */\n      add\n        /* \"#utility.yul\":9522:9544   */\n      swap1\n      pop\n        /* \"#utility.yul\":9498:9618   */\n      jump(tag_209)\n    tag_211:\n        /* \"#utility.yul\":9438:9624   */\n      pop\n      pop\n      jump\t// out\n        /* \"#utility.yul\":9630:10173   */\n    tag_91:\n        /* \"#utility.yul\":9731:9733   */\n      0x1f\n        /* \"#utility.yul\":9726:9729   */\n      dup3\n        /* \"#utility.yul\":9723:9734   */\n      gt\n        /* \"#utility.yul\":9720:10166   */\n      iszero\n      tag_214\n      jumpi\n        /* \"#utility.yul\":9765:9803   */\n      tag_215\n        /* \"#utility.yul\":9797:9802   */\n      dup2\n        /* \"#utility.yul\":9765:9803   */\n      tag_80\n      jump\t// in\n    tag_215:\n        /* \"#utility.yul\":9849:9878   */\n      tag_216\n        /* \"#utility.yul\":9867:9877   */\n      dup5\n        /* \"#utility.yul\":9849:9878   */\n      tag_81\n      jump\t// in\n    tag_216:\n        /* \"#utility.yul\":9839:9847   */\n      dup2\n        /* \"#utility.yul\":9835:9879   */\n      add\n        /* \"#utility.yul\":10032:10034   */\n      0x20\n        /* \"#utility.yul\":10020:10030   */\n      dup6\n        /* \"#utility.yul\":10017:10035   */\n      lt\n        /* \"#utility.yul\":10014:10063   */\n      iszero\n      tag_217\n      jumpi\n        /* \"#utility.yul\":10053:10061   */\n      dup2\n        /* \"#utility.yul\":10038:10061   */\n      swap1\n      pop\n        /* \"#utility.yul\":10014:10063   */\n    tag_217:\n        /* \"#utility.yul\":10076:10156   */\n      tag_218\n        /* \"#utility.yul\":10132:10154   */\n      tag_219\n        /* \"#utility.yul\":10150:10153   */\n      dup6\n        /* \"#utility.yul\":10132:10154   */\n      tag_81\n      jump\t// in\n    tag_219:\n        /* \"#utility.yul\":10122:10130   */\n      dup4\n        /* \"#utility.yul\":10118:10155   */\n      add\n        /* \"#utility.yul\":10105:10116   */\n      dup3\n        /* \"#utility.yul\":10076:10156   */\n      tag_90\n      jump\t// in\n    tag_218:\n        /* \"#utility.yul\":9735:10166   */\n      pop\n      pop\n        /* \"#utility.yul\":9720:10166   */\n    tag_214:\n        /* \"#utility.yul\":9630:10173   */\n      pop\n      pop\n      pop\n      jump\t// out\n        /* \"#utility.yul\":10179:10296   */\n    tag_92:\n        /* \"#utility.yul\":10233:10241   */\n      0x00\n        /* \"#utility.yul\":10283:10288   */\n      dup3\n        /* \"#utility.yul\":10277:10281   */\n      dup3\n        /* \"#utility.yul\":10273:10289   */\n      shr\n        /* \"#utility.yul\":10252:10289   */\n      swap1\n      pop\n        /* \"#utility.yul\":10179:10296   */\n      swap3\n      swap2\n      pop\n      pop\n      jump\t// out\n        /* \"#utility.yul\":10302:10471   */\n    tag_93:\n        /* \"#utility.yul\":10346:10352   */\n      0x00\n        /* \"#utility.yul\":10379:10430   */\n      tag_222\n        /* \"#utility.yul\":10427:10428   */\n      0x00\n        /* \"#utility.yul\":10423:10429   */\n      not\n        /* \"#utility.yul\":10415:10420   */\n      dup5\n        /* \"#utility.yul\":10412:10413   */\n      0x08\n        /* \"#utility.yul\":10408:10421   */\n      mul\n        /* \"#utility.yul\":10379:10430   */\n      tag_92\n      jump\t// in\n    tag_222:\n        /* \"#utility.yul\":10375:10431   */\n      not\n        /* \"#utility.yul\":10460:10464   */\n      dup1\n        /* \"#utility.yul\":10454:10458   */\n      dup4\n        /* \"#utility.yul\":10450:10465   */\n      and\n        /* \"#utility.yul\":10440:10465   */\n      swap2\n      pop\n        /* \"#utility.yul\":10353:10471   */\n      pop\n        /* \"#utility.yul\":10302:10471   */\n      swap3\n      swap2\n      pop\n      pop\n      jump\t// out\n        /* \"#utility.yul\":10476:10771   */\n    tag_94:\n        /* \"#utility.yul\":10552:10556   */\n      0x00\n        /* \"#utility.yul\":10698:10727   */\n      tag_224\n        /* \"#utility.yul\":10723:10726   */\n      dup4\n        /* \"#utility.yul\":10717:10721   */\n      dup4\n        /* \"#utility.yul\":10698:10727   */\n      tag_93\n      jump\t// in\n    tag_224:\n        /* \"#utility.yul\":10690:10727   */\n      swap2\n      pop\n        /* \"#utility.yul\":10760:10763   */\n      dup3\n        /* \"#utility.yul\":10757:10758   */\n      0x02\n        /* \"#utility.yul\":10753:10764   */\n      mul\n        /* \"#utility.yul\":10747:10751   */\n      dup3\n        /* \"#utility.yul\":10744:10765   */\n      or\n        /* \"#utility.yul\":10736:10765   */\n      swap1\n      pop\n        /* \"#utility.yul\":10476:10771   */\n      swap3\n      swap2\n      pop\n      pop\n      jump\t// out\n        /* \"#utility.yul\":10776:12171   */\n    tag_38:\n        /* \"#utility.yul\":10893:10930   */\n      tag_226\n        /* \"#utility.yul\":10926:10929   */\n      dup3\n        /* \"#utility.yul\":10893:10930   */\n      tag_72\n      jump\t// in\n    tag_226:\n        /* \"#utility.yul\":10995:11013   */\n      0xffffffffffffffff\n        /* \"#utility.yul\":10987:10993   */\n      dup2\n        /* \"#utility.yul\":10984:11014   */\n      gt\n        /* \"#utility.yul\":10981:11037   */\n      iszero\n      tag_227\n      jumpi\n        /* \"#utility.yul\":11017:11035   */\n      tag_228\n      tag_57\n      jump\t// in\n    tag_228:\n        /* \"#utility.yul\":10981:11037   */\n    tag_227:\n        /* \"#utility.yul\":11061:11099   */\n      tag_229\n        /* \"#utility.yul\":11093:11097   */\n      dup3\n        /* \"#utility.yul\":11087:11098   */\n      sload\n        /* \"#utility.yul\":11061:11099   */\n      tag_46\n      jump\t// in\n    tag_229:\n        /* \"#utility.yul\":11146:11213   */\n      tag_230\n        /* \"#utility.yul\":11206:11212   */\n      dup3\n        /* \"#utility.yul\":11198:11204   */\n      dup3\n        /* \"#utility.yul\":11192:11196   */\n      dup6\n        /* \"#utility.yul\":11146:11213   */\n      tag_91\n      jump\t// in\n    tag_230:\n        /* \"#utility.yul\":11240:11241   */\n      0x00\n        /* \"#utility.yul\":11264:11268   */\n      0x20\n        /* \"#utility.yul\":11251:11268   */\n      swap1\n      pop\n        /* \"#utility.yul\":11296:11298   */\n      0x1f\n        /* \"#utility.yul\":11288:11294   */\n      dup4\n        /* \"#utility.yul\":11285:11299   */\n      gt\n        /* \"#utility.yul\":11313:11314   */\n      0x01\n        /* \"#utility.yul\":11308:11926   */\n      dup2\n      eq\n      tag_232\n      jumpi\n        /* \"#utility.yul\":11970:11971   */\n      0x00\n        /* \"#utility.yul\":11987:11993   */\n      dup5\n        /* \"#utility.yul\":11984:12061   */\n      iszero\n      tag_233\n      jumpi\n        /* \"#utility.yul\":12036:12045   */\n      dup3\n        /* \"#utility.yul\":12031:12034   */\n      dup8\n        /* \"#utility.yul\":12027:12046   */\n      add\n        /* \"#utility.yul\":12021:12047   */\n      mload\n        /* \"#utility.yul\":12012:12047   */\n      swap1\n      pop\n        /* \"#utility.yul\":11984:12061   */\n    tag_233:\n        /* \"#utility.yul\":12087:12154   */\n      tag_234\n        /* \"#utility.yul\":12147:12153   */\n      dup6\n        /* \"#utility.yul\":12140:12145   */\n      dup3\n        /* \"#utility.yul\":12087:12154   */\n      tag_94\n      jump\t// in\n    tag_234:\n        /* \"#utility.yul\":12081:12085   */\n      dup7\n        /* \"#utility.yul\":12074:12155   */\n      sstore\n        /* \"#utility.yul\":11943:12165   */\n      pop\n        /* \"#utility.yul\":11278:12165   */\n      jump(tag_231)\n        /* \"#utility.yul\":11308:11926   */\n    tag_232:\n        /* \"#utility.yul\":11360:11364   */\n      0x1f\n        /* \"#utility.yul\":11356:11365   */\n      not\n        /* \"#utility.yul\":11348:11354   */\n      dup5\n        /* \"#utility.yul\":11344:11366   */\n      and\n        /* \"#utility.yul\":11394:11431   */\n      tag_235\n        /* \"#utility.yul\":11426:11430   */\n      dup7\n        /* \"#utility.yul\":11394:11431   */\n      tag_80\n      jump\t// in\n    tag_235:\n        /* \"#utility.yul\":11453:11454   */\n      0x00\n        /* \"#utility.yul\":11467:11675   */\n    tag_236:\n        /* \"#utility.yul\":11481:11488   */\n      dup3\n        /* \"#utility.yul\":11478:11479   */\n      dup2\n        /* \"#utility.yul\":11475:11489   */\n      lt\n        /* \"#utility.yul\":11467:11675   */\n      iszero\n      tag_238\n      jumpi\n        /* \"#utility.yul\":11560:11569   */\n      dup5\n        /* \"#utility.yul\":11555:11558   */\n      dup10\n        /* \"#utility.yul\":11551:11570   */\n      add\n        /* \"#utility.yul\":11545:11571   */\n      mload\n        /* \"#utility.yul\":11537:11543   */\n      dup3\n        /* \"#utility.yul\":11530:11572   */\n      sstore\n        /* \"#utility.yul\":11611:11612   */\n      0x01\n        /* \"#utility.yul\":11603:11609   */\n      dup3\n        /* \"#utility.yul\":11599:11613   */\n      add\n        /* \"#utility.yul\":11589:11613   */\n      swap2\n      pop\n        /* \"#utility.yul\":11658:11660   */\n      0x20\n        /* \"#utility.yul\":11647:11656   */\n      dup6\n        /* \"#utility.yul\":11643:11661   */\n      add\n        /* \"#utility.yul\":11630:11661   */\n      swap5\n      pop\n        /* \"#utility.yul\":11504:11508   */\n      0x20\n        /* \"#utility.yul\":11501:11502   */\n      dup2\n        /* \"#utility.yul\":11497:11509   */\n      add\n        /* \"#utility.yul\":11492:11509   */\n      swap1\n      pop\n        /* \"#utility.yul\":11467:11675   */\n      jump(tag_236)\n    tag_238:\n        /* \"#utility.yul\":11703:11709   */\n      dup7\n        /* \"#utility.yul\":11694:11701   */\n      dup4\n        /* \"#utility.yul\":11691:11710   */\n      lt\n        /* \"#utility.yul\":11688:11867   */\n      iszero\n      tag_239\n      jumpi\n        /* \"#utility.yul\":11761:11770   */\n      dup5\n        /* \"#utility.yul\":11756:11759   */\n      dup10\n        /* \"#utility.yul\":11752:11771   */\n      add\n        /* \"#utility.yul\":11746:11772   */\n      mload\n        /* \"#utility.yul\":11804:11852   */\n      tag_240\n        /* \"#utility.yul\":11846:11850   */\n      0x1f\n        /* \"#utility.yul\":11838:11844   */\n      dup10\n        /* \"#utility.yul\":11834:11851   */\n      and\n        /* \"#utility.yul\":11823:11832   */\n      dup3\n        /* \"#utility.yul\":11804:11852   */\n      tag_93\n      jump\t// in\n    tag_240:\n        /* \"#utility.yul\":11796:11802   */\n      dup4\n        /* \"#utility.yul\":11789:11853   */\n      sstore\n        /* \"#utility.yul\":11711:11867   */\n      pop\n        /* \"#utility.yul\":11688:11867   */\n    tag_239:\n        /* \"#utility.yul\":11913:11914   */\n      0x01\n        /* \"#utility.yul\":11909:11910   */\n      0x02\n        /* \"#utility.yul\":11901:11907   */\n      dup9\n        /* \"#utility.yul\":11897:11911   */\n      mul\n        /* \"#utility.yul\":11893:11915   */\n      add\n        /* \"#utility.yul\":11887:11891   */\n      dup9\n        /* \"#utility.yul\":11880:11916   */\n      sstore\n        /* \"#utility.yul\":11315:11926   */\n      pop\n      pop\n      pop\n        /* \"#utility.yul\":11278:12165   */\n    tag_231:\n      pop\n        /* \"#utility.yul\":10868:12171   */\n      pop\n      pop\n      pop\n        /* \"#utility.yul\":10776:12171   */\n      pop\n      pop\n      jump\t// out\n        /* \"#utility.yul\":12177:12357   */\n    tag_95:\n        /* \"#utility.yul\":12225:12302   */\n      0x4e487b7100000000000000000000000000000000000000000000000000000000\n        /* \"#utility.yul\":12222:12223   */\n      0x00\n        /* \"#utility.yul\":12215:12303   */\n      mstore\n        /* \"#utility.yul\":12322:12326   */\n      0x11\n        /* \"#utility.yul\":12319:12320   */\n      0x04\n        /* \"#utility.yul\":12312:12327   */\n      mstore\n        /* \"#utility.yul\":12346:12350   */\n      0x24\n        /* \"#utility.yul\":12343:12344   */\n      0x00\n        /* \"#utility.yul\":12336:12351   */\n      revert\n        /* \"#utility.yul\":12363:12554   */\n    tag_42:\n        /* \"#utility.yul\":12403:12406   */\n      0x00\n        /* \"#utility.yul\":12422:12442   */\n      tag_243\n        /* \"#utility.yul\":12440:12441   */\n      dup3\n        /* \"#utility.yul\":12422:12442   */\n      tag_64\n      jump\t// in\n    tag_243:\n        /* \"#utility.yul\":12417:12442   */\n      swap2\n      pop\n        /* \"#utility.yul\":12456:12476   */\n      tag_244\n        /* \"#utility.yul\":12474:12475   */\n      dup4\n        /* \"#utility.yul\":12456:12476   */\n      tag_64\n      jump\t// in\n    tag_244:\n        /* \"#utility.yul\":12451:12476   */\n      swap3\n      pop\n        /* \"#utility.yul\":12499:12500   */\n      dup3\n        /* \"#utility.yul\":12496:12497   */\n      dup3\n        /* \"#utility.yul\":12492:12501   */\n      add\n        /* \"#utility.yul\":12485:12501   */\n      swap1\n      pop\n        /* \"#utility.yul\":12520:12523   */\n      dup1\n        /* \"#utility.yul\":12517:12518   */\n      dup3\n        /* \"#utility.yul\":12514:12524   */\n      gt\n        /* \"#utility.yul\":12511:12547   */\n      iszero\n      tag_245\n      jumpi\n        /* \"#utility.yul\":12527:12545   */\n      tag_246\n      tag_95\n      jump\t// in\n    tag_246:\n        /* \"#utility.yul\":12511:12547   */\n    tag_245:\n        /* \"#utility.yul\":12363:12554   */\n      swap3\n      swap2\n      pop\n      pop\n      jump\t// out\n\n    auxdata: 0xa2646970667358221220b894bfcb321942edfa5eefc5fc997815a331174ed0302ad2914013310669e39064736f6c63430008160033\n}\n",
				"bytecode": {
					"linkReferences": {},
					"object": "608060405234801561000f575f80fd5b50610c9b8061001d5f395ff3fe608060405260043610610049575f3560e01c806349ef14671461004d5780638004f9fa146100755780638100856814610091578063cc51d892146100d0578063f457ee5a1461010d575b5f80fd5b348015610058575f80fd5b50610073600480360381019061006e91906106c3565b610149565b005b61008f600480360381019061008a9190610797565b610251565b005b34801561009c575f80fd5b506100b760048036038101906100b291906107d5565b610469565b6040516100c794939291906108a3565b60405180910390f35b3480156100db575f80fd5b506100f660048036038101906100f191906107d5565b610526565b6040516101049291906108ed565b60405180910390f35b348015610118575f80fd5b50610133600480360381019061012e91906107d5565b610546565b6040516101409190610923565b60405180910390f35b600115155f803373ffffffffffffffffffffffffffffffffffffffff1673ffffffffffffffffffffffffffffffffffffffff1681526020019081526020015f206003015f9054906101000a900460ff161515036101a4575f80fd5b60405180608001604052804281526020015f8152602001828152602001600115158152505f803373ffffffffffffffffffffffffffffffffffffffff1673ffffffffffffffffffffffffffffffffffffffff1681526020019081526020015f205f820151815f015560208201518160010155604082015181600201908161022b9190610b36565b506060820151816003015f6101000a81548160ff02191690831515021790555090505050565b8134101561025d575f80fd5b8060015f3373ffffffffffffffffffffffffffffffffffffffff1673ffffffffffffffffffffffffffffffffffffffff1681526020019081526020015f205f6101000a81548173ffffffffffffffffffffffffffffffffffffffff021916908373ffffffffffffffffffffffffffffffffffffffff160217905550815f808373ffffffffffffffffffffffffffffffffffffffff1673ffffffffffffffffffffffffffffffffffffffff1681526020019081526020015f206001015f8282546103269190610c32565b9250508190555060025f3373ffffffffffffffffffffffffffffffffffffffff1673ffffffffffffffffffffffffffffffffffffffff1681526020019081526020015f2060020181908060018154018082558091505060019003905f5260205f20015f9091909190916101000a81548173ffffffffffffffffffffffffffffffffffffffff021916908373ffffffffffffffffffffffffffffffffffffffff1602179055504260025f3373ffffffffffffffffffffffffffffffffffffffff1673ffffffffffffffffffffffffffffffffffffffff1681526020019081526020015f205f01819055508160025f3373ffffffffffffffffffffffffffffffffffffffff1673ffffffffffffffffffffffffffffffffffffffff1681526020019081526020015f206001015f82825461045e9190610c32565b925050819055505050565b5f602052805f5260405f205f91509050805f01549080600101549080600201805461049390610969565b80601f01602080910402602001604051908101604052809291908181526020018280546104bf90610969565b801561050a5780601f106104e15761010080835404028352916020019161050a565b820191905f5260205f20905b8154815290600101906020018083116104ed57829003601f168201915b505050505090806003015f9054906101000a900460ff16905084565b6002602052805f5260405f205f91509050805f0154908060010154905082565b6001602052805f5260405f205f915054906101000a900473ffffffffffffffffffffffffffffffffffffffff1681565b5f604051905090565b5f80fd5b5f80fd5b5f80fd5b5f80fd5b5f601f19601f8301169050919050565b7f4e487b71000000000000000000000000000000000000000000000000000000005f52604160045260245ffd5b6105d58261058f565b810181811067ffffffffffffffff821117156105f4576105f361059f565b5b80604052505050565b5f610606610576565b905061061282826105cc565b919050565b5f67ffffffffffffffff8211156106315761063061059f565b5b61063a8261058f565b9050602081019050919050565b828183375f83830152505050565b5f61066761066284610617565b6105fd565b9050828152602081018484840111156106835761068261058b565b5b61068e848285610647565b509392505050565b5f82601f8301126106aa576106a9610587565b5b81356106ba848260208601610655565b91505092915050565b5f602082840312156106d8576106d761057f565b5b5f82013567ffffffffffffffff8111156106f5576106f4610583565b5b61070184828501610696565b91505092915050565b5f819050919050565b61071c8161070a565b8114610726575f80fd5b50565b5f8135905061073781610713565b92915050565b5f73ffffffffffffffffffffffffffffffffffffffff82169050919050565b5f6107668261073d565b9050919050565b6107768161075c565b8114610780575f80fd5b50565b5f813590506107918161076d565b92915050565b5f80604083850312156107ad576107ac61057f565b5b5f6107ba85828601610729565b92505060206107cb85828601610783565b9150509250929050565b5f602082840312156107ea576107e961057f565b5b5f6107f784828501610783565b91505092915050565b6108098161070a565b82525050565b5f81519050919050565b5f82825260208201905092915050565b5f5b8381101561084657808201518184015260208101905061082b565b5f8484015250505050565b5f61085b8261080f565b6108658185610819565b9350610875818560208601610829565b61087e8161058f565b840191505092915050565b5f8115159050919050565b61089d81610889565b82525050565b5f6080820190506108b65f830187610800565b6108c36020830186610800565b81810360408301526108d58185610851565b90506108e46060830184610894565b95945050505050565b5f6040820190506109005f830185610800565b61090d6020830184610800565b9392505050565b61091d8161075c565b82525050565b5f6020820190506109365f830184610914565b92915050565b7f4e487b71000000000000000000000000000000000000000000000000000000005f52602260045260245ffd5b5f600282049050600182168061098057607f821691505b6020821081036109935761099261093c565b5b50919050565b5f819050815f5260205f209050919050565b5f6020601f8301049050919050565b5f82821b905092915050565b5f600883026109f57fffffffffffffffffffffffffffffffffffffffffffffffffffffffffffffffff826109ba565b6109ff86836109ba565b95508019841693508086168417925050509392505050565b5f819050919050565b5f610a3a610a35610a308461070a565b610a17565b61070a565b9050919050565b5f819050919050565b610a5383610a20565b610a67610a5f82610a41565b8484546109c6565b825550505050565b5f90565b610a7b610a6f565b610a86818484610a4a565b505050565b5b81811015610aa957610a9e5f82610a73565b600181019050610a8c565b5050565b601f821115610aee57610abf81610999565b610ac8846109ab565b81016020851015610ad7578190505b610aeb610ae3856109ab565b830182610a8b565b50505b505050565b5f82821c905092915050565b5f610b0e5f1984600802610af3565b1980831691505092915050565b5f610b268383610aff565b9150826002028217905092915050565b610b3f8261080f565b67ffffffffffffffff811115610b5857610b5761059f565b5b610b628254610969565b610b6d828285610aad565b5f60209050601f831160018114610b9e575f8415610b8c578287015190505b610b968582610b1b565b865550610bfd565b601f198416610bac86610999565b5f5b82811015610bd357848901518255600182019150602085019450602081019050610bae565b86831015610bf05784890151610bec601f891682610aff565b8355505b6001600288020188555050505b505050505050565b7f4e487b71000000000000000000000000000000000000000000000000000000005f52601160045260245ffd5b5f610c3c8261070a565b9150610c478361070a565b9250828201905080821115610c5f57610c5e610c05565b5b9291505056fea2646970667358221220b894bfcb321942edfa5eefc5fc997815a331174ed0302ad2914013310669e39064736f6c63430008160033",
					"opcodes": "PUSH1 0x80 PUSH1 0x40 MSTORE CALLVALUE DUP1 ISZERO PUSH2 0xF JUMPI PUSH0 DUP1 REVERT JUMPDEST POP PUSH2 0xC9B DUP1 PUSH2 0x1D PUSH0 CODECOPY PUSH0 RETURN INVALID PUSH1 0x80 PUSH1 0x40 MSTORE PUSH1 0x4 CALLDATASIZE LT PUSH2 0x49 JUMPI PUSH0 CALLDATALOAD PUSH1 0xE0 SHR DUP1 PUSH4 0x49EF1467 EQ PUSH2 0x4D JUMPI DUP1 PUSH4 0x8004F9FA EQ PUSH2 0x75 JUMPI DUP1 PUSH4 0x81008568 EQ PUSH2 0x91 JUMPI DUP1 PUSH4 0xCC51D892 EQ PUSH2 0xD0 JUMPI DUP1 PUSH4 0xF457EE5A EQ PUSH2 0x10D JUMPI JUMPDEST PUSH0 DUP1 REVERT JUMPDEST CALLVALUE DUP1 ISZERO PUSH2 0x58 JUMPI PUSH0 DUP1 REVERT JUMPDEST POP PUSH2 0x73 PUSH1 0x4 DUP1 CALLDATASIZE SUB DUP2 ADD SWAP1 PUSH2 0x6E SWAP2 SWAP1 PUSH2 0x6C3 JUMP JUMPDEST PUSH2 0x149 JUMP JUMPDEST STOP JUMPDEST PUSH2 0x8F PUSH1 0x4 DUP1 CALLDATASIZE SUB DUP2 ADD SWAP1 PUSH2 0x8A SWAP2 SWAP1 PUSH2 0x797 JUMP JUMPDEST PUSH2 0x251 JUMP JUMPDEST STOP JUMPDEST CALLVALUE DUP1 ISZERO PUSH2 0x9C JUMPI PUSH0 DUP1 REVERT JUMPDEST POP PUSH2 0xB7 PUSH1 0x4 DUP1 CALLDATASIZE SUB DUP2 ADD SWAP1 PUSH2 0xB2 SWAP2 SWAP1 PUSH2 0x7D5 JUMP JUMPDEST PUSH2 0x469 JUMP JUMPDEST PUSH1 0x40 MLOAD PUSH2 0xC7 SWAP5 SWAP4 SWAP3 SWAP2 SWAP1 PUSH2 0x8A3 JUMP JUMPDEST PUSH1 0x40 MLOAD DUP1 SWAP2 SUB SWAP1 RETURN JUMPDEST CALLVALUE DUP1 ISZERO PUSH2 0xDB JUMPI PUSH0 DUP1 REVERT JUMPDEST POP PUSH2 0xF6 PUSH1 0x4 DUP1 CALLDATASIZE SUB DUP2 ADD SWAP1 PUSH2 0xF1 SWAP2 SWAP1 PUSH2 0x7D5 JUMP JUMPDEST PUSH2 0x526 JUMP JUMPDEST PUSH1 0x40 MLOAD PUSH2 0x104 SWAP3 SWAP2 SWAP1 PUSH2 0x8ED JUMP JUMPDEST PUSH1 0x40 MLOAD DUP1 SWAP2 SUB SWAP1 RETURN JUMPDEST CALLVALUE DUP1 ISZERO PUSH2 0x118 JUMPI PUSH0 DUP1 REVERT JUMPDEST POP PUSH2 0x133 PUSH1 0x4 DUP1 CALLDATASIZE SUB DUP2 ADD SWAP1 PUSH2 0x12E SWAP2 SWAP1 PUSH2 0x7D5 JUMP JUMPDEST PUSH2 0x546 JUMP JUMPDEST PUSH1 0x40 MLOAD PUSH2 0x140 SWAP2 SWAP1 PUSH2 0x923 JUMP JUMPDEST PUSH1 0x40 MLOAD DUP1 SWAP2 SUB SWAP1 RETURN JUMPDEST PUSH1 0x1 ISZERO ISZERO PUSH0 DUP1 CALLER PUSH20 0xFFFFFFFFFFFFFFFFFFFFFFFFFFFFFFFFFFFFFFFF AND PUSH20 0xFFFFFFFFFFFFFFFFFFFFFFFFFFFFFFFFFFFFFFFF AND DUP2 MSTORE PUSH1 0x20 ADD SWAP1 DUP2 MSTORE PUSH1 0x20 ADD PUSH0 KECCAK256 PUSH1 0x3 ADD PUSH0 SWAP1 SLOAD SWAP1 PUSH2 0x100 EXP SWAP1 DIV PUSH1 0xFF AND ISZERO ISZERO SUB PUSH2 0x1A4 JUMPI PUSH0 DUP1 REVERT JUMPDEST PUSH1 0x40 MLOAD DUP1 PUSH1 0x80 ADD PUSH1 0x40 MSTORE DUP1 TIMESTAMP DUP2 MSTORE PUSH1 0x20 ADD PUSH0 DUP2 MSTORE PUSH1 0x20 ADD DUP3 DUP2 MSTORE PUSH1 0x20 ADD PUSH1 0x1 ISZERO ISZERO DUP2 MSTORE POP PUSH0 DUP1 CALLER PUSH20 0xFFFFFFFFFFFFFFFFFFFFFFFFFFFFFFFFFFFFFFFF AND PUSH20 0xFFFFFFFFFFFFFFFFFFFFFFFFFFFFFFFFFFFFFFFF AND DUP2 MSTORE PUSH1 0x20 ADD SWAP1 DUP2 MSTORE PUSH1 0x20 ADD PUSH0 KECCAK256 PUSH0 DUP3 ADD MLOAD DUP2 PUSH0 ADD SSTORE PUSH1 0x20 DUP3 ADD MLOAD DUP2 PUSH1 0x1 ADD SSTORE PUSH1 0x40 DUP3 ADD MLOAD DUP2 PUSH1 0x2 ADD SWAP1 DUP2 PUSH2 0x22B SWAP2 SWAP1 PUSH2 0xB36 JUMP JUMPDEST POP PUSH1 0x60 DUP3 ADD MLOAD DUP2 PUSH1 0x3 ADD PUSH0 PUSH2 0x100 EXP DUP2 SLOAD DUP2 PUSH1 0xFF MUL NOT AND SWAP1 DUP4 ISZERO ISZERO MUL OR SWAP1 SSTORE POP SWAP1 POP POP POP JUMP JUMPDEST DUP2 CALLVALUE LT ISZERO PUSH2 0x25D JUMPI PUSH0 DUP1 REVERT JUMPDEST DUP1 PUSH1 0x1 PUSH0 CALLER PUSH20 0xFFFFFFFFFFFFFFFFFFFFFFFFFFFFFFFFFFFFFFFF AND PUSH20 0xFFFFFFFFFFFFFFFFFFFFFFFFFFFFFFFFFFFFFFFF AND DUP2 MSTORE PUSH1 0x20 ADD SWAP1 DUP2 MSTORE PUSH1 0x20 ADD PUSH0 KECCAK256 PUSH0 PUSH2 0x100 EXP DUP2 SLOAD DUP2 PUSH20 0xFFFFFFFFFFFFFFFFFFFFFFFFFFFFFFFFFFFFFFFF MUL NOT AND SWAP1 DUP4 PUSH20 0xFFFFFFFFFFFFFFFFFFFFFFFFFFFFFFFFFFFFFFFF AND MUL OR SWAP1 SSTORE POP DUP2 PUSH0 DUP1 DUP4 PUSH20 0xFFFFFFFFFFFFFFFFFFFFFFFFFFFFFFFFFFFFFFFF AND PUSH20 0xFFFFFFFFFFFFFFFFFFFFFFFFFFFFFFFFFFFFFFFF AND DUP2 MSTORE PUSH1 0x20 ADD SWAP1 DUP2 MSTORE PUSH1 0x20 ADD PUSH0 KECCAK256 PUSH1 0x1 ADD PUSH0 DUP3 DUP3 SLOAD PUSH2 0x326 SWAP2 SWAP1 PUSH2 0xC32 JUMP JUMPDEST SWAP3 POP POP DUP2 SWAP1 SSTORE POP PUSH1 0x2 PUSH0 CALLER PUSH20 0xFFFFFFFFFFFFFFFFFFFFFFFFFFFFFFFFFFFFFFFF AND PUSH20 0xFFFFFFFFFFFFFFFFFFFFFFFFFFFFFFFFFFFFFFFF AND DUP2 MSTORE PUSH1 0x20 ADD SWAP1 DUP2 MSTORE PUSH1 0x20 ADD PUSH0 KECCAK256 PUSH1 0x2 ADD DUP2 SWAP1 DUP1 PUSH1 0x1 DUP2 SLOAD ADD DUP1 DUP3 SSTORE DUP1 SWAP2 POP POP PUSH1 0x1 SWAP1 SUB SWAP1 PUSH0 MSTORE PUSH1 0x20 PUSH0 KECCAK256 ADD PUSH0 SWAP1 SWAP2 SWAP1 SWAP2 SWAP1 SWAP2 PUSH2 0x100 EXP DUP2 SLOAD DUP2 PUSH20 0xFFFFFFFFFFFFFFFFFFFFFFFFFFFFFFFFFFFFFFFF MUL NOT AND SWAP1 DUP4 PUSH20 0xFFFFFFFFFFFFFFFFFFFFFFFFFFFFFFFFFFFFFFFF AND MUL OR SWAP1 SSTORE POP TIMESTAMP PUSH1 0x2 PUSH0 CALLER PUSH20 0xFFFFFFFFFFFFFFFFFFFFFFFFFFFFFFFFFFFFFFFF AND PUSH20 0xFFFFFFFFFFFFFFFFFFFFFFFFFFFFFFFFFFFFFFFF AND DUP2 MSTORE PUSH1 0x20 ADD SWAP1 DUP2 MSTORE PUSH1 0x20 ADD PUSH0 KECCAK256 PUSH0 ADD DUP2 SWAP1 SSTORE POP DUP2 PUSH1 0x2 PUSH0 CALLER PUSH20 0xFFFFFFFFFFFFFFFFFFFFFFFFFFFFFFFFFFFFFFFF AND PUSH20 0xFFFFFFFFFFFFFFFFFFFFFFFFFFFFFFFFFFFFFFFF AND DUP2 MSTORE PUSH1 0x20 ADD SWAP1 DUP2 MSTORE PUSH1 0x20 ADD PUSH0 KECCAK256 PUSH1 0x1 ADD PUSH0 DUP3 DUP3 SLOAD PUSH2 0x45E SWAP2 SWAP1 PUSH2 0xC32 JUMP JUMPDEST SWAP3 POP POP DUP2 SWAP1 SSTORE POP POP POP JUMP JUMPDEST PUSH0 PUSH1 0x20 MSTORE DUP1 PUSH0 MSTORE PUSH1 0x40 PUSH0 KECCAK256 PUSH0 SWAP2 POP SWAP1 POP DUP1 PUSH0 ADD SLOAD SWAP1 DUP1 PUSH1 0x1 ADD SLOAD SWAP1 DUP1 PUSH1 0x2 ADD DUP1 SLOAD PUSH2 0x493 SWAP1 PUSH2 0x969 JUMP JUMPDEST DUP1 PUSH1 0x1F ADD PUSH1 0x20 DUP1 SWAP2 DIV MUL PUSH1 0x20 ADD PUSH1 0x40 MLOAD SWAP1 DUP2 ADD PUSH1 0x40 MSTORE DUP1 SWAP3 SWAP2 SWAP1 DUP2 DUP2 MSTORE PUSH1 0x20 ADD DUP3 DUP1 SLOAD PUSH2 0x4BF SWAP1 PUSH2 0x969 JUMP JUMPDEST DUP1 ISZERO PUSH2 0x50A JUMPI DUP1 PUSH1 0x1F LT PUSH2 0x4E1 JUMPI PUSH2 0x100 DUP1 DUP4 SLOAD DIV MUL DUP4 MSTORE SWAP2 PUSH1 0x20 ADD SWAP2 PUSH2 0x50A JUMP JUMPDEST DUP3 ADD SWAP2 SWAP1 PUSH0 MSTORE PUSH1 0x20 PUSH0 KECCAK256 SWAP1 JUMPDEST DUP2 SLOAD DUP2 MSTORE SWAP1 PUSH1 0x1 ADD SWAP1 PUSH1 0x20 ADD DUP1 DUP4 GT PUSH2 0x4ED JUMPI DUP3 SWAP1 SUB PUSH1 0x1F AND DUP3 ADD SWAP2 JUMPDEST POP POP POP POP POP SWAP1 DUP1 PUSH1 0x3 ADD PUSH0 SWAP1 SLOAD SWAP1 PUSH2 0x100 EXP SWAP1 DIV PUSH1 0xFF AND SWAP1 POP DUP5 JUMP JUMPDEST PUSH1 0x2 PUSH1 0x20 MSTORE DUP1 PUSH0 MSTORE PUSH1 0x40 PUSH0 KECCAK256 PUSH0 SWAP2 POP SWAP1 POP DUP1 PUSH0 ADD SLOAD SWAP1 DUP1 PUSH1 0x1 ADD SLOAD SWAP1 POP DUP3 JUMP JUMPDEST PUSH1 0x1 PUSH1 0x20 MSTORE DUP1 PUSH0 MSTORE PUSH1 0x40 PUSH0 KECCAK256 PUSH0 SWAP2 POP SLOAD SWAP1 PUSH2 0x100 EXP SWAP1 DIV PUSH20 0xFFFFFFFFFFFFFFFFFFFFFFFFFFFFFFFFFFFFFFFF AND DUP2 JUMP JUMPDEST PUSH0 PUSH1 0x40 MLOAD SWAP1 POP SWAP1 JUMP JUMPDEST PUSH0 DUP1 REVERT JUMPDEST PUSH0 DUP1 REVERT JUMPDEST PUSH0 DUP1 REVERT JUMPDEST PUSH0 DUP1 REVERT JUMPDEST PUSH0 PUSH1 0x1F NOT PUSH1 0x1F DUP4 ADD AND SWAP1 POP SWAP2 SWAP1 POP JUMP JUMPDEST PUSH32 0x4E487B7100000000000000000000000000000000000000000000000000000000 PUSH0 MSTORE PUSH1 0x41 PUSH1 0x4 MSTORE PUSH1 0x24 PUSH0 REVERT JUMPDEST PUSH2 0x5D5 DUP3 PUSH2 0x58F JUMP JUMPDEST DUP2 ADD DUP2 DUP2 LT PUSH8 0xFFFFFFFFFFFFFFFF DUP3 GT OR ISZERO PUSH2 0x5F4 JUMPI PUSH2 0x5F3 PUSH2 0x59F JUMP JUMPDEST JUMPDEST DUP1 PUSH1 0x40 MSTORE POP POP POP JUMP JUMPDEST PUSH0 PUSH2 0x606 PUSH2 0x576 JUMP JUMPDEST SWAP1 POP PUSH2 0x612 DUP3 DUP3 PUSH2 0x5CC JUMP JUMPDEST SWAP2 SWAP1 POP JUMP JUMPDEST PUSH0 PUSH8 0xFFFFFFFFFFFFFFFF DUP3 GT ISZERO PUSH2 0x631 JUMPI PUSH2 0x630 PUSH2 0x59F JUMP JUMPDEST JUMPDEST PUSH2 0x63A DUP3 PUSH2 0x58F JUMP JUMPDEST SWAP1 POP PUSH1 0x20 DUP2 ADD SWAP1 POP SWAP2 SWAP1 POP JUMP JUMPDEST DUP3 DUP2 DUP4 CALLDATACOPY PUSH0 DUP4 DUP4 ADD MSTORE POP POP POP JUMP JUMPDEST PUSH0 PUSH2 0x667 PUSH2 0x662 DUP5 PUSH2 0x617 JUMP JUMPDEST PUSH2 0x5FD JUMP JUMPDEST SWAP1 POP DUP3 DUP2 MSTORE PUSH1 0x20 DUP2 ADD DUP5 DUP5 DUP5 ADD GT ISZERO PUSH2 0x683 JUMPI PUSH2 0x682 PUSH2 0x58B JUMP JUMPDEST JUMPDEST PUSH2 0x68E DUP5 DUP3 DUP6 PUSH2 0x647 JUMP JUMPDEST POP SWAP4 SWAP3 POP POP POP JUMP JUMPDEST PUSH0 DUP3 PUSH1 0x1F DUP4 ADD SLT PUSH2 0x6AA JUMPI PUSH2 0x6A9 PUSH2 0x587 JUMP JUMPDEST JUMPDEST DUP2 CALLDATALOAD PUSH2 0x6BA DUP5 DUP3 PUSH1 0x20 DUP7 ADD PUSH2 0x655 JUMP JUMPDEST SWAP2 POP POP SWAP3 SWAP2 POP POP JUMP JUMPDEST PUSH0 PUSH1 0x20 DUP3 DUP5 SUB SLT ISZERO PUSH2 0x6D8 JUMPI PUSH2 0x6D7 PUSH2 0x57F JUMP JUMPDEST JUMPDEST PUSH0 DUP3 ADD CALLDATALOAD PUSH8 0xFFFFFFFFFFFFFFFF DUP2 GT ISZERO PUSH2 0x6F5 JUMPI PUSH2 0x6F4 PUSH2 0x583 JUMP JUMPDEST JUMPDEST PUSH2 0x701 DUP5 DUP3 DUP6 ADD PUSH2 0x696 JUMP JUMPDEST SWAP2 POP POP SWAP3 SWAP2 POP POP JUMP JUMPDEST PUSH0 DUP2 SWAP1 POP SWAP2 SWAP1 POP JUMP JUMPDEST PUSH2 0x71C DUP2 PUSH2 0x70A JUMP JUMPDEST DUP2 EQ PUSH2 0x726 JUMPI PUSH0 DUP1 REVERT JUMPDEST POP JUMP JUMPDEST PUSH0 DUP2 CALLDATALOAD SWAP1 POP PUSH2 0x737 DUP2 PUSH2 0x713 JUMP JUMPDEST SWAP3 SWAP2 POP POP JUMP JUMPDEST PUSH0 PUSH20 0xFFFFFFFFFFFFFFFFFFFFFFFFFFFFFFFFFFFFFFFF DUP3 AND SWAP1 POP SWAP2 SWAP1 POP JUMP JUMPDEST PUSH0 PUSH2 0x766 DUP3 PUSH2 0x73D JUMP JUMPDEST SWAP1 POP SWAP2 SWAP1 POP JUMP JUMPDEST PUSH2 0x776 DUP2 PUSH2 0x75C JUMP JUMPDEST DUP2 EQ PUSH2 0x780 JUMPI PUSH0 DUP1 REVERT JUMPDEST POP JUMP JUMPDEST PUSH0 DUP2 CALLDATALOAD SWAP1 POP PUSH2 0x791 DUP2 PUSH2 0x76D JUMP JUMPDEST SWAP3 SWAP2 POP POP JUMP JUMPDEST PUSH0 DUP1 PUSH1 0x40 DUP4 DUP6 SUB SLT ISZERO PUSH2 0x7AD JUMPI PUSH2 0x7AC PUSH2 0x57F JUMP JUMPDEST JUMPDEST PUSH0 PUSH2 0x7BA DUP6 DUP3 DUP7 ADD PUSH2 0x729 JUMP JUMPDEST SWAP3 POP POP PUSH1 0x20 PUSH2 0x7CB DUP6 DUP3 DUP7 ADD PUSH2 0x783 JUMP JUMPDEST SWAP2 POP POP SWAP3 POP SWAP3 SWAP1 POP JUMP JUMPDEST PUSH0 PUSH1 0x20 DUP3 DUP5 SUB SLT ISZERO PUSH2 0x7EA JUMPI PUSH2 0x7E9 PUSH2 0x57F JUMP JUMPDEST JUMPDEST PUSH0 PUSH2 0x7F7 DUP5 DUP3 DUP6 ADD PUSH2 0x783 JUMP JUMPDEST SWAP2 POP POP SWAP3 SWAP2 POP POP JUMP JUMPDEST PUSH2 0x809 DUP2 PUSH2 0x70A JUMP JUMPDEST DUP3 MSTORE POP POP JUMP JUMPDEST PUSH0 DUP2 MLOAD SWAP1 POP SWAP2 SWAP1 POP JUMP JUMPDEST PUSH0 DUP3 DUP3 MSTORE PUSH1 0x20 DUP3 ADD SWAP1 POP SWAP3 SWAP2 POP POP JUMP JUMPDEST PUSH0 JUMPDEST DUP4 DUP2 LT ISZERO PUSH2 0x846 JUMPI DUP1 DUP3 ADD MLOAD DUP2 DUP5 ADD MSTORE PUSH1 0x20 DUP2 ADD SWAP1 POP PUSH2 0x82B JUMP JUMPDEST PUSH0 DUP5 DUP5 ADD MSTORE POP POP POP POP JUMP JUMPDEST PUSH0 PUSH2 0x85B DUP3 PUSH2 0x80F JUMP JUMPDEST PUSH2 0x865 DUP2 DUP6 PUSH2 0x819 JUMP JUMPDEST SWAP4 POP PUSH2 0x875 DUP2 DUP6 PUSH1 0x20 DUP7 ADD PUSH2 0x829 JUMP JUMPDEST PUSH2 0x87E DUP2 PUSH2 0x58F JUMP JUMPDEST DUP5 ADD SWAP2 POP POP SWAP3 SWAP2 POP POP JUMP JUMPDEST PUSH0 DUP2 ISZERO ISZERO SWAP1 POP SWAP2 SWAP1 POP JUMP JUMPDEST PUSH2 0x89D DUP2 PUSH2 0x889 JUMP JUMPDEST DUP3 MSTORE POP POP JUMP JUMPDEST PUSH0 PUSH1 0x80 DUP3 ADD SWAP1 POP PUSH2 0x8B6 PUSH0 DUP4 ADD DUP8 PUSH2 0x800 JUMP JUMPDEST PUSH2 0x8C3 PUSH1 0x20 DUP4 ADD DUP7 PUSH2 0x800 JUMP JUMPDEST DUP2 DUP2 SUB PUSH1 0x40 DUP4 ADD MSTORE PUSH2 0x8D5 DUP2 DUP6 PUSH2 0x851 JUMP JUMPDEST SWAP1 POP PUSH2 0x8E4 PUSH1 0x60 DUP4 ADD DUP5 PUSH2 0x894 JUMP JUMPDEST SWAP6 SWAP5 POP POP POP POP POP JUMP JUMPDEST PUSH0 PUSH1 0x40 DUP3 ADD SWAP1 POP PUSH2 0x900 PUSH0 DUP4 ADD DUP6 PUSH2 0x800 JUMP JUMPDEST PUSH2 0x90D PUSH1 0x20 DUP4 ADD DUP5 PUSH2 0x800 JUMP JUMPDEST SWAP4 SWAP3 POP POP POP JUMP JUMPDEST PUSH2 0x91D DUP2 PUSH2 0x75C JUMP JUMPDEST DUP3 MSTORE POP POP JUMP JUMPDEST PUSH0 PUSH1 0x20 DUP3 ADD SWAP1 POP PUSH2 0x936 PUSH0 DUP4 ADD DUP5 PUSH2 0x914 JUMP JUMPDEST SWAP3 SWAP2 POP POP JUMP JUMPDEST PUSH32 0x4E487B7100000000000000000000000000000000000000000000000000000000 PUSH0 MSTORE PUSH1 0x22 PUSH1 0x4 MSTORE PUSH1 0x24 PUSH0 REVERT JUMPDEST PUSH0 PUSH1 0x2 DUP3 DIV SWAP1 POP PUSH1 0x1 DUP3 AND DUP1 PUSH2 0x980 JUMPI PUSH1 0x7F DUP3 AND SWAP2 POP JUMPDEST PUSH1 0x20 DUP3 LT DUP2 SUB PUSH2 0x993 JUMPI PUSH2 0x992 PUSH2 0x93C JUMP JUMPDEST JUMPDEST POP SWAP2 SWAP1 POP JUMP JUMPDEST PUSH0 DUP2 SWAP1 POP DUP2 PUSH0 MSTORE PUSH1 0x20 PUSH0 KECCAK256 SWAP1 POP SWAP2 SWAP1 POP JUMP JUMPDEST PUSH0 PUSH1 0x20 PUSH1 0x1F DUP4 ADD DIV SWAP1 POP SWAP2 SWAP1 POP JUMP JUMPDEST PUSH0 DUP3 DUP3 SHL SWAP1 POP SWAP3 SWAP2 POP POP JUMP JUMPDEST PUSH0 PUSH1 0x8 DUP4 MUL PUSH2 0x9F5 PUSH32 0xFFFFFFFFFFFFFFFFFFFFFFFFFFFFFFFFFFFFFFFFFFFFFFFFFFFFFFFFFFFFFFFF DUP3 PUSH2 0x9BA JUMP JUMPDEST PUSH2 0x9FF DUP7 DUP4 PUSH2 0x9BA JUMP JUMPDEST SWAP6 POP DUP1 NOT DUP5 AND SWAP4 POP DUP1 DUP7 AND DUP5 OR SWAP3 POP POP POP SWAP4 SWAP3 POP POP POP JUMP JUMPDEST PUSH0 DUP2 SWAP1 POP SWAP2 SWAP1 POP JUMP JUMPDEST PUSH0 PUSH2 0xA3A PUSH2 0xA35 PUSH2 0xA30 DUP5 PUSH2 0x70A JUMP JUMPDEST PUSH2 0xA17 JUMP JUMPDEST PUSH2 0x70A JUMP JUMPDEST SWAP1 POP SWAP2 SWAP1 POP JUMP JUMPDEST PUSH0 DUP2 SWAP1 POP SWAP2 SWAP1 POP JUMP JUMPDEST PUSH2 0xA53 DUP4 PUSH2 0xA20 JUMP JUMPDEST PUSH2 0xA67 PUSH2 0xA5F DUP3 PUSH2 0xA41 JUMP JUMPDEST DUP5 DUP5 SLOAD PUSH2 0x9C6 JUMP JUMPDEST DUP3 SSTORE POP POP POP POP JUMP JUMPDEST PUSH0 SWAP1 JUMP JUMPDEST PUSH2 0xA7B PUSH2 0xA6F JUMP JUMPDEST PUSH2 0xA86 DUP2 DUP5 DUP5 PUSH2 0xA4A JUMP JUMPDEST POP POP POP JUMP JUMPDEST JUMPDEST DUP2 DUP2 LT ISZERO PUSH2 0xAA9 JUMPI PUSH2 0xA9E PUSH0 DUP3 PUSH2 0xA73 JUMP JUMPDEST PUSH1 0x1 DUP2 ADD SWAP1 POP PUSH2 0xA8C JUMP JUMPDEST POP POP JUMP JUMPDEST PUSH1 0x1F DUP3 GT ISZERO PUSH2 0xAEE JUMPI PUSH2 0xABF DUP2 PUSH2 0x999 JUMP JUMPDEST PUSH2 0xAC8 DUP5 PUSH2 0x9AB JUMP JUMPDEST DUP2 ADD PUSH1 0x20 DUP6 LT ISZERO PUSH2 0xAD7 JUMPI DUP2 SWAP1 POP JUMPDEST PUSH2 0xAEB PUSH2 0xAE3 DUP6 PUSH2 0x9AB JUMP JUMPDEST DUP4 ADD DUP3 PUSH2 0xA8B JUMP JUMPDEST POP POP JUMPDEST POP POP POP JUMP JUMPDEST PUSH0 DUP3 DUP3 SHR SWAP1 POP SWAP3 SWAP2 POP POP JUMP JUMPDEST PUSH0 PUSH2 0xB0E PUSH0 NOT DUP5 PUSH1 0x8 MUL PUSH2 0xAF3 JUMP JUMPDEST NOT DUP1 DUP4 AND SWAP2 POP POP SWAP3 SWAP2 POP POP JUMP JUMPDEST PUSH0 PUSH2 0xB26 DUP4 DUP4 PUSH2 0xAFF JUMP JUMPDEST SWAP2 POP DUP3 PUSH1 0x2 MUL DUP3 OR SWAP1 POP SWAP3 SWAP2 POP POP JUMP JUMPDEST PUSH2 0xB3F DUP3 PUSH2 0x80F JUMP JUMPDEST PUSH8 0xFFFFFFFFFFFFFFFF DUP2 GT ISZERO PUSH2 0xB58 JUMPI PUSH2 0xB57 PUSH2 0x59F JUMP JUMPDEST JUMPDEST PUSH2 0xB62 DUP3 SLOAD PUSH2 0x969 JUMP JUMPDEST PUSH2 0xB6D DUP3 DUP3 DUP6 PUSH2 0xAAD JUMP JUMPDEST PUSH0 PUSH1 0x20 SWAP1 POP PUSH1 0x1F DUP4 GT PUSH1 0x1 DUP2 EQ PUSH2 0xB9E JUMPI PUSH0 DUP5 ISZERO PUSH2 0xB8C JUMPI DUP3 DUP8 ADD MLOAD SWAP1 POP JUMPDEST PUSH2 0xB96 DUP6 DUP3 PUSH2 0xB1B JUMP JUMPDEST DUP7 SSTORE POP PUSH2 0xBFD JUMP JUMPDEST PUSH1 0x1F NOT DUP5 AND PUSH2 0xBAC DUP7 PUSH2 0x999 JUMP JUMPDEST PUSH0 JUMPDEST DUP3 DUP2 LT ISZERO PUSH2 0xBD3 JUMPI DUP5 DUP10 ADD MLOAD DUP3 SSTORE PUSH1 0x1 DUP3 ADD SWAP2 POP PUSH1 0x20 DUP6 ADD SWAP5 POP PUSH1 0x20 DUP2 ADD SWAP1 POP PUSH2 0xBAE JUMP JUMPDEST DUP7 DUP4 LT ISZERO PUSH2 0xBF0 JUMPI DUP5 DUP10 ADD MLOAD PUSH2 0xBEC PUSH1 0x1F DUP10 AND DUP3 PUSH2 0xAFF JUMP JUMPDEST DUP4 SSTORE POP JUMPDEST PUSH1 0x1 PUSH1 0x2 DUP9 MUL ADD DUP9 SSTORE POP POP POP JUMPDEST POP POP POP POP POP POP JUMP JUMPDEST PUSH32 0x4E487B7100000000000000000000000000000000000000000000000000000000 PUSH0 MSTORE PUSH1 0x11 PUSH1 0x4 MSTORE PUSH1 0x24 PUSH0 REVERT JUMPDEST PUSH0 PUSH2 0xC3C DUP3 PUSH2 0x70A JUMP JUMPDEST SWAP2 POP PUSH2 0xC47 DUP4 PUSH2 0x70A JUMP JUMPDEST SWAP3 POP DUP3 DUP3 ADD SWAP1 POP DUP1 DUP3 GT ISZERO PUSH2 0xC5F JUMPI PUSH2 0xC5E PUSH2 0xC05 JUMP JUMPDEST JUMPDEST SWAP3 SWAP2 POP POP JUMP INVALID LOG2 PUSH5 0x6970667358 0x22 SLT KECCAK256 0xB8 SWAP5 0xBF 0xCB ORIGIN NOT TIMESTAMP 0xED STATICCALL 0x5E 0xEF 0xC5 0xFC SWAP10 PUSH25 0x15A331174ED0302AD2914013310669E39064736F6C63430008 AND STOP CALLER "
				},
				"gasEstimates": {
					"creation": {
						"codeDepositCost": "645400",
						"executionCost": "674",
						"totalCost": "646074"
					},
					"external": {
						"beneficiary(address)": "infinite",
						"donate(uint256,address)": "infinite",
						"donation(address)": "infinite",
						"donator(address)": "infinite",
						"setBeneficiary(string)": "infinite"
					}
				},
				"methodIdentifiers": {
					"beneficiary(address)": "81008568",
					"donate(uint256,address)": "8004f9fa",
					"donation(address)": "f457ee5a",
					"donator(address)": "cc51d892",
					"setBeneficiary(string)": "49ef1467"
				}
			},
			"storageLayout": {
				"storage": [
					{
						"astId": 23,
						"contract": "Donation2.sol:Donation2",
						"label": "beneficiary",
						"offset": 0,
						"slot": "0",
						"type": "t_mapping(t_address,t_struct(Beneficiary)18_storage)"
					},
					{
						"astId": 27,
						"contract": "Donation2.sol:Donation2",
						"label": "donation",
						"offset": 0,
						"slot": "1",
						"type": "t_mapping(t_address,t_address)"
					},
					{
						"astId": 32,
						"contract": "Donation2.sol:Donation2",
						"label": "donator",
						"offset": 0,
						"slot": "2",
						"type": "t_mapping(t_address,t_struct(Donator)9_storage)"
					}
				],
				"types": {
					"t_address": {
						"encoding": "inplace",
						"label": "address",
						"numberOfBytes": "20"
					},
					"t_array(t_address)dyn_storage": {
						"base": "t_address",
						"encoding": "dynamic_array",
						"label": "address[]",
						"numberOfBytes": "32"
					},
					"t_bool": {
						"encoding": "inplace",
						"label": "bool",
						"numberOfBytes": "1"
					},
					"t_mapping(t_address,t_address)": {
						"encoding": "mapping",
						"key": "t_address",
						"label": "mapping(address => address)",
						"numberOfBytes": "32",
						"value": "t_address"
					},
					"t_mapping(t_address,t_struct(Beneficiary)18_storage)": {
						"encoding": "mapping",
						"key": "t_address",
						"label": "mapping(address => struct Donation2.Beneficiary)",
						"numberOfBytes": "32",
						"value": "t_struct(Beneficiary)18_storage"
					},
					"t_mapping(t_address,t_struct(Donator)9_storage)": {
						"encoding": "mapping",
						"key": "t_address",
						"label": "mapping(address => struct Donation2.Donator)",
						"numberOfBytes": "32",
						"value": "t_struct(Donator)9_storage"
					},
					"t_string_storage": {
						"encoding": "bytes",
						"label": "string",
						"numberOfBytes": "32"
					},
					"t_struct(Beneficiary)18_storage": {
						"encoding": "inplace",
						"label": "struct Donation2.Beneficiary",
						"members": [
							{
								"astId": 11,
								"contract": "Donation2.sol:Donation2",
								"label": "applyDate",
								"offset": 0,
								"slot": "0",
								"type": "t_uint256"
							},
							{
								"astId": 13,
								"contract": "Donation2.sol:Donation2",
								"label": "amount",
								"offset": 0,
								"slot": "1",
								"type": "t_uint256"
							},
							{
								"astId": 15,
								"contract": "Donation2.sol:Donation2",
								"label": "donationType",
								"offset": 0,
								"slot": "2",
								"type": "t_string_storage"
							},
							{
								"astId": 17,
								"contract": "Donation2.sol:Donation2",
								"label": "isApply",
								"offset": 0,
								"slot": "3",
								"type": "t_bool"
							}
						],
						"numberOfBytes": "128"
					},
					"t_struct(Donator)9_storage": {
						"encoding": "inplace",
						"label": "struct Donation2.Donator",
						"members": [
							{
								"astId": 3,
								"contract": "Donation2.sol:Donation2",
								"label": "donateDate",
								"offset": 0,
								"slot": "0",
								"type": "t_uint256"
							},
							{
								"astId": 5,
								"contract": "Donation2.sol:Donation2",
								"label": "totalDonationAmount",
								"offset": 0,
								"slot": "1",
								"type": "t_uint256"
							},
							{
								"astId": 8,
								"contract": "Donation2.sol:Donation2",
								"label": "beneficiaryAddr",
								"offset": 0,
								"slot": "2",
								"type": "t_array(t_address)dyn_storage"
							}
						],
						"numberOfBytes": "96"
					},
					"t_uint256": {
						"encoding": "inplace",
						"label": "uint256",
						"numberOfBytes": "32"
					}
				}
			},
			"userdoc": {
				"kind": "user",
				"methods": {},
				"version": 1
			}
		}
	}
}